:020000040000FA
:100000000C94EA010C941B020C941B020C941B022E
:100010000C941B020C941B020C941B020C941B02EC
:100020000C941B020C941B020C941B020C941B02DC
:100030000C941B020C946E130C941B020C941B0268
:100040000C941B020C941B020C941B020C941B02BC
:100050000C941B020C941B020C941B020C94241392
:100060000C941B020C94EE120C94C4120C941B0200
:100070000C941B020C941B020C941B020C941B028C
:100080000C941B020C941B020C941B020C941B027C
:100090000C941B020C941B020C941B020C941B026C
:1000A0000C941B020C941B020C941B020C941B025C
:1000B0000C941B020C941B020C941B020C941B024C
:1000C0000C941B020C941B020C941B020C941B023C
:1000D0000C941B020C941B020C948E120C94641250
:1000E0000C941B020C94DF030C94DA180C94B50CDE
:1000F0000C94B4030C94D6180C94B1030C945A0CC1
:100100000C9486140C949F030C94500C0C947E0C4D
:100110000C94E0030C94E2180C94E4030C94AD0CE2
:100120000C94BC0C0C94D8180C94C20B0C94B10C0D
:100130000C94D4180C94CE180C94D6030C94A903E8
:100140000C948D0C0C94A5020C94890C0C94D21870
:100150000C94CA180C9434030C943E0C0C94C00CF0
:100160000C94D2030C94460C0C94B80C0C94C30C55
:100170000C94DE180C94D0180C94E0180C94CC1845
:100180000C94910C0C94DA030C944C0C0C947A0C97
:100190000C94E4180C94D10C0C94C4030C94D40C5F
:1001A0000C94CC030C94E7020C9447020C94490C79
:1001B0000C94BA030C943A0C0C94C8030C945D0C88
:1001C0000C94360C0C94AD030C94C60C0C94740275
:1001D0000C94530C0C94A5030C94860C0C94420CB8
:1001E0000C94820C0C9497020C94570C0C94DC1811
:1001F0000C94BE030C94CD0C0C94C90C0C9483028B
:100200000C94950C52657475726E696E6720746FEC
:100210002050726576696F7573204D6F6465204656
:1002200061696C7572652E2E2E0053657474696E4B
:1002300067204261756472617465205375636365FC
:10024000737366756C210053657474696E67204220
:1002500061756472617465204661696C7572652EA2
:100260002E2E00456E746572696E6720436F6E6650
:10027000696775726174696F6E204D6F6465205394
:1002800075636365737366756C2100456E74657282
:10029000696E6720436F6E66696775726174696F16
:1002A0006E204D6F6465204661696C7572652E2EF7
:1002B0002E0000002100240027002A002D0030001D
:1002C000330001010000040107010A0100002200BF
:1002D000250028002B002E00310034000201000010
:1002E000050108010B010000200023002600290061
:1002F0002C002F003200000100000301060109015B
:1003000005050505070508080808020202020A0A91
:1003100008080404040401010101010101010303AF
:10032000030303030303040707070C0C0C0C0C0C5A
:100330000C0C0202020206060606060606060B0B57
:100340000B0B0B0B0B0B0102102020080810204098
:100350001020408002010201080402010102040889
:100360001020408080402010080402018004020117
:100370008040201008040201080402010102040860
:1003800010204080010204081020408000000A0B69
:1003900002090C0D0E080703040100000000000014
:1003A000000000000000000000000000000000004D
:1003B000000000000000000012111000000000000A
:1003C000000000000000000000000000000000002D
:1003D0000000861411241FBECFEFD1E2DEBFCDBFD7
:1003E00000E00CBF12E0A0E0B2E0EAEAF7E300E0D0
:1003F0000BBF02C007900D92A834B107D9F724E0D3
:10040000A8E4B2E001C01D92AC39B207E1F711E0F7
:10041000CAEED1E000E006C021970109802FFE015D
:100420000E94BC1BC93ED10780E00807A9F70E94C3
:10043000E7140C94D31B0C9400008CBD9DBD089553
:10044000FC01A089B18982E08C93A485B5851C92BA
:10045000A685B78580E18C93108EA489B58986E046
:100460008C93A289B3898C9180618C93A289B38982
:100470008C9188608C93A289B3898C9180688C93CD
:100480000288F389E02D80818F7D80830895AF926B
:10049000BF92CF92DF92EF92FF920F931F93CF9371
:1004A000DF936C017B018B01040F151FEB015E01D3
:1004B000AE18BF08C017D10759F06991D601ED9168
:1004C000FC910190F081E02DC6011995892B79F7F7
:1004D000C501DF91CF911F910F91FF90EF90DF90B9
:1004E000CF90BF90AF900895FC01538D448D252F80
:1004F00030E0842F90E0821B930B541710F0CF96BE
:10050000089501970895FC01918D828D981761F0EF
:10051000A28DAE0FBF2FB11D5D968C91928D9F5F06
:100520009F73928F90E008958FEF9FEF0895FC01E5
:10053000918D828D981731F0828DE80FF11D858D98
:1005400090E008958FEF9FEF0895FC01918D228D2B
:10055000892F90E0805C9F4F821B91098F739927B0
:1005600008958AE493E00E94A50221E0892B09F412
:1005700020E0822F089587EE93E00E94A50221E0FB
:10058000892B09F420E0822F0895FC01A48DA80F87
:10059000B92FB11DA35ABF4F2C91848D90E00196C5
:1005A0008F739927848FA689B7892C93A089B189E5
:1005B0008C91837080648C93938D848D981306C086
:1005C0000288F389E02D80818F7D80830895EF92EA
:1005D000FF920F931F93CF93DF93EC0181E0888FFD
:1005E0009B8D8C8D98131AC0E889F989808185FFCD
:1005F00015C09FB7F894EE89FF896083E889F9896F
:1006000080818370806480839FBF81E090E0DF9170
:10061000CF911F910F91FF90EF900895F62E0B8DC3
:1006200010E00F5F1F4F0F731127E02E8C8D8E117E
:100630000CC00FB607FCFACFE889F989808185FFE5
:10064000F5CFCE010E94C502F1CFEB8DEC0FFD2F4F
:10065000F11DE35AFF4FF0829FB7F8940B8FEA89A0
:10066000FB8980818062CFCFCF93DF93EC01888DAF
:100670008823B9F0AA89BB89E889F9898C9185FD1D
:1006800003C0808186FD0DC00FB607FCF7CF8C91AB
:1006900085FFF2CF808185FFEDCFCE010E94C5029C
:1006A000E9CFDF91CF91089580E090E0892B29F088
:1006B0000E94BB0281110E94000080E090E0892B23
:1006C00049F080E090E0892B29F00E940000811120
:1006D0000E94000080E090E0892B49F080E090E0EB
:1006E000892B29F00E94000081110E94000080E007
:1006F00090E0892B29F00E94B10281110C94000036
:1007000008958150823108F05AC0E82FF0E0882720
:10071000E357FC4F8F4F0C94BC1BAD03B1039F03F9
:10072000A503A903DF03B403BA03BE03C403C803CC
:10073000CC03D203D603DF03DA03E003E4038091A2
:1007400080008F77809380000895809180008F7D56
:10075000F9CF80918000877FF5CF84B58F7784BDF6
:10076000089584B58F7DFBCF8091B0008F77809303
:10077000B00008958091B0008F7DF9CF80919000F6
:100780008F77809390000895809190008F7DF9CFAE
:1007900080919000877FF5CF8091A0008F77809324
:1007A000A00008958091A0008F7DF9CF8091A000D6
:1007B000877FF5CF809120018F7780932001089566
:1007C000809120018F7DF9CF80912001877FF5CF27
:1007D000CF93DF93282F30E0F901E457FC4F849149
:1007E000F901EA5BFC4FD491F901E050FD4FC4914F
:1007F000CC23A1F081110E948103EC2FF0E0EE0FD9
:10080000FF1FEA51FD4FA591B491EC91ED2381E0DA
:1008100090E009F480E0DF91CF91089580E090E0CE
:10082000FACF1F93CF93DF93282F30E0F901E457DD
:10083000FC4F8491F901EA5BFC4FD491F901E0503F
:10084000FD4FC491CC23A9F0162F81110E94810382
:10085000EC2FF0E0EE0FFF1FE453FD4FA591B49194
:100860008FB7F894EC91111108C0D095DE23DC937A
:100870008FBFDF91CF911F910895DE2BF8CFCF93DB
:10088000DF9390E0FC01EA5BFC4F249180509D4F88
:10089000FC0184918823D1F090E0880F991FFC011E
:1008A000EE54FD4FA591B491FC01E453FD4FC59169
:1008B000D491623071F49FB7F8943C91822F809567
:1008C00083238C93E8812E2B28839FBFDF91CF91C8
:1008D00008958FB7F894EC912E2B2C938FBFF6CF01
:1008E000863308F0865320917B00982F9870277FDD
:1008F000922B90937B008770806480937C00809122
:100900007A00806480937A0080917A0086FDFCCF23
:10091000809178009091790008953FB7F894809184
:100920007A0290917B02A0917C02B0917D0226B563
:10093000A89B05C02F3F19F00196A11DB11D3FBF17
:10094000BA2FA92F982F8827BC01CD01620F711DE6
:10095000811D911D42E0660F771F881F991F4A95E0
:10096000D1F708958F929F92AF92BF92CF92DF926C
:10097000EF92FF924B015C010E948D046B017C01A0
:100980000E948D046C197D098E099F09683E734091
:1009900081059105A8F321E0821A9108A108B10808
:1009A00088EEC80E83E0D81EE11CF11C811491046E
:1009B000A104B10429F7FF90EF90DF90CF90BF9092
:1009C000AF909F908F90089508958EBD00000DB454
:1009D00007FEFDCF8EB508951F93CF93DF93182F99
:1009E00080E591E00E941D02C4E8D4E060E08A89BD
:1009F0000E94110483E00E94E504812F0E94E50417
:100A000080E00E94E504182F61E08A890E941104A9
:100A1000812FDF91CF911F910895FF920F931F9324
:100A2000CF93DF93F82E062F142F80E591E00E94DC
:100A30001D02C4E8D4E060E08A890E94110485E0C8
:100A40000E94E5048F2D0E94E504802F0E94E5049A
:100A5000812F0E94E50461E08A89DF91CF911F9187
:100A60000F91FF900C941104CF93DF93D82F2FB7E1
:100A7000F8948091460390914703A0914803B09168
:100A800049032FBFC82F4D2F60EE8FE00E940D0548
:100A90008EE00E94EC04807ED81791F02FB7F89476
:100AA0008091460390914703A0914803B091490378
:100AB0002FBF8C1B893C38F381E0DF91CF910895E3
:100AC00080E0FBCFCF93DF93C82F8EE00E94EC0431
:100AD000807E8032F9F4C032E9F08BE20E94EC04AF
:100AE000D82FD07486FD05C040E460E48BE20E94FC
:100AF0000D0540E460E48CE20E940D0580E60E9452
:100B00003405811111C0D11105C040E060E48BE2D1
:100B10000E940D0540E060E48CE20E940D058C2FE0
:100B2000DF91CF910C94340581E0DF91CF9108954E
:100B30000F931F93CF93DF93082F162F80E591E03B
:100B40000E941D02C4E8D4E060E08A890E9411047A
:100B500082E00E94E504802F0E94E504812F0E941C
:100B6000E50461E08A89DF91CF911F910F910C9488
:100B70001104FF920F931F93CF93DF93C82FF62E8C
:100B8000172F042F80E591E00E941D0260E0809104
:100B900096040E94110482E00E94E5048C2F0E94BA
:100BA000E504CF2DD12F0C0F1D2F111DC017D1071C
:100BB00021F089910E94E504F9CF61E080919604CB
:100BC000DF91CF911F910F91FF900C941104CF935F
:100BD000DF9300D01F92CDB7DEB71C821B8261303D
:100BE00081F498E09A83198244E0BE016F5F7F4FE1
:100BF0000E94B9050F900F900F900F90DF91CF9149
:100C000008951A82F0CF2F923F924F925F926F9287
:100C10007F928F929F92AF92CF92DF92FF920F932B
:100C20001F93CF93DF9300D01F92CDB7DEB7B0E014
:100C3000A0E08093850490938604A0938704B093EA
:100C40008804109292041092840488E080938904AE
:100C5000FB01AAE8B4E0CB01089621912D93E81797
:100C6000F907D9F70E948D042B013C018090020204
:100C700090900302A09004021E0124E0220E311C79
:100C800089829A82AB82CE0101966C01F82E0D2DDD
:100C9000F60111916F01812F0E94EC0483FD20C0A9
:100CA0001F5FD12C0E948D04DC01CB0184199509B2
:100CB000A609B709F2E0DF121AC0843C9940A105E9
:100CC000B105F0F28091F30280618093F30280918C
:100CD000EF028F3F09F487C08F5F8093EF0283C0DC
:100CE000C214D304A9F610E072E0D72EDBCF843C07
:100CF0009940A105B10530F7409189046AE874E094
:100D000085E0810F0E94B90580919204813029F419
:100D1000809189048064809389046091890484E0CF
:100D2000810F0E949805409185045091860460913E
:100D3000870470918804809184048130C9F54C83C4
:100D40005B83AB0166277727842F880F880F880F76
:100D5000807E942F93709860892B8A8365E05695E6
:100D600047956A95E1F7498344E06F2D702F812FF5
:100D70000E94B905115048E068E0812F0E940D05DE
:100D80000E948D042B013C01812F0E94EC04082F4E
:100D90000E948D04DC01CB0184199509A609B709CD
:100DA00003FF14C0843C9940A105B10568F38ACFC4
:100DB000CA0123E0969587952A95E1F789834295A4
:100DC000440F407E4A831C821B82CECF2091F302C7
:100DD000843C9940A105B10508F074CF2D7E209385
:100DE000F3021092EF028091EF02833328F080919A
:100DF000F30282608093F3020F900F900F900F9098
:100E0000DF91CF911F910F91FF90DF90CF90AF9026
:100E10009F908F907F906F905F904F903F902F901A
:100E20000895FF920F931F93CF93DF93C82FF62E51
:100E3000172F042F80E591E00E941D0260E0809151
:100E400096040E94110483E00E94E5048C2F0E9406
:100E5000E504CF2DD12F0C0F1D2F111DC017D10769
:100E600029F080E00E94E5048993F8CF61E0809149
:100E70009604DF91CF911F910F91FF900C94110474
:100E80000F931F93CF93DF9300D01F92CDB7DEB7A0
:100E9000182F1092840410928504109286041092E8
:100EA00087041092880444E0BE016F5F7F4F0E9468
:100EB00011072A81898138E0839FC0011124422FC4
:100EC00050E065E0559547956A95E1F7840F951FC9
:100ED000092E000CAA0BBB0B80938504909386040B
:100EE000A0938704B093880423FF29C032E0880FC1
:100EF000991FAA1FBB1F3A95D1F72370820F911D2E
:100F0000A11DB11DBA2FA92F982F88272B81820FE1
:100F1000911DA11DB11DBA2FA92F982F88272C81B3
:100F2000820F911DA11DB11D8093850490938604AD
:100F3000A0938704B093880481E0809384048FEFAA
:100F4000810F0E94EC04082F84E0810F0E94EC04C2
:100F500003FF16C091E090939204482F4F70409386
:100F600089046AE874E085E0810F0E9411070F9000
:100F70000F900F900F90DF91CF911F910F910895D7
:100F800010929204EACFDF92EF92FF920F931F9399
:100F9000CF93DF93D82E162F042FC82FD0E02FE049
:100FA000281708F47FC080917702909178020D2C69
:100FB00002C0969587950A94E2F780FF4AC0C091D7
:100FC0007502D0917602CE010D2C02C096958795C0
:100FD0000A94E2F780FF02C0442319F1612F8D2D9E
:100FE0000E94110481E090E0A0E0B0E004C0880F0E
:100FF000991FAA1FBB1FDA94D2F720917302309178
:1010000074021123B9F0282B392B309374022093EA
:1010100073020023A9F08C2B9D2B90937602809372
:10102000750280E0DF91CF911F910F91FF90EF90BB
:10103000DF900895AC014095509524233523E5CFEA
:1010400080959095C823D923D0937602C0937502DA
:10105000E8CF413031F781E090E0A0E0B0E004C09B
:10106000880F991FAA1FBB1FDA94D2F7209175022F
:1010700030917602282B392B30937602209375021B
:101080002091730230917402662339F0822B932BE6
:101090009093740280937302C4CF809590958223BD
:1010A0009323F6CF8FE18D1508F476C06097809179
:1010B0007102909172020C2E02C0969587950A9447
:1010C000E2F780FF3FC0E0906F02F0907002C7012E
:1010D0000C2E02C0969587950A94E2F780FF03C014
:1010E000442309F49ECF612F8D2D0E94110481E0CD
:1010F00090E0A0E0B0E004C0880F991FAA1FBB1FBA
:10110000CA95D2F720916D0230916E02112379F0C9
:10111000282B392B30936E0220936D02002369F047
:10112000E82AF92AF0927002E0926F027ACFAC01BD
:101130004095509524233523EDCF80959095E82256
:10114000F922F0CF413009F06CCF81E090E0A0E0CF
:10115000B0E004C0880F991FAA1FBB1FCA95D2F721
:1011600020916F0230917002282B392B309370023E
:1011700020936F0220916D0230916E02662339F048
:10118000822B932B90936E0280936D024ACF8095B1
:10119000909582239323F6CF8FE28D1508F476C0C5
:1011A000A09780916B0290916C020C2E02C09695D4
:1011B00087950A94E2F780FF3FC0E0906902F090C3
:1011C0006A02C7010C2E02C0969587950A94E2F731
:1011D00080FF03C0442309F424CF612F8D2D0E948A
:1011E000110481E090E0A0E0B0E004C0880F991FF6
:1011F000AA1FBB1FCA95D2F72091670230916802DF
:10120000112379F0282B392B309368022093670241
:10121000002369F0E82AF92AF0926A02E092690252
:1012200000CFAC014095509524233523EDCF809518
:101230009095E822F922F0CF413009F0F2CE81E01A
:1012400090E0A0E0B0E004C0880F991FAA1FBB1F68
:10125000CA95D2F72091690230916A02282B392B66
:1012600030936A02209369022091670230916802EC
:10127000662339F0822B932B909368028093670248
:10128000D0CE8095909582239323F6CFE0978091DE
:101290006502909166020C2E02C0969587950A947D
:1012A000E2F780FF43C0E0906302F0906402C70160
:1012B0000C2E02C0969587950A94E2F780FF03C032
:1012C000442309F4AECE612F8D2D0E94110481E0DC
:1012D00090E0A0E0B0E004C0880F991FAA1FBB1FD8
:1012E000CA95D2F72091610230916202112379F000
:1012F000282B392B3093620220936102002369F07E
:101300008E299F2990936402809363028ACEAC0158
:101310004095509524233523EDCF80959095E82274
:10132000F922F0926402E09263027BCE413009F030
:1013300078CE81E090E0A0E0B0E004C0880F991F73
:10134000AA1FBB1FCA95D2F7209163023091640295
:10135000282B392B30936402209363022091610281
:1013600030916202662339F0822B932B90936202B4
:101370008093610256CE8095909582239323F6CF79
:10138000EF92FF921F93CF93DF93182FC82FD0E0D7
:10139000803108F05DC0C0917302D09174028091D9
:1013A000750290917602012E02C0969587950A9457
:1013B000E2F780FF08C0CE0102C0969587951A9586
:1013C000E2F7817016C0812F0E94E80341E050E0EF
:1013D00060E070E004C0440F551F661F771F1A9528
:1013E000D2F7882361F14C2B5D2B5093740240930C
:1013F000730220917302309174023093FE022093A5
:10140000FD0220916D0230916E0230930003209313
:10141000FF0220916702309168023093020320930B
:101420000103209161023091620230930403209302
:101430000303DF91CF911F91FF90EF9008954095A6
:101440005095C423D523D0937402C0937302D1CF97
:101450008032A8F5E0906D02F0906E026097809166
:101460006F02909170022C2F0C2E02C096958795DA
:101470000A94E2F780FF07C0C70102C096958795DE
:101480002A95E2F79ECF812F0E94E80341E050E0C9
:1014900060E070E004C0440F551F661F771FCA95B7
:1014A000D2F7882339F0E42AF52AF0926E02E0920E
:1014B0006D029FCF40955095E422F522F6CF803300
:1014C00070F5E0906702F0906802A0978091690241
:1014D00090916A022C2F0C2E02C0969587950A9443
:1014E000E2F780FDC9CF812F0E94E80341E050E080
:1014F00060E070E004C0440F551F661F771FCA9557
:10150000D2F7882339F0E42AF52AF0926802E092B3
:1015100067026FCF40955095E422F522F6CFE09018
:101520006102F0906202E097809163029091640200
:101530002C2F0C2E02C0969587950A94E2F780FD19
:101540009BCF812F0E94E80341E050E060E070E013
:1015500004C0440F551F661F771FCA95D2F7882312
:1015600039F0E42AF52AF0926202E092610241CF5A
:1015700040955095E422F522F6CF20914D0223307C
:10158000D1F028F4213041F0223071F00895243058
:10159000C9F02530F1F008958038910520F48E527D
:1015A0009D4FFC01608308958637F1E09F07D8F7CF
:1015B00080589D4FF6CF8115F2E09F07A0F7865A1D
:1015C0009D4FEFCF8115F2E09F0768F78C5A9D4F32
:1015D000E8CF8115F2E09F0730F7825B9D4FE1CFA6
:1015E0000F931F93CF93DF938C01D0E0C0E0F801FD
:1015F000EC0FFD1F6491662341F087EE93E00E949B
:10160000E702892B11F02196F2CF42E050E061E42D
:1016100072E087EE93E00E9447028C0F9D1FDF91DE
:10162000CF911F910F9108950F931F93CF93DF9345
:1016300061157105C9F0EB016735710510F0C6E55C
:10164000D0E08C0100511D4FC80FD91FC801805F29
:1016500092408C179D0740F4F80161918F0187EE4D
:1016600093E00E94E702F2CFDF91CF911F910F919B
:1016700008951F93CF93DF93E091D902E0FFA4C1B7
:10168000DE2FD295D695D370CE2FC695CF701FB7CB
:10169000F89480914802811127C0E5E3F3E084913A
:1016A000EBE7F3E09491E82FF0E0EE0FFF1FEE542C
:1016B000FD4FA591B491EC91E92321F461E085E31C
:1016C0000E94110461E085E30E943F048CB58061B3
:1016D0008CBD8CB580648CBD61E084E30E943F04C6
:1016E00061E083E30E943F04809148028F5F809312
:1016F00048021FBF80E591E00E941D0260E08091DA
:1017000096040E94110480EC0E94E50461E080913F
:1017100096040E94110465E070E080E090E00E9471
:10172000B20480E48093970480E80E946205182F39
:101730008BE892E0111192C083E692E00E94F00AD9
:10174000D13009F4BDC008F4F3C0D23009F02CC187
:10175000C150CE3008F028C1EC2FF0E08827EC54BF
:10176000F44F8F4F0C94BC1BC90CC20B360C3A0CB7
:101770003E0C420C460C490C4C0C500C530C570CB4
:101780005A0C5D0CC4E8D6EF13E9612F8AE20E947F
:1017900098056D2F89E20E9498056C2F88E20E94BF
:1017A00098058AE292E00E94F00A61E080E20E94DD
:1017B000E70561E084E20E94E70561E080E00E94C5
:1017C000E70560E084E00E94E70561E088E00E94B0
:1017D000E70560E080E10E94E70561E084E10E94A6
:1017E000E70560E088E10E94E705C0E360E08C2F38
:1017F0000E94980560E080E18C0F0E94980560E0EF
:1018000080E28C0F0E949805CF5FCE3379F760E0BD
:1018100080E60E94980560E080E70E94980563E0FA
:101820008BE20E9498056CE38CE00E94980560E0D2
:101830008DE00E94980544E664E680E60E940D056E
:1018400040E660E680E70E940D05809197040E94C3
:101850006205882309F4ACC084E092E00E94F00A9B
:101860008091F3028E7F8093F302B5C0C4E8D6EF77
:1018700019E88BCFC3E8D5EE17E887CFC4E8D6EFD9
:1018800015E883CFC4E8D6EF14E87FCFC3E8D5EEE0
:10189000FBCFC1E8D3EDF8CFC4E8D6EF11E875CFA0
:1018A000C3E8D5EEFBCFC4E8D6EF10E86ECFC3E8AF
:1018B000D5EEFBCFC1E8D1ED68CFC0E8D0EC65CF65
:1018C000C150CE3008F070C0EC2FF0E08827E4590A
:1018D000F34F8F4F0C94BC1BCD0C7A0C7E0CD40CA8
:1018E000820CB80C860CB50CB10C890CD10C8D0C8B
:1018F000910C950CC4E8D6EF17E647CFC4E8D6EFB5
:1019000013E543CFC3E8D5EE1EE43FCFC4E8D6EFDE
:101910003CCFC3E8D5EE13E438CFC3E8D5EE11E4ED
:1019200034CFC3E8D5EE10E430CFC1E8DAEC2DCFE8
:10193000C650C93008F038C0EC2FF0E08827EC55CD
:10194000F34F8F4F0C94BC1BBC0CB80CAD0CB50CFA
:10195000B10CC00CD10CC30CC60CC7E8DFEF14EC03
:1019600014CFC3E8D5EE14E410CFC4E8D6EFFBCF14
:10197000C4E8D6EF19E409CFC1E8D3ED18E105CFEB
:10198000C1E8D3EDF0CFC4E8D6EFCDCFC2E8D9EDB2
:10199000FCCEC4E8D6EF17EAF8CEC7E8DFEF1FE3C6
:1019A000F4CEC4E8D6EFBBCF87E492E00E94F00A01
:1019B0001092970480E00E9462058091F3021092D9
:1019C000EF028D7F81604FCF8091F3028C7F8093F7
:1019D000F3021092EF02DF91CF911F910895CF9201
:1019E000DF92EF92FF920F931F93CF93DF93EB0160
:1019F0007B0126E0E20EF11C8B016C01C61AD70AAE
:101A0000C601800F911F0E94D519F80181938F01A3
:101A1000EE15FF05A9F7CE01DF91CF911F910F9130
:101A2000FF90EF90DF90CF9008950F931F93CF9387
:101A3000DF9302ED12E0CAE0D0E0CE010E94D5199A
:101A4000F80181938F012196C631D105B1F700E8E5
:101A500012E0CAE8D0E0CE010E94D519F8018193C6
:101A60008F012196C93DD105B1F76AE572E080E0AA
:101A700092E00E94EF0C64E572E080E094E00E9446
:101A8000EF0C6EE472E080E096E00E94EF0C809133
:101A9000F10280688093F102DF91CF911F910F9145
:101AA0000895FF920F931F93CF93DF93EC01F62ECF
:101AB00008811981C8010E94D519F81621F06F2DEF
:101AC000C8010E94DD19CE01DF91CF911F910F91C6
:101AD000FF900895AF92BF92CF92DF92EF92FF9264
:101AE0000F931F93CF93DF931F921F92CDB7DEB753
:101AF0008B016B0126E0C20ED11C7B015C01A61A92
:101B0000B70AC5018E0D9F1D9A838983F7016191E4
:101B10007F01CE0101960E94510DEC14FD0489F75E
:101B2000C8010F900F90DF91CF911F910F91FF90FF
:101B3000EF90DF90CF90BF90AF900895EF92FF921B
:101B40000F931F93CF93DF931F921F92CDB7DEB7F2
:101B5000182F90E080E00E94D519823029F062E0D1
:101B600090E080E00E94DD19133009F448C090F441
:101B70001130D9F0123071F18091F10280688093B8
:101B8000F1020F900F90DF91CF911F910F91FF9075
:101B9000EF9008951430D1F1153071F76EE472E0D2
:101BA00080E096E00E946A0DE7CF92EDE92E92E088
:101BB000F92E0AE010E01A830983F70161917F0191
:101BC000CE0101960E94510D0F5F1F4F0631110586
:101BD00091F7D2CF80E8E82E82E0F82E0AE810E0F4
:101BE0001A830983F70161917F01CE0101960E945A
:101BF000510D0F5F1F4F093D110591F7BDCF6AE5EC
:101C000072E080E092E00E946A0DB6CF64E572E077
:101C100080E094E00E946A0DAFCFCF93DF931092E3
:101C2000F1020E94150D1092760210927502109228
:101C3000700210926F0210926A0210926902109262
:101C4000640210926302109272021092710210925A
:101C50006C0210926B02109266021092650261E0B3
:101C60008DE00E943F0480E090E2909378028093A0
:101C70007702C091DA02CF7301F1C53308F0C75F74
:101C8000C093ED02CA33C8F462E08C2F0E943F0477
:101C9000C03198F481E090E0A0E0B0E004C0880F8B
:101CA000991FAA1FBB1FCA95D2F7809590958827C8
:101CB0009072909378028093770280917A0084608A
:101CC00080937A0080917A008D7F80937A00809152
:101CD0007A008E7F80937A000E94390B86E580938C
:101CE000D8028CE090E09093D3028093D2021092BD
:101CF000D4021092D5021092D6021092D70281E03F
:101D00000E949E0D8FE490E0909381028093800268
:101D10001092820210928302109284021092850225
:101D200082E00E949E0DC6E0D0E0D0935B02C0939B
:101D30005A0210925C0210925D0210925E021092A2
:101D40005F0283E00E949E0DD0935502C09354021F
:101D50001092560210925702109258021092590295
:101D600084E00E949E0DD0934F02C0934E021092C9
:101D7000500210925102109252021092530285E0CA
:101D80000E949E0D87EE93E00E9420028AE493E079
:101D90000E9420021092EC021092EB021092F002CC
:101DA0008091F10281608093F1021092B000109254
:101DB000B10082E0809370009CE79093B300809321
:101DC000B0001092B2008DE08093B10087E087BB35
:101DD00088E198E20FB6F894A895809360000FBE52
:101DE00090936000DF91CF910895CF92DF92EF92B0
:101DF000FF920F931F93CF93DF931F921F92CDB744
:101E0000DEB780914D02833009F448C030F581304F
:101E100091F18230C9F180914B0290914C029C016A
:101E20002E0D3F1D2C153D0508F04CC0F99953C0EF
:101E3000800F912F911DFC0160813A832983CE018F
:101E400001960E94510D80914B0290914C02019697
:101E500090934C0280934B02DECF843049F1853061
:101E6000D1F60EE412E0CC24CA9487E0D82EE12CFF
:101E700096E0F92ED0CF02ED12E0EAE8CE2ED12C7A
:101E8000FAE0EF2EF12CC7CF00E812E0CC24CA9480
:101E9000DD24D3947AE8E72EF12CBDCF0AE512E0D9
:101EA000CC24CA9443E0D42EE12C52E0F52EB3CFDB
:101EB00004E512E0CC24CA9425E0D22EE12C34E0D3
:101EC000F32EA9CF8091F10280688093F1021092E5
:101ED0004C0210924B020F900F90DF91CF911F9107
:101EE0000F91FF90EF90DF90CF9008950F931F9385
:101EF000CF93DF931F921F92CDB7DEB7811521E0FC
:101F00009207E1F48091FC028D7F8093FC02109295
:101F10007602109275021092700210926F02109267
:101F20006A021092690210926402109263020F908A
:101F30000F90DF91CF911F910F91089581309807F5
:101F400051F48091DB0285FFF2CF8091FC02826028
:101F50008093FC02ECCF823021E0920769F58091FA
:101F6000DB0286FFE4CFF8940FB6F894A895809131
:101F70006000886180936000109260000FBE40E0B6
:101F800060E08DE00E94C30710E000E01A8309833F
:101F900060E0CE0101960E94510D0F5F1F4F0115A9
:101FA00080E1180799F70E94150D60E177E280E063
:101FB00090E00E94B204F9CF833021E0920749F407
:101FC0008091DB0285FFB3CFF8940E940D0E7894C8
:101FD000AECF9C01215032402034310568F420916D
:101FE000FC0221FFA4CF815041E061E08A3308F078
:101FF0009ECF0E94C3079BCF9C01215033402034C9
:10200000310508F094CF2091FC0221FF90CF815040
:102010008A3308F08CCF41E060E0EBCF9F92AF9223
:10202000BF92CF92DF92EF92FF920F931F93CF93C5
:10203000DF93CDB7DEB7ADB6BEB680914A0281114F
:1020400006C087EE93E00E9483028093490290913C
:102050004902903509F4B7C030F5923409F483C0D1
:10206000A0F4913409F46AC00FB6F894BEBE0FBE56
:10207000ADBEDF91CF911F910F91FF90EF90DF9058
:10208000CF90BF90AF909F900895953409F47FC092
:10209000963451F743E050E064E472E087EE93E059
:1020A0000E944702E1CF963509F4ACC0A8F49135FF
:1020B00009F49AC005E012E09335B1F6F801619198
:1020C0008F0187EE93E00E94E7021092F002F2E0A7
:1020D00004311F0799F7C8CF973509F407C1923724
:1020E00019F687EE93E00E94A50206970CF4E8C16A
:1020F00087EE93E00E948302982E87EE93E00E9481
:102100008302F82E87EE93E00E948302E82E87EE8A
:1021100093E00E94830200E0182F0E2987EE93E0DF
:102120000E948302E82E97E5F91209C1E4E09E12AD
:1021300051C16E2DC8010E94BD0A4CC16091D802E8
:1021400070E090E080E00E94140B8091CF029091AB
:10215000D0028F3F980709F487CF01969093D00261
:102160008093CF0281CF87EE93E00E94A502892B56
:10217000D1F387EE93E00E94830280934D02909109
:10218000F1029F779093F1020E949E0D6DCF87EE32
:1021900093E00E94A502892BD1F387EE93E00E9481
:1021A0008302182F87EE93E00E94A502892BD1F3BA
:1021B00087EE93E00E94830220E0382FC901812B33
:1021C0000E94760F51CF87EE93E00E94A502892BE3
:1021D000D1F387EE93E00E948302803318F480935A
:1021E0004D0242CF8053FBCF05E112E0F80161912F
:1021F0008F0187EE93E00E94E702F2E00E321F07A4
:10220000A9F732CF87EE93E00E94A502892BD1F384
:1022100087EE93E00E948302F82E87EE93E00E94FF
:10222000A502892BD1F387EE93E00E948302E0E0C0
:10223000F82FCF018F297C0187EE93E00E94A50241
:10224000892BD1F387EE93E00E948302D82E87EE8C
:1022500093E00E94A502892BD1F387EE93E00E94C0
:10226000830240E0582F4D2980914D02833071F157
:1022700000F5813029F1823031F1CDB6DEB6EDB70F
:10228000FEB7E41BF50B0FB6F894FEBF0FBEEDBF13
:102290006DB77EB76F5F7F4FF801EE0DFF1DDB015D
:1022A0009B01240F351F2A173B07B1F081918D93B5
:1022B000FACF843071F0853001F70EE412E0DDCF03
:1022C00002ED12E0DACF00E812E0D7CF0AE512E023
:1022D000D4CF04E512E0D1CF87EE93E00E9447020D
:1022E0000FB6F894DEBE0FBECDBEBECE87EE93E035
:1022F0000E94A502892BD1F387EE93E00E9483020E
:10230000182F87EE93E00E94A502892BD1F387EE68
:1023100093E00E94830220E0382FC901812B8C01B9
:1023200087EE93E00E94A502892BD1F387EE93E01C
:102330000E948302682FC8010E94BD0A95CE87EED5
:1023400093E00E948302F4E09F1244C040E0582FC3
:102350004E2922E4F21609F451C02F15E0F08FE067
:10236000F81641F19CE3F916C1F1EEE0FE1232C01D
:1023700005E012E074E1E72E72E0F72EF8016191BA
:102380008F0187EE93E00E94E7021092F002E016C0
:10239000F106A1F71FC0F0E5FF1609F442C026E5DB
:1023A000F21609F441C085E4F81214C0C8010E9475
:1023B000760F10C005E112E0EEE2EE2EE2E0FE2E16
:1023C000F80161918F0187EE93E00E94E702E01629
:1023D000F106B1F710924A0247CEBA01C8010E9435
:1023E000140B8091CF029091D0028F3F980791F308
:1023F00001969093D0028093CF02ECCF8091F102AE
:1024000087FD07C08091F10287FD03C00E94F50E91
:10241000F9CF00934D028091F1028F778093F10202
:10242000D9CF00934D02D6CF80914D028330A1F1D8
:1024300000F5813039F1823051F1EDB6FEB68DB73D
:102440009EB7841B950B0FB6F8949EBF0FBE8DBF31
:102450006DB77EB76F5F7F4FF601E00FF11FDB01B5
:102460009B01240F351FA217B30701F181918D93B2
:10247000FACF8430B1F0853001F78EE4C82E82E0C7
:10248000D82EDBCF62EDC62E62E0D62ED6CF30E856
:10249000C32E32E0D32ED1CF2AE5C22E22E0D22E97
:1024A000CCCF94E5C92E92E0D92EC7CF87EE93E02A
:1024B0000E9447020FB6F894FEBE0FBEEDBE8ACF53
:1024C00081E080934A02D0CD1F920F920FB60F92F7
:1024D00011240BB60F922F933F934F935F936F93FB
:1024E0007F938F939F93AF93BF93EF93FF938AE470
:1024F00093E00E94C502FF91EF91BF91AF919F9130
:102500008F917F916F915F914F913F912F910F909C
:102510000BBE0F900FBE0F901F9018951F920F9239
:102520000FB60F9211240BB60F922F938F939F9398
:10253000EF93FF93E0915A03F0915B038081E09168
:102540006003F091610382FD1DC09081809163035F
:102550008F5F8F7320916403821741F0E0916303D2
:10256000F0E0E65BFC4F958F80936303FF91EF9162
:102570009F918F912F910F900BBE0F900FBE0F90D8
:102580001F9018958081F2CF1F920F920FB60F9275
:1025900011240BB60F922F933F934F935F936F933A
:1025A0007F938F939F93AF93BF93EF93FF9387EEA8
:1025B00093E00E94C502FF91EF91BF91AF919F916F
:1025C0008F917F916F915F914F913F912F910F90DC
:1025D0000BBE0F900FBE0F901F9018951F920F9279
:1025E0000FB60F9211240BB60F922F938F939F93D8
:1025F000EF93FF93E091F703F091F8038081E0916E
:10260000FD03F091FE0382FD1DC0908180910004C6
:102610008F5F8F7320910104821741F0E0910004D5
:10262000F0E0E951FC4F958F80930004FF91EF910A
:102630009F918F912F910F900BBE0F900FBE0F9017
:102640001F9018958081F2CF1F920F920FB60F92B4
:1026500011242F933F938F939F93AF93BF938091B8
:10266000460390914703A0914803B09149033091EC
:10267000790223E0230F2D3758F50196A11DB11DD6
:10268000209379028093460390934703A0934803D5
:10269000B093490380917A0290917B02A0917C02D1
:1026A000B0917D020196A11DB11D80937A02909395
:1026B0007B02A0937C02B0937D02BF91AF919F916A
:1026C0008F913F912F910F900FBE0F901F901895F3
:1026D00026E8230F0296A11DB11DD2CF78941F9238
:1026E0000F920FB60F9211242F935F936F937F93E6
:1026F0008F939F93AF93BF938091000290910102BB
:1027000065E070E00E94A81B892B71F48091EE02B5
:1027100087FF05C080917F02806880937F0280914F
:10272000EE0280688093EE02809100029091010297
:1027300064E170E00E94A81B019771F48091EE02A1
:1027400086FF05C080917F02806480937F02809124
:10275000EE0280648093EE0280910002909101026B
:1027600062E370E00E94A81B029771F48091EE0270
:1027700085FF05C080917F02806280937F028091F7
:10278000EE0280628093EE0280910002909101023D
:102790006BE470E00E94A81B029771F48091EE0236
:1027A00084FF05C080917F02806180937F028091C9
:1027B000EE0280618093EE0280910002909101020E
:1027C00064E670E00E94A81B039771F48091EE020A
:1027D00083FF05C080917F02886080937F02809193
:1027E000EE0288608093EE028091000290910102D7
:1027F0006AEF70E00E94A81B049771F48091EE02CA
:1028000082FF05C080917F02846080937F02809167
:10281000EE0284608093EE028091000290910102AA
:1028200064EF71E00E94A81B049771F48091EE029E
:1028300081FF05C080917F02826080937F0280913A
:10284000EE0282608093EE0280910002909101027C
:1028500068EE73E00E94A81B049789F58091EE0250
:1028600080FF05C080917F02816080937F0280910C
:10287000EE0281608093EE0280916002823028F047
:1028800010927F021092600209C080917F0288231B
:10289000C9F3809160028F5F809360028091EB02A8
:1028A0009091EC029093F7028093F6021092EC0262
:1028B0001092EB028091F0028F5F8093F002809182
:1028C000000290910102873E9340B0F01092010205
:1028D0001092000280917F028093F20217BABF919A
:1028E000AF919F918F917F916F915F912F910F90F9
:1028F0000FBE0F901F9018958091000290910102D9
:1029000001969093010280930002E4CFCF93DF936E
:10291000EAE4F3E01382128248EE53E060E070E0F4
:10292000448355836683778383E392E09183808336
:1029300025E331E03587248724E331E03787268794
:1029400020E331E0318B208B21E331E0338B228B8C
:1029500022E331E0358B248B26E331E0378B268B65
:10296000118E128E138E148EE7EEF3E01382128214
:1029700044835583668377839183808385EC90E0DD
:102980009587848784EC90E09787868780EC90E039
:10299000918B808B81EC90E0938B828B82EC90E02A
:1029A000958B848B86EC90E0978B868B118E128EA4
:1029B000138E148EC4E8D4E085E38A8B61E00E9414
:1029C000110461E08A89DF91CF910C943F04CF9389
:1029D000DF9300D000D000D01F92CDB7DEB778943F
:1029E00084B5826084BD84B5816084BD85B5826014
:1029F00085BD85B5816085BD80916E0081608093C5
:102A00006E0010928100809181008260809381002D
:102A1000809181008160809381008091800081603D
:102A2000809380008091B10084608093B100809198
:102A3000B00081608093B0008091910082608093AB
:102A4000910080919100816080939100809190002D
:102A50008160809390008091A10082608093A100AA
:102A60008091A10081608093A1008091A00081608D
:102A70008093A00080912101826080932101809148
:102A800021018160809321018091200181608093E8
:102A9000200180917A00846080937A0080917A008E
:102AA000826080937A0080917A00816080937A00BE
:102AB00080917A00806880937A001092C1000E9411
:102AC0000D0E9E012F5F3F4F19018091EE0210E025
:102AD00087FF1DC0A8958091D90280FF12C0809108
:102AE000F30280FF0EC081FD0CC088E0F10111925D
:102AF0008A95E9F785E08887B10180E095E00E943A
:102B000003068091EE028F778093EE0211E08091B0
:102B1000EE0286FF1CC01F5F8091D90280FF12C0A9
:102B20008091F30280FF0EC081FD0CC088E0F101AE
:102B300011928A95E9F784E18887B10181E095E0F7
:102B40000E9403068091EE028F7B8093EE028091BB
:102B5000EE0285FF1CC01F5F8091D90280FF12C06A
:102B60008091F30280FF0EC081FD0CC088E0F1016E
:102B700011928A95E9F782E38887B10182E095E0B6
:102B80000E9403068091EE028F7D8093EE02809179
:102B9000EE0284FF06C01F5F8091EE028F7E80935D
:102BA000EE028091EE0283FFCEC11F5F8091D902B9
:102BB00080FF12C08091F30280FF0EC081FD0CC027
:102BC00088E0F10111928A95E9F784E68887B101DE
:102BD00083E095E00E9403068091F4029091F50253
:102BE0002091DC023091DD02232B09F44AC02091B0
:102BF000D1022F3F19F02F5F2093D1022091D102F3
:102C00002B3068F081609093F5028093F40210926B
:102C100032031092330310923403109235038091E3
:102C2000F3022091F4023091F502232B91F180649C
:102C30008093F3028091980490919904009711F485
:102C40008CE994E09101281B390BC9013093FB02F8
:102C50002093FA0220917F0221111DC0843F9140F0
:102C6000D0F08091F6029091F702883C910598F09F
:102C700080917E02843108F0F1C18F5F80937E02E3
:102C800011C01092D1028E7F9093F5028093F402CE
:102C9000C6CF8F7BCDCF8091F10282608093F1020D
:102CA00010927E0220919D0230919E0240919F02DF
:102CB0005091A0026091990270919A0280919B02BA
:102CC00090919C020E943C1A60932D0370932E03F6
:102CD00080932F0390933003A091960280918602F7
:102CE00090918702981708F4F7C18A1708F4BCC1BD
:102CF00020918E0230E030932C0320932B0390918F
:102D0000CD02A92EB12CB0923703A0923603E090E9
:102D1000CE022E2D30E03A87298730933903209355
:102D200038032091A1028091A202821708F4E5C124
:102D30004091A802291708F0F2C1941708F0F2C1D7
:102D4000E2EAF2E081E02191921718F08F5F88307B
:102D5000D1F73091AA022091A902321708F4E4C1F8
:102D6000C090AC022E1508F0F0C1EC1408F0EAC1D6
:102D7000E31608F4EFC12091AB02E21608F0E2C1BD
:102D800002E058E0059F90011124280F311DF90140
:102D9000E355FD4FF080882309F401C3F901E455A0
:102DA000FD4F9080002309F4D7C12B553D4FF90109
:102DB000D080811101C081E09417F0F590E09C0172
:102DC00021503109402F4150550BFA0143E0EE0FDD
:102DD000FF1F4A95E1F7E20FF31FE355FD4F808097
:102DE0002F553D4FF901208130E0A21AB30A8F55CB
:102DF0009D4FFC014080512C421A530A052C000CB7
:102E0000660877084F2D4919550B9A01D5010E9484
:102E1000C41BA30192010E94EB19F92CF20E8D2D17
:102E20008819990B9C01D5010E94C41BA301920132
:102E30000E94EB19D82CD20EEC14F8F4E02FF0E03D
:102E4000DF01A855BD4F4C9150E029853A85241BE0
:102E5000350B8F2D8D19990BDC010E94C41BE75592
:102E6000FD4F208130E0241B350B032E000C440B5A
:102E7000550B0E94EB19FD2CF20E2F2D30E03093F4
:102E80002A032093290300E0802F0E94C0090F5FCE
:102E90000433D1F725E0C22E23E0D22EF12C06E335
:102EA000802F0E947004802F0E947004F60181938D
:102EB00091936F01F394F0E1FF1251C140913103FE
:102EC000442E512C712C612CE09197022091050326
:102ED0003091060336952795369527954901B12CF3
:102EE000A12C481459046A047B0431F1EE2321F12A
:102EF000A0E0B1E0AE1BB1090E94CC1B6B017C01CC
:102F000050E09A01AE2FB0E00E942C1AC60ED71ED8
:102F1000E81EF91ECD2CDE2CEF2CFF249601C416E2
:102F2000D50651F42F5F3F4F481459046A047B04BF
:102F300018F0960121503109209331038091EE025F
:102F4000877F8093EE028091EE0282FF06C01F5FB2
:102F50008091EE028B7F8093EE028091EE0281FFE2
:102F600027C01F5F8091D90280FF12C08091F302B9
:102F700080FF0EC081FD0CC088E0F10111928A959E
:102F8000E9F785E08F83B10184E095E00E940306B4
:102F90008DE00E94C00940E060E0813009F061E00E
:102FA0008DE00E94C3078091EE028D7F8093EE0238
:102FB0008091EE0280FF17C18091D90280FF06C088
:102FC0008091F30280FD02C10E94390B8091D902E9
:102FD00080FF12C08091F30280FF0EC081FD0CC003
:102FE00088E0F10111928A95E9F787E08F83B101BA
:102FF00085E095E00E9403068091CF029091D00277
:103000009093F9028093F8021092D0021092CF02AE
:103010008091EE028E7F8093EE028AE493E00E941C
:10302000A50287EE93E00E94A502819714F00E940A
:103030000E108091F10287FF0E94F50E8091EB0245
:103040009091EC028091EB029091EC0201969093AA
:10305000EC028093EB020E94540337CD8091F10281
:103060008D7F8093F1021ECE80918D02E7E8F2E021
:1030700041E0A81718F0209195023CCE8191A81745
:1030800018F04F5F4830D1F750E0CA010197FC01BA
:10309000EA57FD4FE081EE2EF12C82579D4FFC0147
:1030A0000081CA0182579D4FFC012081201B330BF8
:1030B000B0E0AE19BF090E94C41B4A575D4FFA0128
:1030C000208130E02E193F09032E000C440B550BD4
:1030D0000E94EB19200F0ECEA81708F009CE8091A0
:1030E0008D028A1740F6E7E8F2E041E081918A1705
:1030F00058F24F5F4830D1F7C7CF921778F48091DC
:10310000A802891770F4E2EAF2E081E03191391700
:1031100018F08F5F8830D1F7422F1BCE422F80E00E
:1031200018CE422F87E015CEE21670F45091AC0213
:103130005E1568F43E1568F03091AB02C22E3E1564
:1031400008F41ECE03E01DCEC22E00E01ACEC22E21
:10315000F9CFC22E01E015CEDF2C01E02DCEEEEF2F
:10316000EF0D07E3EE3008F09BCEF0E08827E45443
:10317000F74E8F4F0C94BC1BE418CA18CC18CE180D
:10318000D018D218D418D618D818DA18DC18DE18C7
:10319000E018E21809E384CE0AE382CE0BE380CE86
:1031A0000CE37ECE0DE37CCE0EE37ACE0FE378CE39
:1031B00000E476CE01E474CE02E472CE03E470CE75
:1031C00004E46ECE05E46CCE08E36ACE81FFFECE49
:1031D00088E0F10111928A95E9F7B10189E997E058
:1031E0000E940306F3CE111118CF8AE493E00E94E7
:1031F000A50287EE93E00E94A5021816190614F4A2
:103200000E940E108091F30280FF07CF8091ED02A3
:103210000E94E803892B09F000CF80E591E00E942D
:103220001D0260E0809196040E94110480EA0E94D1
:10323000E50480E00E94E504182F61E08091960487
:103240000E94110410FF54C081E60E94400740E034
:1032500061E08CE20E940D0580918404882389F04E
:103260008091850490918604A0918704B091880490
:10327000B0688093850490938604A0938704B093EC
:10328000880480919204882389F08091850490912C
:103290008604A0918704B0918804B064809385046B
:1032A00090938604A0938704B0938804809185044A
:1032B00090918604A0918704B09188048093E702DE
:1032C0009093E802A093E902B093EA028091890406
:1032D0008093E602AAE8B4E0EEEDF2E090E09F0110
:1032E0002E5D3240281739075CF42D912193F7CFDA
:1032F00011FF06C081E70E94400740E062E0A9CFCD
:103300004091E7025091E8026091E9027091EA026F
:1033100077FD83CE8091DC029091DD02B0E0A0E0E9
:10332000481759076A077B0709F077CE8091E602B4
:10333000883009F072CE1092D1028091F4029091FF
:10334000F5028E7F9093F5028093F4028091E5025E
:1033500081111CC06091DF027091E002762767271F
:103360007627072E000C880B990B0E941A1B20E071
:1033700030E04AE754E40E94A81A60933203709345
:103380003303809334039093350347CE1092320376
:103390001092330310923403109235033ECE9F2CCB
:1033A000011103CDDF2C81E0D8CEF999FECF92BD7B
:1033B00081BDF89A992780B50895262FF999FECFF7
:1033C0001FBA92BD81BD20BD0FB6F894FA9AF99A42
:1033D0000FBE01960895052E97FB1EF400940E94DF
:1033E000021A57FD07D00E940A1A07FC03D04EF4B8
:1033F0000C94021A50954095309521953F4F4F4FB0
:103400005F4F089590958095709561957F4F8F4F90
:103410009F4F0895A1E21A2EAA1BBB1BFD010DC0F0
:10342000AA1FBB1FEE1FFF1FA217B307E407F50774
:1034300020F0A21BB30BE40BF50B661F771F881F50
:10344000991F1A9469F760957095809590959B01E6
:10345000AC01BD01CF010895A29FB001B39FC0018F
:10346000A39F700D811D1124911DB29F700D811DB0
:103470001124911D08955058BB27AA270E94531A62
:103480000C946E1B0E94601B38F00E94671B20F09A
:1034900039F49F3F19F426F40C945D1B0EF4E0956B
:1034A000E7FB0C94571BE92F0E947F1B58F3BA17B8
:1034B000620773078407950720F079F4A6F50C944A
:1034C000A11B0EF4E0950B2EBA2FA02D0B01B90114
:1034D00090010C01CA01A0011124FF27591B99F08A
:1034E000593F50F4503E68F11A16F040A22F232F96
:1034F000342F4427585FF3CF469537952795A795E6
:10350000F0405395C9F77EF41F16BA0B620B730B8C
:10351000840BBAF09150A1F0FF0FBB1F661F771FFD
:10352000881FC2F70EC0BA0F621F731F841F48F4B2
:10353000879577956795B795F7959E3F08F0B0CF3B
:103540009395880F08F09927EE0F97958795089522
:103550000E94BC1A0C946E1B0E94671B58F00E94BC
:10356000601B40F029F45F3F29F00C94571B511168
:103570000C94A21B0C945D1B0E947F1B68F3992383
:10358000B1F3552391F3951B550BBB27AA2762175F
:103590007307840738F09F5F5F4F220F331F441F6C
:1035A000AA1FA9F335D00E2E3AF0E0E832D09150A0
:1035B0005040E695001CCAF72BD0FE2F29D0660F8D
:1035C000771F881FBB1F261737074807AB07B0E8D0
:1035D00009F0BB0B802DBF01FF2793585F4F3AF0D6
:1035E0009E3F510578F00C94571B0C94A21B5F3F33
:1035F000E4F3983ED4F3869577956795B795F7955C
:103600009F5FC9F7880F911D9695879597F9089543
:10361000E1E0660F771F881FBB1F621773078407DF
:10362000BA0720F0621B730B840BBA0BEE1F88F7EE
:10363000E0950895E89409C097FB3EF49095809535
:10364000709561957F4F8F4F9F4F9923A9F0F92F68
:1036500096E9BB279395F695879577956795B795E6
:10366000F111F8CFFAF4BB0F11F460FF1BC06F5FCC
:103670007F4F8F4F9F4F16C0882311F096E911C0DE
:10368000772321F09EE8872F762F05C0662371F0FF
:1036900096E8862F70E060E02AF09A95660F771F13
:1036A000881FDAF7880F9695879597F9089597F907
:1036B0009F6780E870E060E008959FEF80EC0895D8
:1036C00000240A9416161706180609060895002401
:1036D0000A9412161306140605060895092E03947B
:1036E000000C11F4882352F0BB0F40F4BF2B11F4EF
:1036F00060FF04C06F5F7F4F8F4F9F4F089557FD4E
:103700009058440F551F59F05F3F71F04795880F4F
:1037100097FB991F61F09F3F79F0879508951216E6
:1037200013061406551FF2CF4695F1DF08C0161692
:1037300017061806991FF1CF869571056105089443
:103740000895E894BB2766277727CB0197F908955A
:10375000AA1BBB1B51E107C0AA1FBB1FA617B707B7
:1037600010F0A61BB70B881F991F5A95A9F78095D3
:103770009095BC01CD010895EE0FFF1F881F8BBFF0
:103780000790F691E02D19940E942C1A332312F41D
:103790008A1B9B0B0C94CE1B0E942C1AB7FF08951A
:1037A000821B930B0895F894FFCF050030405054CE
:1037B000535F4F535F56302E34305F64657600732D
:1037C0007065656475696E6F5F54535F4F535F56E4
:1037D000302E34305F6465760000000000E7024759
:1037E0000274023403A502830297020D0A003030EE
:0237F0003100A6
:020000040003F7
:10E000000D9489F10D94B2F10D94B2F10D94B2F129
:10E010000D94B2F10D94B2F10D94B2F10D94B2F1F0
:10E020000D94B2F10D94B2F10D94B2F10D94B2F1E0
:10E030000D94B2F10D94B2F10D94B2F10D94B2F1D0
:10E040000D94B2F10D94B2F10D94B2F10D94B2F1C0
:10E050000D94B2F10D94B2F10D94B2F10D94B2F1B0
:10E060000D94B2F10D94B2F10D94B2F10D94B2F1A0
:10E070000D94B2F10D94B2F10D94B2F10D94B2F190
:10E080000D94B2F10D94B2F10D94B2F10D94B2F180
:10E090000D94B2F10D94B2F10D94B2F10D94B2F170
:10E0A0000D94B2F10D94B2F10D94B2F10D94B2F160
:10E0B0000D94B2F10D94B2F10D94B2F10D94B2F150
:10E0C0000D94B2F10D94B2F10D94B2F10D94B2F140
:10E0D0000D94B2F10D94B2F10D94B2F10D94B2F130
:10E0E0000D94B2F141546D656761323536300041AF
:10E0F000726475696E6F206578706C6F72657220DE
:10E1000073746B3530305632206279204D4C530099
:10E11000426F6F746C6F616465723E004875683F52
:10E1200000436F6D70696C6564206F6E203D200048
:10E130004350552054797065202020203D20005FF9
:10E140005F4156525F415243485F5F3D2000415658
:10E1500052204C696243205665723D20004743437C
:10E160002056657273696F6E203D20004350552024
:10E1700049442020202020203D20004C6F7720663D
:10E18000757365202020203D20004869676820665F
:10E190007573652020203D200045787420667573D6
:10E1A00065202020203D20004C6F636B2066757336
:10E1B000652020203D20004D617220203720323024
:10E1C000313300312E362E3800342E332E350056A2
:10E1D00023202020414444522020206F7020636F70
:10E1E00064652020202020696E73747275637469E1
:10E1F0006F6E2061646472202020496E74657272B3
:10E20000757074006E6F20766563746F7200726A49
:10E210006D702020006A6D70200057686174207056
:10E220006F72743A00506F7274206E6F7420737541
:10E2300070706F72746564004D7573742062652030
:10E2400061206C6574746572002000577269747483
:10E25000696E672045450052656164696E672045B7
:10E26000450045452065727220636E743D00504F35
:10E27000525400303D5A65726F2061646472003FF1
:10E280003D43505520737461747300403D454550C3
:10E29000524F4D207465737400423D426C696E6B41
:10E2A000204C454400453D44756D70204545505215
:10E2B0004F4D00463D44756D7020464C415348001B
:10E2C000483D48656C70004C3D4C69737420492F83
:10E2D0004F20506F72747300513D51756974005234
:10E2E0003D44756D702052414D00563D73686F7707
:10E2F00020696E7465727275707420566563746FF0
:10E30000727300593D506F727420626C696E6B00BD
:10E310002A0011241FBECFEFD1E2DEBFCDBF01E046
:10E320000CBF12E0A0E0B2E0EEE1FDEF03E00BBFB6
:10E3300002C007900D92A030B107D9F712E0A0E01B
:10E34000B2E001C01D92AE30B107E1F70F9460F367
:10E350000D948DFE01E20EBF0FEF0DBF11241FBE05
:10E360000D9460F30D9400F020E030E040ED57E0B4
:10E3700005C0FA013197F1F72F5F3F4F2817390792
:10E38000C0F308959C01260F311DC901A0E0B0E043
:10E390002F5F3F4FABBFFC018791882361F08093D3
:10E3A000C6008091C00086FFFCCF8091C0008064D1
:10E3B0008093C000EACF08958DE08093C6008091DD
:10E3C000C00086FFFCCF8091C00080648093C000B5
:10E3D0008AE08093C6008091C00086FFFCCF8091C8
:10E3E000C00080648093C00008950F94C2F10F9420
:10E3F000DCF10895FC019081992359F09093C600B7
:10E400008091C00086FFFCCF8091C0008064809323
:10E41000C0003196992379F70895282F982F929567
:10E420009F70892F805D8A3308F0895F8093C600D2
:10E430008091C00086FFFCCF8091C00080648093F3
:10E44000C000822F8F70982F905D9A3308F0995FEB
:10E450009093C6008091C00086FFFCCF8091C000E1
:10E4600080648093C00008959C01FB01853691056E
:10E470001CF46330710594F0C90164E670E00F94F8
:10E480002EFE605D7F4F6093C6008091C00086FFC6
:10E49000FCCF8091C00080648093C0002B30310598
:10E4A00014F43297B4F0C90164E670E00F942EFEC4
:10E4B0006AE070E00F942EFE605D7F4F6093C600AF
:10E4C0008091C00086FFFCCF8091C0008064809363
:10E4D000C000C9016AE070E00F942EFEC0968093E0
:10E4E000C6008091C00086FFFCCF8091C000806490
:10E4F0008093C00008951F93182F8EE692EE60E07F
:10E500000F94C2F11093C6008091C00086FFFCCF2B
:10E510008091C00080648093C0000F94DCF11F9153
:10E5200008952F923F924F925F926F927F928F92B7
:10E530009F92AF92BF92CF92DF92EF92FF920F9392
:10E540001F93DF93CF93CDB7DEB762970FB6F894E2
:10E55000DEBF0FBECDBF382E622ECA01DB015C01CB
:10E560006D01772420E2222E2E010894411C511CBB
:10E570008BC081E0A81680E0B80681E0C80680E084
:10E58000D80628F0C601AA27BB270F940DF2BB2797
:10E59000AD2D9C2D8B2D0F940DF28A2D0F940DF225
:10E5A0002092C6008091C00086FFFCCF8091C00001
:10E5B00080648093C0009DE29093C6008091C0006B
:10E5C00086FFFCCF8091C00080648093C0002092C1
:10E5D000C6008091C00086FFFCCF8091C00080649F
:10E5E0008093C00019828601750188249924A1E0D6
:10E5F0003A1651F03A1620F0B2E03B1661F409C029
:10E600000BBFF701779007C0C7010F9477FE782EF4
:10E6100002C0F7017080872D0F940DF22092C60082
:10E620008091C00086FFFCCF8091C0008064809301
:10E63000C000872D8052F401EF70F0708F3520F408
:10E64000E40DF51D708204C0E40DF51D8EE280839B
:10E650000894E11CF11C011D111D0894811C911CE2
:10E6600090E18916910409F0C2CF80E190E0A0E02A
:10E67000B0E0A80EB91ECA1EDB1E198AC2010F9493
:10E68000FAF10F94DCF16A94662009F072CF629679
:10E690000FB6F894DEBF0FBECDBFCF91DF911F91B3
:10E6A0000F91FF90EF90DF90CF90BF90AF909F9031
:10E6B0008F907F906F905F904F903F902F90089534
:10E6C0002F923F924F925F926F927F928F929F9282
:10E6D000AF92BF92CF92DF92EF92FF920F931F9370
:10E6E000DF93CF93CDB7DEB7CD53D1400FB6F894BB
:10E6F000DEBF0FBECDBF01E20EBF0FEF0DBF94B75F
:10E70000F894A89514BE80916000886180936000A1
:10E7100010926000789493FF05C0E0910002F091A0
:10E7200001021995279A2F9A8091C00082608093E8
:10E73000C00080E18093C40088E18093C1000000A4
:10E74000EE24FF24870144E0A42EB12CCC24DD2448
:10E7500024C0C5010197F1F70894E11CF11C011DCB
:10E76000111D21E2E2162EE4F20620E0020720E06D
:10E77000120718F031E0C32ED12CC801B70127ECE5
:10E780003BE140E050E00F9441FE611571058105C9
:10E79000910519F485B1805885B98091C00087FD35
:10E7A00003C0C114D104A9F2A6014F5F5F4FC25E3E
:10E7B000DE4F59834883CE51D140C25EDE4F8881FF
:10E7C0009981CE51D140019711F00D9410FEC05D9A
:10E7D000DE4F19821882C053D14060E0C15DDE4F28
:10E7E0001882CF52D14088249924C35DDE4F19820C
:10E7F0001882CD52D140C05EDE4F188219821A8233
:10E800001B82C052D140CE5CDE4F188219821A8220
:10E810001B82C253D140EE24FF2487010BBFF701B6
:10E8200007911691C45CDE4F19830883CC53D14005
:10E830000D940BFEC25EDE4F28813981CE51D1404E
:10E840002130310509F52091C600C25EDE4F1982E4
:10E850001882CE51D14022C02F5F3F4F4F4F5F4FA4
:10E86000213082E138078AE7480780E0580780F0C6
:10E87000C45CDE4FE881F981CC53D140EF5FFF4F9C
:10E8800019F0EE27FF27099420E030E040E050E047
:10E890008091C00087FFE0CF2091C600C35DDE4FAE
:10E8A00048815981CD52D1404F5F5F4FC35DDE4FEC
:10E8B00059834883CD52D140213209F063C64A3092
:10E8C000510508F05FC60894811C911C53E0851621
:10E8D000910409F059C600E010E018C081E280936D
:10E8E000C6008091C00086FFFCCF8091C00080648C
:10E8F0008093C0002F5F3F4F2931310579F70F9486
:10E90000DCF10F5F1F4F0530110519F020E030E0FA
:10E91000E5CF10920A0210920B0210920C02109294
:10E920000D02109206021092070210920802109235
:10E930000902109202021092030210920402109235
:10E9400005028FEE90EE60E00F94F5F180E191EE1C
:10E9500060E00F94C2F18091C00087FFFCCF9091DE
:10E96000C600903608F09F759032B8F09093C600BC
:10E970008091C00086FFFCCF8091C00080648093AE
:10E98000C000A0E2A093C6008091C00086FFFCCF2B
:10E990008091C00080648093C000983409F4D7C18E
:10E9A0009934B8F4923409F459C1933458F490333B
:10E9B00019F1903308F4E3C59F33A1F1903409F0C5
:10E9C000DEC5BDC0953409F470C1963409F0D7C5D1
:10E9D00098C1923509F42BC2933538F49C3409F46C
:10E9E000F5C1913509F0CBC518C2963509F445C279
:10E9F000993509F0C4C567C483E792EE62E00F94CD
:10EA0000F5F110920602109207021092080210927D
:10EA1000090210920A0210920B0210920C0210923C
:10EA20000D0213C18FE792EE62E00F94F5F18FEEC5
:10EA300090EE60E00F94F5F181E291EE60E00F94CA
:10EA4000C2F187EB91EE60E00F94F5F180E391EE77
:10EA500060E00F94C2F184EE90EE60E00F94F5F167
:10EA60008FE391EE60E00F94C2F186E090E061E008
:10EA700070E00F9434F20F94DCF18DE591EE60E0DC
:10EA80000F94C2F189EC91EE60E00F94F5F18EE401
:10EA900091EE60E00F94C2F183EC91EE60E00F9490
:10EAA000F5F18CE691EE60E00F94C2F18EE10F94E7
:10EAB0000DF288E90F940DF281E00F940DF20F949E
:10EAC000DCF18BE791EE60E00F94C2F119E0E0E039
:10EAD000F0E010935700E4918E2F0F940DF20F94F5
:10EAE000DCF18AE891EE60E00F94C2F1E3E0F0E03F
:10EAF00010935700E4918E2F0F940DF20F94DCF1D8
:10EB000089E991EE60E00F94C2F1E2E0F0E0109349
:10EB10005700E4918E2F0F940DF20F94DCF188EAE8
:10EB200091EE60E00F94C2F1E1E0F0E01093570045
:10EB30001491812F0F940DF20F94DCF107CF8BE825
:10EB400092EE62E00F94F5F18BE492EE60E00F94A8
:10EB5000F5F10F94DCF100E010E019C0C8016F2D51
:10EB60000F947FFEFF2031F489E492EE60E00F9471
:10EB7000C2F10BC0F092C6008091C00086FFFCCFAE
:10EB80008091C00080648093C0000F5F1F4FC80158
:10EB900081519F41A0E0B0E0ABBFFC01F790BAE229
:10EBA000FB1621F0E2E000301E07C1F60F94DCF105
:10EBB0000F94DCF187E592EE60E00F94F5F10F948D
:10EBC000DCF1CC24DD2400E010E01EC0C8010F946D
:10EBD00077FEF82E882331F489E492EE60E00F94FA
:10EBE000C2F10BC08093C6008091C00086FFFCCFAD
:10EBF0008091C00080648093C000FE1419F00894D6
:10EC0000C11CD11C0F5F1F4FC80181519F41A0E063
:10EC1000B0E0ABBFFC01E790FAE2EF1621F022E092
:10EC20000030120799F60F94DCF10F94DCF182E6C4
:10EC300092EE60E00F94C2F1C60161E070E00F94C3
:10EC400034F20F94DCF10F94DCF110920202109276
:10EC50000302109204021092050278CE89E992EE26
:10EC600062E00F94F5F1279A2F9A16C02F9880E052
:10EC700090E0E0EDF7E03197F1F7019684369105E9
:10EC8000C1F72F9A80E090E0E0EDF7E03197F1F7DF
:10EC9000019684369105C1F78091C00087FFE6CFC9
:10ECA0008091C00087FFFCCF64C485EA92EE62E0E9
:10ECB0000F94F5F140910202509103026091040219
:10ECC0007091050281E020E10F9491F2809102029F
:10ECD00090910302A0910402B091050280509F4FD1
:10ECE000AF4FBF4F8093020290930302A0930402A0
:10ECF000B093050280509041A040B04008F426CE69
:10ED0000A4CF83EB92EE62E00F94F5F140910602FE
:10ED100050910702609108027091090280E020E1A1
:10ED20000F9491F28091060290910702A09108023F
:10ED3000B091090280509F4FAF4FBF4F80930602A2
:10ED400090930702A0930802B0930902FFCD80ECD4
:10ED500092EE62E00F94F5F183E792EE60E00F949B
:10ED6000F5F18FE792EE60E00F94F5F18BE892EE0B
:10ED700060E00F94F5F189E992EE60E00F94F5F10F
:10ED800085EA92EE60E00F94F5F183EB92EE60E09D
:10ED90000F94F5F180EC92EE60E00F94F5F187ECC2
:10EDA00092EE60E00F94F5F188ED92EE60E00F9442
:10EDB000F5F18FED92EE60E00F94F5F18AEE92EEB0
:10EDC00060E00F94F5F183E093EEBDCD87EC92EE19
:10EDD00062E00F94F5F181E40F947BF282E40F94EA
:10EDE0007BF283E40F947BF284E40F947BF285E45E
:10EDF0000F947BF286E40F947BF287E40F947BF20E
:10EE000088E40F947BF28AE40F947BF28BE40F94F6
:10EE10007BF28CE40F947BF299CD88ED92EE62E068
:10EE20000F94F5F1772473948824992409C48FED05
:10EE300092EE62E00F94F5F140910A0250910B02BC
:10EE400060910C0270910D0282E020E10F9491F22A
:10EE500080910A0290910B02A0910C02B0910D02D8
:10EE600080509F4FAF4FBF4F80930A0290930B0289
:10EE7000A0930C02B0930D0269CD8AEE92EE62E08F
:10EE80000F94F5F184EE90EE60E00F94F5F18FECC5
:10EE900091EE60E00F94F5F1662477244301CC5D98
:10EEA000DE4F19821882C452D140D401C301B695F5
:10EEB000A79597958795CA5DDE4F88839983AA8326
:10EEC000BB83C652D140CC5DDE4FA881B981C4520C
:10EED000D1401196CC5DDE4FB983A883C452D14096
:10EEE000CD0162E070E00F9434F2B0E2B093C6005E
:10EEF0008091C00086FFFCCF8091C0008064809329
:10EF0000C000EDE2E093C6008091C00086FFFCCF18
:10EF10008091C00080648093C000F0E2F093C6004E
:10EF20008091C00086FFFCCF8091C00080648093F8
:10EF3000C000CA5DDE4FE880F9800A811B81C6529D
:10EF4000D140BB27A12F902F8F2D0F940DF2CA5DBA
:10EF5000DE4F8881C652D1400F940DF2B0E2FB2EF5
:10EF6000F092C6008091C00086FFFCCF8091C00067
:10EF700080648093C0000DE30093C6008091C000C0
:10EF800086FFFCCF8091C00080648093C00010E2B7
:10EF90001093C6008091C00086FFFCCF8091C00016
:10EFA00080648093C0008BBEF3012791C65DDE4F65
:10EFB0002883CA52D140A22EBB24CC24DD2408943D
:10EFC000611C711C811C911C8BBEF3018791282E42
:10EFD0003324442455240894611C711C811C911C09
:10EFE0008BBEF3013791C55DDE4F3883CB52D140E4
:10EFF0000894611C711C811C911C8BBEF30147910C
:10F00000C45DDE4F4883CC52D140ADEFEA2EAFEF66
:10F01000FA2EAFEF0A2FAFEF1A2F6E0C7F1C801E57
:10F02000911E142D032DF22CEE24EA0CFB1C0C1D5A
:10F030001D1D0F940DF220E22093C6008091C000A8
:10F0400086FFFCCF8091C00080648093C000C65DC5
:10F05000DE4F8881CA52D1400F940DF230E23093D6
:10F06000C6008091C00086FFFCCF8091C000806404
:10F070008093C000C45DDE4F8881CC52D1400F9494
:10F080000DF240E24093C6008091C00086FFFCCFA5
:10F090008091C00080648093C000C55DDE4F888190
:10F0A000CB52D1400F940DF250E25093C6008091A4
:10F0B000C00086FFFCCF8091C00080648093C000B8
:10F0C0008FEFE8168FEFF80680E0080780E018075A
:10F0D00031F484E092EE60E00F94C2F1DFC0D80119
:10F0E000C7018070907CA070B0708050904CA040A0
:10F0F000B040D1F52FEF3FE340E050E0E222F322B1
:10F1000004231523CA5DDE4FA880B980CA80DB8046
:10F11000C652D140AE0CBF1CC01ED11EAA0CBB1CD7
:10F12000CC1CDD1C8EE092EE60E00F94C2F1BB2798
:10F13000A12F902F8F2D0F940DF28E2D0F940DF285
:10F1400030E23093C6008091C00086FFFCCF8091F2
:10F15000C00080648093C0004EE34093C60080915D
:10F16000C00086FFFCCF87C08EE09EEFA0E0B0E03D
:10F17000E822F9220A231B239CE0E91694E9F90608
:10F1800090E0090790E0190709F088C0C45DDE4FE0
:10F19000A881CC52D140EA2EFF2400E010E0102FCD
:10F1A0000F2DFE2CEE24C55DDE4FB881CB52D14031
:10F1B000EB0EF11C011D111DD601C501817090706F
:10F1C000A070B070DC0199278827E80EF91E0A1F8D
:10F1D0001B1F20EF30E040E050E0A222B322C42207
:10F1E000D52241E1AA0CBB1CCC1CDD1C4A95D1F7F1
:10F1F000EA0CFB1C0C1D1D1D81E090E0A0E0B0E0BE
:10F20000282239224A225B2235E1220C331C441C7D
:10F21000551C3A95D1F7E20CF31C041D151D57013E
:10F220006801AA0CBB1CCC1CDD1C85E192EE60E0E1
:10F230000F94C2F1C801AA27BB270F940DF2BB2778
:10F24000A12F902F8F2D0F940DF28E2D0F940DF274
:10F2500090E29093C6008091C00086FFFCCF809121
:10F26000C00080648093C000AEE3A093C60080918C
:10F27000C00086FFFCCF8091C00080648093C000F6
:10F28000C601AA27BB270F940DF2BB27AD2D9C2DDD
:10F290008B2D0F940DF28A2D0F940DF20F94DCF14B
:10F2A000CC5DDE4FE881F981C452D140F99709F471
:10F2B0004DCBF4E0EF2EF12C012D112D6E0C7F1CA7
:10F2C000801E911EF2CD83E093EE62E00F94F5F183
:10F2D0008AE192EE60E00F94C2F18091C00087FF56
:10F2E000FCCF1091C6001F751093C6008091C0001E
:10F2F00086FFFCCF8091C00080648093C0000F9493
:10F30000DCF1812F81548A3108F036C1163409F4BA
:10F3100095C0173490F4133409F44EC0143430F40B
:10F320001134F1F0123409F01DC130C0143409F465
:10F3300059C0153409F016C16BC01A3409F4C4C0A1
:10F340001B3438F4173409F48FC0183409F00AC19B
:10F35000A1C01B3409F4D2C01C3409F003C1E8C0B9
:10F360008FEF81B90DC082B1809582B980E090E0C5
:10F37000E0EDF7E03197F1F70196883C9105C1F790
:10F380008091C00087FFEFCF12B8EFC08FEF84B934
:10F390000DC085B1809585B980E090E0E0EDF7E0A3
:10F3A0003197F1F70196883C9105C1F78091C00033
:10F3B00087FFEFCF15B8D9C08FEF87B90DC088B1DF
:10F3C000809588B980E090E0E0EDF7E03197F1F7C3
:10F3D0000196883C9105C1F78091C00087FFEFCF6F
:10F3E00018B8C3C08FEF8AB90DC08BB180958BB9A7
:10F3F00080E090E0E0EDF7E03197F1F70196883C8E
:10F400009105C1F78091C00087FFEFCF1BB8ADC059
:10F410008FEF8DB90DC08EB180958EB980E090E0F0
:10F42000E0EDF7E03197F1F70196883C9105C1F7DF
:10F430008091C00087FFEFCF1EB897C08FEF80BBD1
:10F440000DC081B3809581BB80E090E0E0EDF7E0F6
:10F450003197F1F70196883C9105C1F78091C00082
:10F4600087FFEFCF11BA81C08FEF83BB0DC084B38C
:10F47000809584BB80E090E0E0EDF7E03197F1F714
:10F480000196883C9105C1F78091C00087FFEFCFBE
:10F4900014BA6BC08FEF809301010FC080910201FD
:10F4A00080958093020180E090E0E0EDF7E03197F5
:10F4B000F1F70196883C9105C1F78091C00087FF64
:10F4C000EDCF1092020151C08FEF809304010FC065
:10F4D0008091050180958093050180E090E0E0ED4A
:10F4E000F7E03197F1F70196883C9105C1F78091DB
:10F4F000C00087FFEDCF1092050137C08FEF8093DA
:10F5000007010FC08091080180958093080180E079
:10F5100090E0E0EDF7E03197F1F70196883C910536
:10F52000C1F78091C00087FFEDCF109208011DC088
:10F530008FEF80930A010FC080910B01809580931B
:10F540000B0180E090E0E0EDF7E03197F1F70196F4
:10F55000883C9105C1F78091C00087FFEDCF1092E4
:10F560000B0103C085E292EEEEC98091C00087FFD7
:10F57000FCCF8091C600EAC988E392EEE4C98CE131
:10F5800091EEE1C988249924933011F1943028F444
:10F59000913089F09230B8F408C0953061F195301F
:10F5A000F0F0963009F048C043C02B3109F042C951
:10F5B00091E06BE13FC96227C15DDE4F2883CF52E6
:10F5C000D14092E037C9B22FA0E0622793E032C960
:10F5D000822F90E0A82BB92B622794E02BC92E3004
:10F5E00009F039C3622795E0C05DDE4F19821882A9
:10F5F000C053D1401FC9E1E0F0E0EC0FFD1FC05D3A
:10F60000DE4F08811981C053D140E00FF11F2083E4
:10F610000F5F1F4FC05DDE4F19830883C053D14079
:10F6200062270A171B0709F005C9D80196E002C92D
:10F63000261709F010C303C0973009F0FBC87724E0
:10F640009981933109F412C19431C8F4963009F4C8
:10F65000D8C0973050F4923009F406C1933009F4C1
:10F660006DC0913009F059C253C0913109F477C08F
:10F67000923108F0BBC0903109F04FC2F5C098310B
:10F6800009F487C0993150F4953109F4EFC09531F0
:10F6900008F4C6C1963109F040C2C2C19A3109F4DA
:10F6A0006CC09A3108F491C09B3109F45BC09D3164
:10F6B00009F033C29D81903359F48F81882311F46E
:10F6C0009EE11CC0813011F091E018C098E916C08D
:10F6D000892F807591F0903539F4E0E0F0E089E011
:10F6E0008093570094910AC0983539F4E3E0F0E034
:10F6F00089E080935700949101C090E01A821B82A8
:10F700008D818C831D829E831F8227E030E009C299
:10F710001A8288E08B8381E48C8386E58D8382E581
:10F720008E8389E48F8383E5888780E589878FE5E9
:10F730008A8782E38B872BE030E0F3C18A818139AD
:10F7400041F0823941F0803911F48FE005C080E04A
:10F7500003C082E001C08AE01A828B8344C0772410
:10F76000739482C08D81882311F48EE12CC0813086
:10F7700011F081E028C088E926C01A82E1E0F0E0BB
:10F7800089E08093570084918B831C8224E030E0D1
:10F79000C8C18B81803589F48C81883039F4E2E0EE
:10F7A000F0E089E08093570084910DC0E0E0F0E044
:10F7B00089E080935700849106C0E3E0F0E089E09F
:10F7C0008093570084911A82DFCF8D81836C99E0FA
:10F7D000E1E0F0E0082E90935700E89507B600FCB2
:10F7E000FDCF1A821B8223E030E09BC180EC8A832C
:10F7F000CE5CDE4F188219821A821B82C253D1401E
:10F800008EC18A8190E0A0E0B0E0582F44273327D2
:10F8100022278B8190E0A0E0B0E0DC0199278827C7
:10F82000282B392B4A2B5B2B8D8190E0A0E0B0E098
:10F83000282B392B4A2B5B2B8C8190E0A0E0B0E089
:10F84000BA2FA92F982F8827282B392B4A2B5B2BCF
:10F85000220F331F441F551FC05EDE4F288339839C
:10F860004A835B83C052D1401A8259C13A81C95C34
:10F87000DE4F3883C753D140CA5CDE4F1882C6536F
:10F88000D1408B81C82EDD24CA5CDE4F488159816E
:10F89000C653D140C42AD52A933109F082C0CE5C28
:10F8A000DE4F88819981AA81BB81C253D1408050AB
:10F8B000904CA340B04030F583E0CE5CDE4FE88052
:10F8C000F9800A811B81C253D140F70100935B008C
:10F8D00080935700E89507B600FCFDCFCE5CDE4F65
:10F8E000088119812A813B81C253D14000501F4FAA
:10F8F0002F4F3F4FCE5CDE4F088319832A833B8313
:10F90000C253D140C05EDE4F488159816A817B81FC
:10F91000C052D140DE011B9631E08C9111962C91A2
:10F9200011971296C75CDE4F2883C953D140C85C3B
:10F93000DE4F1882C853D14090E0C85CDE4FE881AA
:10F94000F981C853D1408E2B9F2B0C01FA01609393
:10F950005B0030935700E89511244E5F5F4F6F4F67
:10F960007F4F0EEFE02E0FEFF02ECE0CDF1CC114F8
:10F97000D10499F685E0C05EDE4F088119812A81A5
:10F980003B81C052D140F80120935B008093570027
:10F99000E89507B600FCFDCF81E180935700E8951C
:10F9A00035C0C05EDE4F88819981AA81BB81C0527B
:10F9B000D140B695A795979587957C018601ABE0D8
:10F9C000AA2EB12CAC0EBD1E0BC0D5016D915D01F0
:10F9D000C7010F947FFE0894E11CF11C01501040F8
:10F9E0000115110591F7A60160E070E0440F551F65
:10F9F000661F771FC05EDE4FE880F9800A811B8199
:10FA0000C052D1404E0D5F1D601F711F1A82C05E33
:10FA1000DE4F488359836A837B83C052D1407FC0C5
:10FA2000FA80C55CDE4FF882CB53D140C65CDE4F16
:10FA30001882CA53D1408B81C82EDD24C65CDE4FAC
:10FA400008811981CA53D140C02AD12A1A828981DA
:10FA5000BE016D5F7F4F843121F59601C05EDE4FA0
:10FA6000E880F9800A811B81C052D1400BBFF701A9
:10FA700087919691DB018C9311969C936E5F7F4FDB
:10FA8000D801C7010296A11DB11DC05EDE4F88835B
:10FA90009983AA83BB83C052D14022503040F1F6F3
:10FAA00036C0C05EDE4F288139814A815B81C052F9
:10FAB000D1400894C108D108760100E010E0089414
:10FAC000C11CD11C0894E11CF11C011D111DE20E8A
:10FAD000F31E041F151F21BDBB27A52F942F832FB5
:10FAE00082BD2F5F3F4F4F4F5F4FF89A80B5DB01CC
:10FAF0008D93BD012E153F054007510761F7C05E8C
:10FB0000DE4F288339834A835B83C052D1409601FC
:10FB10002D5F3F4FFB01108204C080EC8A8322E0FE
:10FB200030E08BE18093C6008091C00086FFFCCF5F
:10FB30008091C00080648093C000C15DDE4FF88179
:10FB4000CF52D140F093C6008091C00086FFFCCF19
:10FB50008091C00080648093C000432F3093C60022
:10FB60008091C00086FFFCCF8091C00080648093AC
:10FB7000C000922F2093C6008091C00086FFFCCF6A
:10FB80008091C00080648093C0008EE08093C600A6
:10FB90008091C00086FFFCCF8091C000806480937C
:10FBA000C00065E1C15DDE4FE880CF52D1406E25D7
:10FBB00069276427FE01319610C090819093C6009A
:10FBC0008091C00086FFFCCF31968091C000806498
:10FBD0008093C0006927215030402115310569F715
:10FBE0006093C6008091C00086FFFCCF8091C0006A
:10FBF00080648093C00085B1805885B9772081F4F6
:10FC0000C15DDE4F0881CF52D1400F5FC15DDE4F35
:10FC10000883CF52D14090E0A0E0B0E00D941AF4F8
:10FC200027982F9880E090E020ED37E0F901319798
:10FC3000F1F7019684369105C9F700008091C00064
:10FC40008D7F8093C00081E180935700E895EE2777
:10FC5000FF270994FFCF90E00D941AF497FB092E2B
:10FC600007260AD077FD04D02ED006D000201AF443
:10FC7000709561957F4F0895F6F7909581959F4F08
:10FC80000895A1E21A2EAA1BBB1BFD010DC0AA1FDD
:10FC9000BB1FEE1FFF1FA217B307E407F50720F0F5
:10FCA000A21BB30BE40BF50B661F771F881F991F70
:10FCB0001A9469F760957095809590959B01AC01B9
:10FCC000BD01CF010895AA1BBB1B51E107C0AA1FAC
:10FCD000BB1FA617B70710F0A61BB70B881F991FED
:10FCE0005A95A9F780959095BC01CD010895F99991
:10FCF000FECF92BD81BDF89A992780B50895262F31
:10FD0000F999FECF1FBA92BD81BD20BD0FB6F89400
:0EFD1000FA9AF99A0FBE01960895F894FFCF63
:00000001FF
