:100000000C9462000C948A000C948A000C948A0070
:100010000C948A000C948A000C948A000C94DB0DDA
:100020000C948A000C948A000C948A000C948A0028
:100030000C948A000C948A000C948A000C948A0018
:100040000C94910D0C948A000C945F0D0C94390D56
:100050000C948A000C948A000C948A000C948A00F8
:100060000C948A000C948A000000000024002700F1
:100070002A0000000000250028002B0000000000DE
:1000800023002600290004040404040404040202DA
:100090000202020203030303030301020408102007
:1000A0004080010204081020010204081020000012
:1000B0000008000201000003040700000000000027
:1000C0000000F20E11241FBECFEFD8E0DEBFCDBF7F
:1000D00011E0A0E0B1E0E4EFF9E202C005900D927A
:1000E000A634B107D9F724E0A6E4B1E001C01D921F
:1000F000AC3AB207E1F710E0C2E6D0E004C02197C5
:10010000FE010E94E314C136D107C9F70E942D0FEA
:100110000C94F8140C9400008CBD9DBD0895AF9212
:10012000BF92CF92DF92EF92FF920F931F93CF93E4
:10013000DF936C017B018B01040F151FEB015E0146
:10014000AE18BF08C017D10759F06991D601ED91DB
:10015000FC910190F081E02DC6010995892B79F77A
:10016000C501DF91CF911F910F91FF90EF90DF902C
:10017000CF90BF90AF900895FC01538D448D252FF3
:1001800030E0842F90E0821B930B541710F0CF9631
:10019000089501970895FC01918D828D981761F063
:1001A000A28DAE0FBF2FB11D5D968C91928D9F5F7A
:1001B0009F73928F90E008958FEF9FEF0895FC0159
:1001C000918D828D981731F0828DE80FF11D858D0C
:1001D00090E008958FEF9FEF0895FC01918D228D9F
:1001E000892F90E0805C9F4F821B91098F73992724
:1001F000089589EF93E00E94ED0021E0892B09F436
:1002000020E0822F089580E090E0892B29F00E9461
:10021000F90081110C9400000895FC01A48DA80F31
:10022000B92FB11DA35ABF4F2C91848D90E0019638
:100230008F739927848FA689B7892C93A089B18958
:100240008C91837080648C93938D848D981306C0F9
:100250000288F389E02D80818F7D80830895EF925D
:10026000FF920F931F93CF93DF93EC0181E0888F70
:100270009B8D8C8D98131AC0E889F989808185FF40
:1002800015C09FB7F894EE89FF896083E889F989E2
:1002900080818370806480839FBF81E090E0DF91E4
:1002A000CF911F910F91FF90EF900895F62E0B8D37
:1002B00010E00F5F1F4F0F731127E02E8C8D8E11F2
:1002C0000CC00FB607FCFACFE889F989808185FF59
:1002D000F5CFCE010E940D01F1CFEB8DEC0FFD2F7C
:1002E000F11DE35AFF4FF0829FB7F8940B8FEA8914
:1002F000FB8980818062CFCFCF93DF93EC01888D23
:100300008823B9F0AA89BB89E889F9898C9185FD90
:1003100003C0808186FD0DC00FB607FCF7CF8C911E
:1003200085FFF2CF808185FFEDCFCE010E940D01C8
:10033000E9CFDF91CF910895833081F028F48130A7
:1003400099F08230A9F008958730A9F08830C9F07B
:100350008430B1F4809180008F7D03C08091800053
:100360008F7780938000089584B58F7784BD08953A
:1003700084B58F7DFBCF8091B0008F778093B000E4
:1003800008958091B0008F7DF9CFCF93DF93282F10
:1003900030E0F901E255FF4F8491F901E656FF4F35
:1003A000D491F901EA57FF4FC491CC23A1F08111F8
:1003B0000E949C01EC2FF0E0EE0FFF1FE458FF4F6E
:1003C000A591B491EC91ED2381E090E009F480E0F7
:1003D000DF91CF91089580E090E0FACF1F93CF9303
:1003E000DF93282F30E0F901E255FF4F8491F901A6
:1003F000E656FF4FD491F901EA57FF4FC491CC2341
:10040000A9F0162F81110E949C01EC2FF0E0EE0F55
:10041000FF1FEE58FF4FA591B4918FB7F894EC9160
:10042000111108C0D095DE23DC938FBFDF91CF91EF
:100430001F910895DE2BF8CFCF93DF9390E0FC015E
:10044000E656FF4F24918A579F4FFC0184918823E1
:10045000D1F090E0880F991FFC01E859FF4FA5915A
:10046000B491FC01EE58FF4FC591D491623071F404
:100470009FB7F8943C91822F809583238C93E881D9
:100480002E2B28839FBFDF91CF9108958FB7F894CB
:10049000EC912E2B2C938FBFF6CF8E3008F08E5020
:1004A0008770806480937C0080917A008064809360
:1004B0007A0080917A0086FDFCCF8091780090913F
:1004C000790008953FB7F8948091690190916A018D
:1004D000A0916B01B0916C0126B5A89B05C02F3F80
:1004E00019F00196A11DB11D3FBFBA2FA92F982F5A
:1004F0008827BC01CD01620F711D811D911D42E055
:10050000660F771F881F991F4A95D1F708950895A0
:100510008EBD00000DB407FEFDCF8EB508951F936C
:10052000CF93DF93182F80E591E00E948C00C6E9FD
:10053000D4E060E088890E94EE0183E00E94880296
:10054000812F0E94880280E00E948802182F61E0BB
:1005500088890E94EE01812FDF91CF911F9108952C
:10056000FF920F931F93CF93DF93F82E062F142F34
:1005700080E591E00E948C00C6E9D4E060E08889C3
:100580000E94EE0185E00E9488028F2D0E94880261
:10059000802F0E948802812F0E94880261E0888952
:1005A000DF91CF911F910F91FF900C94EE01CF93AB
:1005B000C82F482F60EE8FE00E94B0028FE00E94AB
:1005C0008F02982F907E81E09C1301C080E0CF9134
:1005D00008950F931F93CF93DF93082F162F80E575
:1005E00091E00E948C00C6E9D4E060E088890E9416
:1005F000EE0182E00E948802802F0E948802812FF3
:100600000E94880261E08889DF91CF911F910F914C
:100610000C94EE01FF920F931F93CF93DF93C82F9B
:10062000F62E172F042F80E591E00E948C0060E0E9
:100630008091A6040E94EE0182E00E9488028C2F25
:100640000E948802CF2DD12F0C0F1D2F111DC01716
:10065000D10721F089910E948802F9CF61E0809151
:10066000A604DF91CF911F910F91FF900C94EE01A2
:10067000CF93DF9300D000D0CDB7DEB71C821B82B2
:10068000613081F498E09A83198244E0BE016F5F83
:100690007F4F0E940A030F900F900F900F90DF91F1
:1006A000CF9108951A82F0CF4F925F926F928F92FE
:1006B0009F92AF92BF92CF92DF92FF920F931F93C0
:1006C000CF93DF9300D000D0CDB7DEB7B0E0A0E08D
:1006D0008093970490939804A0939904B0939A04FC
:1006E0001092A4041092960488E080939B04FB016E
:1006F000ACE9B4E0CB01089621912D93E817F907F6
:10070000D9F7B12CA12C40900201509003016090C8
:1007100004014E0184E0880E911C49825A826B824A
:10072000FE0131966F01FE2E0D2DF60111916F0124
:10073000812F0E948F0283FD1FC01F5F80E0FFEFAB
:10074000AF1ABF0A8230F1F482E3A816B10429F788
:1007500086E090E09093E9038093E8038091B603EC
:1007600080618093B6038091B2038F3F09F480C00B
:100770008F5F8093B2037CC08C149D04B1F610E0AF
:1007800082E0DDCF92E3A916B10411F340919B04FE
:100790006CE974E085E0810F0E940A038091A40453
:1007A000813029F480919B04806480939B04609144
:1007B0009B0484E0810F0E94E902409197045091CC
:1007C00098046091990470919A0480919604813004
:1007D00091F54C835B83AB0166277727842F837069
:1007E0008860942F990F990F990F907E892B8A8397
:1007F00065E0569547956A95E1F7498344E06F2D8A
:10080000702F812F0E940A03115048E068E0812F69
:100810000E94B002D12CC12CEFEFCE1ADE0A812F3C
:100820000E948F0283FF15C0F2E3CF16D104A1F717
:1008300087E090E08FCFCA0123E0969587952A95AF
:10084000E1F789834295440F407E4A831C821B82D4
:10085000D5CF8091B60392E3C916D10449F3109223
:10086000E9031092E8038D7E8093B6031092B203E1
:100870008091B203833328F08091B6038260809325
:10088000B6030F900F900F900F90DF91CF911F91B3
:100890000F91FF90DF90CF90BF90AF909F908F907F
:1008A0006F905F904F900895FF920F931F93CF9397
:1008B000DF93C82FF62E172F042F80E591E00E94BA
:1008C0008C0060E08091A6040E94EE0183E00E940B
:1008D00088028C2F0E948802CF2DD12F0C0F1D2F44
:1008E000111DC017D10729F080E00E94880289936A
:1008F000F8CF61E08091A604DF91CF911F910F9115
:10090000FF900C94EE010F931F93CF93DF9300D0D1
:1009100000D0CDB7DEB7182F10929604109297042E
:10092000109298041092990410929A0444E0BE0127
:100930006F5F7F4F0E9454042A81898138E0839F32
:10094000C0011124422F50E065E0559547956A9506
:10095000E1F7840F951F092E000CAA0BBB0B8093A7
:10096000970490939804A0939904B0939A0423FF5A
:1009700029C032E0880F991FAA1FBB1F3A95D1F7F3
:100980002370820F911DA11DB11DBA2FA92F982F81
:1009900088272B81820F911DA11DB11DBA2FA92F70
:1009A000982F88272C81820F911DA11DB11D809346
:1009B000970490939804A0939904B0939A0481E0CB
:1009C000809396048FEF810F0E948F02082F84E09E
:1009D000810F0E948F0203FF16C091E09093A40440
:1009E000482F4F7040939B046CE974E085E0810FC1
:1009F0000E9454040F900F900F900F90DF91CF91B1
:100A00001F910F9108951092A404EACFDF92EF9204
:100A1000FF920F931F93CF93DF93D82E162F042F9F
:100A2000E82EF12C8FE08D1508F47FC080916201D3
:100A3000909163010D2C02C0969587950A94E2F778
:100A400080FF4AC0C0916001D0916101CE010D2CA0
:100A500002C0969587950A94E2F780FF02C044236E
:100A600019F1612F8D2D0E94EE0181E090E0A0E050
:100A7000B0E004C0880F991FAA1FBB1FDA94D2F7F9
:100A800020915E0130915F011123B9F0282B392BA1
:100A900030935F0120935E010023A9F08C2B9D2BE6
:100AA000909361018093600180E0DF91CF911F916D
:100AB0000F91FF90EF90DF900895AC014095509515
:100AC00024233523E5CF80959095C823D923D0934F
:100AD0006101C0936001E8CF413031F781E090E0DF
:100AE000A0E0B0E004C0880F991FAA1FBB1FDA94D2
:100AF000D2F72091600130916101282B392B30937E
:100B000061012093600120915E0130915F016623B5
:100B100039F0822B932B90935F0180935E01C4CFB9
:100B20008095909582239323F6CF80E1E81AF1080F
:100B300080915C0190915D010E2C02C09695879585
:100B40000A94E2F780FF3FC0C0915A01D0915B0147
:100B5000CE010E2C02C0969587950A94E2F780FF8D
:100B600003C0442309F4A0CF612F8D2D0E94EE0114
:100B700081E090E0A0E0B0E004C0880F991FAA1FB8
:100B8000BB1FEA94D2F720915801309159011123EB
:100B900079F0282B392B30935901209358010023E9
:100BA00069F08C2B9D2B90935B0180935A017CCF35
:100BB000AC014095509524233523EDCF8095909539
:100BC0008C239D23F0CF413009F06ECF81E090E07F
:100BD000A0E0B0E004C0880F991FAA1FBB1FEA94D1
:100BE000D2F720915A0130915B01282B392B309399
:100BF0005B0120935A0120915801309159016623DD
:100C000039F0822B932B90935901809358014CCF4C
:100C10008095909582239323F6CF8730D0F4E82FE8
:100C2000F0E0EB5EF94F0C94E3141C061E06200660
:100C300022062406260628068EE008958FE00895F1
:100C400080E1089581E1089582E1089583E10895A6
:100C500084E108951F93CF93DF93C0915E01D091FB
:100C60005F012091600130916101082E02C036952C
:100C700027950A94E2F720FF2CC09E0102C036950A
:100C800027958A95E2F7C901817020915E01309124
:100C90005F013093C1032093C0032091580130912C
:100CA00059013093C3032093C20320914F01309127
:100CB00050013093C5032093C40320914901309122
:100CC0004A013093C7032093C603DF91CF911F9150
:100CD0000895182F0E94C50141E050E060E070E0E7
:100CE00004C0440F551F661F771F1A95D2F788233B
:100CF00039F04C2B5D2B50935F0140935E01C5CFC3
:100D0000409550954C235D23F6CF2091B1032230BE
:100D100061F0233089F0213039F48038910520F4D6
:100D20008B559C4FFC01608308958637F1E09F0747
:100D3000D8F78C579C4FF6CF8115F2E09F07A0F7AC
:100D40008C579E4FEFCF0F931F93CF93DF93611577
:100D50007105C9F0EB016734710510F0C6E4D0E00D
:100D60008C010D541C4FC80FD91FC801835B9340E1
:100D70008C179D0740F4F80161918F0189EF93E092
:100D80000E942F01F2CFDF91CF911F910F91089513
:100D90001F93CF93DF93E091AC03E0FF83C1DE2F7D
:100DA000D295D695D370CE2FC695CF701FB7F89435
:100DB00080914601811127C0E0E9F0E08491E4EAE6
:100DC000F0E09491E82FF0E0EE0FFF1FE859FF4F9D
:100DD000A591B491EC91E92321F461E08AE00E94AD
:100DE000EE0161E08AE00E941C028CB580618CBD3E
:100DF0008CB580648CBD61E08DE00E941C0261E0D6
:100E00008BE00E941C02809146018F5F8093460117
:100E10001FBF80E591E00E948C0060E08091A604F5
:100E20000E94EE0180EC0E94880261E08091A6049D
:100E30000E94EE0183E290E00197F1F780E4809355
:100E4000A70480E80E94D702811137C1D13009F48C
:100E5000BAC008F4EDC0D23009F07DC0C150CE3028
:100E600008F079C0EC2FF0E0E85CF84F0C94E31444
:100E700047084607B907BD07C107C507C907CC071B
:100E8000CF07D307D607DA07DD07E007C4E8D6EFB8
:100E900083E9682F8AE20E94E9026D2F89E20E94AD
:100EA000E9026C2F88E20E94E90261E080E20E9480
:100EB000380361E084E20E94380361E080E00E9430
:100EC000380360E084E00E94380361E088E00E941B
:100ED000380360E080E10E94380361E084E10E9411
:100EE000380360E088E10E943803C0E360E08C2FA3
:100EF0000E94E90260E080E18C0F0E94E90260E05C
:100F000080E28C0F0E94E902CF5FCE3379F760E078
:100F100080E60E94E90260E080E70E94E90263E067
:100F20008BE20E94E9026CE38CE00E94E90260E03F
:100F30008DE00E94E90244E664E680E60E94B00289
:100F400040E660E680E70E94B0028091A7040E941C
:100F5000D7028111B2C01092A70480E00E94D7028C
:100F60008091B6031092B2038D7F81608093B603A7
:100F7000A0C0C4E8D6EF89E88CCFC3E8D5EE87E8F7
:100F800088CFC4E8D6EF85E884CFC4E8D6EF84E8FC
:100F900080CFC3E8D5EEFBCFC1E8D3EDF8CFC4E8EE
:100FA000D6EF81E876CFC3E8D5EEFBCFC4E8D6EF25
:100FB00080E86FCFC3E8D5EEFBCFC1E8D1ED69CFB4
:100FC000C0E8D0EC66CFC150CE3028F6EC2FF0E070
:100FD000E451F84F0C94E3144B08FA07FE07AB07F3
:100FE00002083608060833082F0809084F080D08BC
:100FF00011081508C4E8D6EF87E64BCFC4E8D6EF52
:1010000083E547CFC3E8D5EE8EE443CFC4E8D6EFFF
:1010100040CFC3E8D5EE83E43CCFC3E8D5EE81E40E
:1010200038CFC3E8D5EE80E434CFC1E8DAEC31CF75
:10103000C650C93008F08FCFEC2FF0E0EE5DF74FCF
:101040000C94E3143A0836082B0833082F083E089E
:101050004F0841084408C7E8DFEF84EC1ACFC3E823
:10106000D5EE84E416CFC4E8D6EFFBCFC4E8D6EFC4
:1010700089E40FCFC1E8D3ED88E10BCFC1E8D3ED10
:10108000F0CFC4E8D6EFCFCFC2E8D9ED02CFC4E8A5
:10109000D6EF87EAFECEC7E8DFEF8FE3FACEC4E8EB
:1010A000D6EFBDCF8091B6038C7F8093B6031092AC
:1010B000B203DF91CF911F9108958091B6038E7F87
:1010C00055CF0F931F93CF93DF93CDB7DEB7FC01BE
:1010D000AB010DB71EB79091B1039230F9F0933088
:1010E00001F1913011F425EA33E08DB79EB7841BEE
:1010F000950B0FB6F8949EBF0FBE8DBF6DB77EB730
:101100006F5F7F4FE20FF31FDB019B01240F351F41
:10111000A217B30749F081918D93FACF24E833E009
:10112000E4CF24E831E0E1CF89EF93E00E948F0023
:101130000FB6F8941EBF0FBE0DBFDF91CF911F9168
:101140000F9108950F931F93CF93DF9305EA13E058
:10115000CAE0D0E0CE010E94FC12F80181938F0119
:101160002196C631D105B1F704E813E0CAE8D0E012
:10117000CE010E94FC12F80181938F012196CB3A97
:10118000D105B1F704E811E0C0E0D2E0CE010E9441
:10119000FC12F80181938F012196C115F4E0DF075D
:1011A000A9F78091B40380688093B403DF91CF9155
:1011B0001F910F910895FF920F931F93CF93DF9389
:1011C000EC01F62E08811981C8010E94FC12F81664
:1011D00021F06F2DC8010E940413CE01DF91CF9141
:1011E0001F910F91FF900895EF92FF920F931F931D
:1011F000CF93DF9300D0CDB7DEB7182F90E080E01B
:101200000E94FC12823029F062E090E080E00E94AF
:101210000413123031F11330C9F11130A1F425EA71
:10122000E22E23E0F22E0AE010E01A830983F70190
:1012300061917F01CE0101960E94DB080F5F1F4F75
:101240000631110591F78091B40380688093B4034F
:101250000F900F90DF91CF911F910F91FF90EF9022
:10126000089594E8E92E93E0F92E0AE810E01A8335
:101270000983F70161917F01CE0101960E94DB088D
:101280000F5F1F4F0B3A110591F7DDCF84E8E82E71
:1012900081E0F82E00E012E01A830983F7016191E2
:1012A0007F01CE0101960E94DB080F5F1F4F0115E1
:1012B000F4E01F0789F7C7CFCF931092B4030E94C1
:1012C000A208109261011092600110925B011092CD
:1012D0005A01109252011092510110924C01109239
:1012E0004B0110925D0110925C011092540110921A
:1012F000530110924E0110924D0161E08DE00E9469
:101300001C0280E090E29093630180936201C0919F
:10131000AD03CF73E9F0C0938201C431C8F462E039
:101320008C2F0E941C02C03198F481E090E0A0E074
:10133000B0E004C0880F991FAA1FBB1FCA95D2F73F
:1013400080959095882790729093630180936201B5
:101350008091AE0384FF03C08F7080936F018091F2
:101360007A00846080937A0080917A008D7F8093E8
:101370007A0080917A008E7F80937A000E94C8065E
:1013800086E48093AB038CE090E09093A603809377
:10139000A5031092A7031092A8031092A90310921C
:1013A000AA0381E00E94F40881E290E09093850313
:1013B000809384031092860310928703109288030F
:1013C0001092890382E00E94F40880E092E09093FA
:1013D00085018093840110928601109287011092FA
:1013E00088011092890183E00E94F408E0910904C9
:1013F000F0910A0482E08083E0910504F0910604F4
:101400001082E0910704F091080490E1908310921B
:101410001104E0910D04F0910E0496E09083E091A8
:101420000B04F0910C04908190619083E0910B0487
:10143000F0910C04908198609083E0910B04F091FE
:101440000C04908190689083E0910B04F0910C045F
:1014500090819F7D90831092810110928001109263
:10146000B3039091B40391609093B4031092B000D1
:101470001092B100809370009CE79093B30080932A
:10148000B0001092B2008DE08093B10087E087BB7E
:1014900088E198E20FB6F894A895809360000FBE9B
:1014A00090936000CF910895CF92DF92EF92FF92D8
:1014B0000F931F93CF93DF9300D0CDB7DEB780910A
:1014C000B103823069F18330A9F1813041F405EA3A
:1014D00013E04AE8C42ED12C5AE0E52EF12C80917D
:1014E0005501909156019C012E0D3F1D2C153D0577
:1014F00058F5F99932C0800F912F911DFC01608140
:101500003A832983CE0101960E94DB088091550120
:101510009091560101969093560180935501DFCF2B
:1015200004E813E0CC24CA94DD24D3943AE8E32EF3
:10153000F12CD5CF04E811E0CC24CA9483E0D82E56
:10154000E12C92E0F92ECBCF8091B4038068809398
:10155000B40310925601109255010F900F90DF9135
:10156000CF911F910F91FF90EF90DF90CF90089552
:101570008F929F92AF92BF92CF92DF92EF92FF92A3
:101580000F931F93CF93DF9300D0CDB7DEB78115B4
:1015900021E0920721F58091BF038D7F8093BF03E7
:1015A000109261011092600110925B0110925A0139
:1015B000109252011092510110924C0110924B0165
:1015C0000F900F90DF91CF911F910F91FF90EF90AF
:1015D000DF90CF90BF90AF909F908F900895813013
:1015E000980751F48091AE0385FFEACF8091BF0345
:1015F00082608093BF03E4CF823021E0920709F03C
:101600004CC08091AE0386FFDBCFF8940FB6F89400
:10161000A8958091600088618093600010926000BE
:101620000FBE40E060E08DE00E94060510E000E0A3
:101630001A83098360E0CE0101960E94DB080F5FE8
:101640001F4F011584E0180799F70E94A2080E9415
:1016500062024B015C0180E1C82E87E2D82EE12CAA
:10166000F12C0E946202681979098A099B09683E77
:10167000734081059105A8F321E0C21AD108E10861
:10168000F10888EE880E83E0981EA11CB11CC114DD
:10169000D104E104F10429F7DACF833021E0920785
:1016A00049F48091AE0385FF8BCFF8940E945C09CA
:1016B000789486CF9C01215032402034310568F463
:1016C0002091BF0321FF7CCF815041E061E0843154
:1016D00008F076CF0E94060573CF9C01215033405D
:1016E0002034310508F06CCF2091BF0321FF68CF73
:1016F0008150843108F064CF41E060E0EBCFFF928D
:101700000F931F93CF93DF9380914801811106C0FF
:1017100089EF93E00E94CB008093470180914701BD
:10172000803509F4B8C0F8F4823409F47CC048F478
:10173000813409F463C0DF91CF911F910F91FF9025
:101740000895853409F487C08634A9F743E050E052
:1017500061E471E089EF93E0DF91CF911F910F91E8
:10176000FF900C948F00863509F4B2C0A0F4813547
:1017700009F4A2C0C5E0D1E004E111E08335D9F657
:10178000699189EF93E00E942F011092B3030C1727
:101790001D07B1F7D0CF873509F4D5C0823759F688
:1017A00089EF93E00E94ED0006970CF45EC189EF8B
:1017B00093E00E94CB00F82E89EF93E00E94CB00CB
:1017C000182F89EF93E00E94CB00082F89EF93E058
:1017D0000E94CB00D82F90E0C92FC02B89EF93E057
:1017E0000E94CB00082F173509F0DAC024E0F2126E
:1017F0000EC1682FCE010E94850609C16091AB031E
:1018000070E090E080E00E94A306809170019091CA
:1018100071018F3F980709F48ECF01969093710163
:101820008093700188CF89EF93E00E94ED00892BAF
:10183000D1F389EF93E00E94CB008093B1039091A4
:10184000B4039F779093B403DF91CF911F910F91D1
:10185000FF900C94F40889EF93E00E94ED00892B2F
:10186000D1F389EF93E00E94CB00C82F89EF93E07A
:101870000E94ED00892BD1F389EF93E00E94CB0009
:1018800020E0382FC9018C2BDF91CF911F910F9150
:10189000FF900C94B80A89EF93E00E94ED00892B29
:1018A000D1F389EF93E00E94CB00803318F480934A
:1018B000B10341CF8053FBCFC5E1D1E0699189EFFE
:1018C00093E00E942F0181E0CE32D807B9F733CFE1
:1018D00089EF93E00E94ED00892BD1F389EF93E02B
:1018E0000E94CB00C82F89EF93E00E94ED00892B66
:1018F000D1F389EF93E00E94CB0020E0382FC9019B
:101900008C2BEC0189EF93E00E94ED00892BD1F341
:1019100089EF93E00E94CB00182F89EF93E00E949B
:10192000ED00892BD1F389EF93E00E94CB0060E0BA
:10193000782F612B40E0CE01DF91CF911F910F9165
:10194000FF900C94610889EF93E00E94ED00892BD1
:10195000D1F389EF93E00E94CB00C82F89EF93E089
:101960000E94ED00892BD1F389EF93E00E94CB0018
:1019700020E0382FC9018C2BEC0189EF93E00E9405
:10198000ED00892BD1F389EF93E00E94CB00682F03
:10199000CE01DF91CF911F910F91FF900C9485069E
:1019A00089EF93E00E94CB0094E0F91230C060E030
:1019B000782F602B1234F1F1A0F41F30E1F01C33CA
:1019C00049F11E3021F5C5E0D1E0699189EF93E03E
:1019D0000E942F011092B30321E0C431D207A9F76E
:1019E00016C01035D1F11635D9F1153481F4CE0178
:1019F0000E94B80A0CC0C5E1D1E00EE211E0699185
:101A000089EF93E00E942F010C171D07C1F7109278
:101A1000480191CECE010E94A30680917001909161
:101A200071018F3F980799F301969093710180930C
:101A30007001EDCF8091B40387FD07C08091B4039E
:101A400087FD03C00E94540AF9CFC093B10380916F
:101A5000B4038F778093B403DACFC093B103D7CFA9
:101A600046E5CE010E946108D2CF81E08093480113
:101A700062CE1F920F920FB60F9211242F933F93B5
:101A80004F935F936F937F938F939F93AF93BF9386
:101A9000EF93FF9389EF93E00E940D01FF91EF9187
:101AA000BF91AF919F918F917F916F915F914F9176
:101AB0003F912F910F900FBE0F901F9018951F927E
:101AC0000F920FB60F9211242F938F939F93EF9342
:101AD000FF93E0910904F0910A048081E0910F04E2
:101AE000F091100482FD1BC09081809112048F5FE1
:101AF0008F7320911304821741F0E0911204F0E0FB
:101B0000E750FC4F958F80931204FF91EF919F91C6
:101B10008F912F910F900FBE0F901F90189580817D
:101B2000F4CF1F920F920FB60F9211242F933F9371
:101B30008F939F93AF93BF938091650190916601BE
:101B4000A0916701B09168013091640123E0230FF7
:101B50002D3758F50196A11DB11D20936401809386
:101B6000650190936601A0936701B093680180912D
:101B7000690190916A01A0916B01B0916C0101968D
:101B8000A11DB11D8093690190936A01A0936B011F
:101B9000B0936C01BF91AF919F918F913F912F9125
:101BA0000F900FBE0F901F90189526E8230F0296F6
:101BB000A11DB11DD2CF78941F920F920FB60F9234
:101BC00011242F935F936F937F938F939F93AF9382
:101BD000BF93809100019091010165E070E00E9447
:101BE000CF14892B71F48091830187FF05C0809108
:101BF0006E01806880936E0180918301806880937C
:101C00008301809100019091010164E170E00E94E4
:101C1000CF14019771F48091830186FF05C08091F4
:101C20006E01806480936E01809183018064809353
:101C30008301809100019091010162E370E00E94B4
:101C4000CF14029771F48091830185FF05C08091C4
:101C50006E01806280936E01809183018062809327
:101C6000830180910001909101016BE470E00E947A
:101C7000CF14029771F48091830184FF05C0809195
:101C80006E01806180936E018091830180618093F9
:101C90008301809100019091010164E670E00E944F
:101CA000CF14039771F48091830183FF05C0809165
:101CB0006E01886080936E018091830188608093BB
:101CC000830180910001909101016AEF70E00E9410
:101CD000CF14049771F48091830182FF05C0809135
:101CE0006E01846080936E01809183018460809393
:101CF0008301809100019091010164EF71E00E94E5
:101D0000CF14049771F48091830181FF05C0809105
:101D10006E01826080936E01809183018260809366
:101D20008301809100019091010168EE73E00E94AF
:101D3000CF14049789F58091830180FF05C08091BD
:101D40006E01816080936E01809183018160809338
:101D5000830180915701823028F010926E01109219
:101D6000570109C080916E018823C9F38091570102
:101D70008F5F8093570180918001909181019093B2
:101D8000BA038093B903109281011092800180916F
:101D9000B3038F5F8093B3038091000190910101A1
:101DA000873E9340A8F010920101109200018091AB
:101DB0006E018093B503BF91AF919F918F917F91F9
:101DC0006F915F912F910F900FBE0F901F901895FC
:101DD00080910001909101010196909301018093FF
:101DE0000001E5CFCF93DF93E9EFF3E01382128296
:101DF00088EE93E0A0E0B0E084839583A683B78368
:101E000083E391E09183808385EC90E095878487DC
:101E100084EC90E09787868780EC90E0918B808BB4
:101E200081EC90E0938B828B82EC90E0958B848B9D
:101E300086EC90E0978B868B118E128E138E148E0B
:101E4000C6E9D4E08AE0888B61E00E94EE0161E09F
:101E50008889DF91CF910C941C02CF93DF93CDB78B
:101E6000DEB72C970FB6F894DEBF0FBECDBF7894C7
:101E700084B5826084BD84B5816084BD85B582608F
:101E800085BD85B5816085BD80916E008160809340
:101E90006E001092810080918100826080938100A9
:101EA00080918100816080938100809180008160B9
:101EB000809380008091B10084608093B100809114
:101EC000B00081608093B00080917A00846080933C
:101ED0007A0080917A00826080937A0080917A0003
:101EE000816080937A0080917A00806880937A0084
:101EF0001092C1000E945C0948E0E42E8E010F5F41
:101F00001F4F80918301F12C87FF1EC0A8958091FF
:101F1000AC0380FF12C08091B60380FF0EC081FD2C
:101F20000CC0D801EE2D1D92EA95E9F7F5E0F8878F
:101F3000B80180E095E00E945403809183018F777F
:101F400080938301FF24F3948091830186FF1CC05A
:101F5000F3948091AC0380FF12C08091B60380FFA0
:101F60000EC081FD0CC0D801EE2D1D92EA95E9F757
:101F7000F4E1F887B80181E095E00E945403809174
:101F800083018F7B809383018091830185FF1CC037
:101F9000F3948091AC0380FF12C08091B60380FF60
:101FA0000EC081FD0CC0D801EE2D1D92EA95E9F717
:101FB000F2E3F887B80182E095E00E945403809133
:101FC00083018F7D809383018091830184FF06C00C
:101FD000F394809183018F7E8093830180918301AC
:101FE00083FF2DC1F3948091AC0380FF12C08091D8
:101FF000B60380FF0EC081FD0CC0D801EE2D1D92EE
:10200000EA95E9F7F4E6F887B80183E095E00E94E5
:1020100054038091B7039091B8032091AF0330919E
:10202000B003232B09F44AC0209172012F3F19F00D
:102030002F5F20937201209172012B3068F0816034
:102040009093B8038093B7031092F5031092F603B0
:102050001092F7031092F8038091B6032091B70312
:102060003091B803232B91F180648093B603809163
:10207000A8049091A904009711F48CEA94E09801C7
:10208000281B390BC9013093BE032093BD03209157
:102090006E0121111DC0843F9140D0F08091B903A1
:1020A0009091BA03883C910598F080916D0184313C
:1020B00008F056C18F5F80936D0111C010927201BC
:1020C0008E7F9093B8038093B703C6CF8F7BCDCF1D
:1020D0008091B40382608093B40310926D012091CB
:1020E000A1033091A2034091A3035091A4036091F6
:1020F0009D0370919E0380919F039091A0030E9485
:1021000063136093F0037093F1038093F203909351
:10211000F30320919A0380918A0390918B0398177F
:1021200008F024C1281708F45DC12091920330E023
:102130003093EF032093EE03B12C8B2D0E942A06DF
:10214000B394FDE0BF12F9CF38ECA32E33E0B32EE9
:10215000912C892D0E940D060E944D02D5018D9370
:102160009D935D019394B7E09B12F3CF8091AE03F2
:1021700084FF18C0B0906F01EFE090E080E0EB15B5
:1021800068F08B2D0E940D060E944D02EB2DF0E0B1
:10219000EE0FFF1FED54FC4F968B858B9093ED0354
:1021A0008093EC034091F403242E312C512C412CCC
:1021B000E0919B032091C8033091C9033695279580
:1021C00036952795C901B0E0A0E089879A87AB874B
:1021D000BC87281639064A065B0651F1EE2341F109
:1021E000A0E0B1E0AE1BB1090E94F1144B015C010B
:1021F00050E09A01AE2FB0E00E945313860E971E56
:10220000A81EB91E892C9A2CAB2CBB2494018416D1
:10221000950671F489859A85AB85BC852F5F3F4F04
:10222000281639064A065B0618F094012150310938
:102230002093F40380918301877F809383018091B1
:10224000830182FF06C0F394809183018B7F80938A
:1022500083018091830181FF27C0F3948091AC03B7
:1022600080FF12C08091B60380FF0EC081FD0CC0BC
:10227000D801EE2D1D92EA95E9F7F5E0FF83B8014C
:1022800084E095E00E9454038DE00E942A0640E01D
:1022900060E0813009F061E08DE00E9406058091E8
:1022A00083018D7F809383018091830180FFC4C06F
:1022B0008091AC0380FF06C08091B60380FDAFC063
:1022C0000E94C8068091AC0380FF12C08091B603C3
:1022D00080FF0EC081FD0CC0D801EE2D1D92EA9545
:1022E000E9F7F7E0FF83B80185E095E00E94540329
:1022F00080917001909171019093BC038093BB0316
:102300001092710110927001809183018E7F8093F1
:10231000830189EF93E00E94ED00819714F00E9401
:102320007F0B8091B40387FF0E94540A8091800143
:10233000909181018091800190918101019690930B
:1023400081018093800120E030E0232B09F4D9CD76
:102350000E94F900882309F4D4CD0E940000D1CD59
:102360008091B4038D7F8093B403B9CE821708F0B7
:10237000DCCE80919103281718F020919903D7CED5
:10238000EBE8F3E081E090E0C1902C1580F4AC0123
:1023900041505109FA01E657FC4FD0804E565C4F30
:1023A000DA017C908E569C4FFC01608004C001963F
:1023B0008830910549F74D2D50E030E0241B350B56
:1023C000E62DE719FF0BDF010E94E9142C2D30E008
:1023D000241B350B032E000C440B550B0E941213CB
:1023E000270DA5CE80919103821738F6EBE8F3E034
:1023F00081E090E0D190D21668F4FC013197DF01C2
:10240000A657BC4FCC908E569C4FDC017C90EE566C
:10241000FC4FCBCF01968830910561F7CCCF81FF7F
:1024200051CFD801EE2D1D92EA95E9F7B80189E95F
:1024300097E00E94540346CFF1106BCF89EF93E0F1
:102440000E94ED001816190614F40E947F0B80916B
:10245000B60380FF5ECF809182010E94C501892B67
:1024600009F057CF80E591E00E948C0060E08091F8
:10247000A6040E94EE0180EA0E94880280E00E9489
:102480008802F82E61E08091A6040E94EE01F0FE21
:1024900054C081E60E94830440E061E08CE20E9427
:1024A000B00280919604882389F0809197049091DE
:1024B0009804A0919904B0919A04B068809397040D
:1024C00090939804A0939904B0939A048091A404E3
:1024D000882389F08091970490919804A0919904A1
:1024E000B0919A04B0648093970490939804A09359
:1024F0009904B0939A048091970490919804A091C4
:102500009904B0919A0480937C0190937D01A093EB
:102510007E01B0937F0180919B0480937B01ACE9A5
:10252000B4E0E3E7F1E090E09F0123573140281742
:1025300039075CF42D912193F7CFF1FE06C081E7B6
:102540000E94830440E062E0A9CF40917C01509159
:102550007D0160917E0170917F0177FDDACE50930D
:10256000ED034093EC038091AF039091B0039093FF
:10257000EB038093EA03B0E0A0E0481759076A072D
:102580007B0709F0C6CE80917B01883009F0C1CE6F
:10259000109272018091B7039091B8038E7F90934F
:1025A000B8038093B70380917A0181111CC06091B8
:1025B000740170917501762767277627072E000C26
:1025C000880B990B0E94411420E030E04AE754E464
:1025D0000E94CF136093F5037093F6038093F70383
:1025E0009093F80396CE1092F5031092F603109292
:1025F000F7031092F8038DCEF999FECF92BD81BDFD
:10260000F89A992780B50895262FF999FECF1FBA19
:1026100092BD81BD20BD0FB6F894FA9AF99A0FBE0B
:1026200001960895052E97FB1EF400940E9429132D
:1026300057FD07D00E94311307FC03D04EF40C94D1
:10264000291350954095309521953F4F4F4F5F4F3F
:10265000089590958095709561957F4F8F4F9F4F0E
:102660000895A1E21A2EAA1BBB1BFD010DC0AA1FD3
:10267000BB1FEE1FFF1FA217B307E407F50720F0EB
:10268000A21BB30BE40BF50B661F771F881F991F66
:102690001A9469F760957095809590959B01AC01AF
:1026A000BD01CF010895A29FB001B39FC001A39FB8
:1026B000700D811D1124911DB29F700D811D11247B
:1026C000911D08955058BB27AA270E947A130C9495
:1026D00095140E94871438F00E948E1420F039F46B
:1026E0009F3F19F426F40C9484140EF4E095E7FB54
:1026F0000C947E14E92F0E94A61458F3BA176207AF
:1027000073078407950720F079F4A6F50C94C81494
:102710000EF4E0950B2EBA2FA02D0B01B9019001FC
:102720000C01CA01A0011124FF27591B99F0593F40
:1027300050F4503E68F11A16F040A22F232F342F88
:102740004427585FF3CF469537952795A795F040D6
:102750005395C9F77EF41F16BA0B620B730B840BEB
:10276000BAF09150A1F0FF0FBB1F661F771F881FA3
:10277000C2F70EC0BA0F621F731F841F48F48795FB
:1027800077956795B795F7959E3F08F0B0CF9395ED
:10279000880F08F09927EE0F9795879508950E9466
:1027A000E3130C9495140E948E1458F00E94871421
:1027B00040F029F45F3F29F00C947E1451110C94E1
:1027C000C9140C9484140E94A61468F39923B1F3DD
:1027D000552391F3951B550BBB27AA276217730747
:1027E000840738F09F5F5F4F220F331F441FAA1FDB
:1027F000A9F335D00E2E3AF0E0E832D09150504097
:10280000E695001CCAF72BD0FE2F29D0660F771F44
:10281000881FBB1F261737074807AB07B0E809F02A
:10282000BB0B802DBF01FF2793585F4F3AF09E3FAF
:10283000510578F00C947E140C94C9145F3FE4F3B6
:10284000983ED4F3869577956795B795F7959F5FF2
:10285000C9F7880F911D9695879597F90895E1E03E
:10286000660F771F881FBB1F621773078407BA079D
:1028700020F0621B730B840BBA0BEE1F88F7E095F8
:102880000895E89409C097FB3EF490958095709563
:1028900061957F4F8F4F9F4F9923A9F0F92F96E9AC
:1028A000BB279395F695879577956795B795F11121
:1028B000F8CFFAF4BB0F11F460FF1BC06F5F7F4FBE
:1028C0008F4F9F4F16C0882311F096E911C07723D0
:1028D00021F09EE8872F762F05C0662371F096E8D9
:1028E000862F70E060E02AF09A95660F771F881FA8
:1028F000DAF7880F9695879597F9089597F99F6766
:1029000080E870E060E008959FEF80EC0895002477
:102910000A941616170618060906089500240A9444
:1029200012161306140605060895092E0394000CCA
:1029300011F4882352F0BB0F40F4BF2B11F460FF59
:1029400004C06F5F7F4F8F4F9F4F089557FD905882
:10295000440F551F59F05F3F71F04795880F97FB63
:10296000991F61F09F3F79F087950895121613061D
:102970001406551FF2CF4695F1DF08C0161617064C
:102980001806991FF1CF8695710561050894089581
:10299000E894BB2766277727CB0197F90895AA1BF0
:1029A000BB1B51E107C0AA1FBB1FA617B70710F03A
:1029B000A61BB70B881F991F5A95A9F7809590956C
:1029C000BC01CD010895EE0FFF1F0590F491E02D9D
:1029D00009940E945313332312F48A1B9B0B0C940B
:1029E000F3140E945313B7FF0895821B930B0895AD
:0429F000F894FFCF89
:1029F400050030405054535F4F535F56302E3330F0
:102A04005F64657600737065656475696E6F5F54A5
:102A1400535F4F535F56302E33305F64657600004A
:102A24000000002F018F00BC007C01ED00CB00DF13
:062A34000030303100000B
:00000001FF
