:100000000C9462000C948A000C948A000C948A0070
:100010000C948A000C948A000C948A000C942B0F88
:100020000C948A000C948A000C948A000C948A0028
:100030000C948A000C948A000C948A000C948A0018
:100040000C94E10E0C948A000C94AF0E0C94890E63
:100050000C948A000C948A000C948A000C948A00F8
:100060000C948A000C948A000000000023002600F3
:10007000290000000008000201000003040700003E
:1000800000000000000000000000250028002B00F8
:1000900000000000240027002A00040404040404D3
:1000A0000404020202020202030303030303010227
:1000B00004081020408001020408102001020408F6
:1000C00010203E1011241FBECFEFD8E0DEBFCDBF01
:1000D00011E0A0E0B1E0ECE4FAE202C005900D927C
:1000E000A634B107D9F724E0A6E4B1E001C01D921F
:1000F000AD3FB207E1F710E0C2E6D0E004C02197BF
:10010000FE010E940F15C136D107C9F70E94781071
:100110000C9424150C9400008CBD9DBD0895EAE458
:10012000F4E0A089B18982E08C93A485B5851C9206
:10013000A685B78580E18C93108EA489B58986E069
:100140008C93A289B3898C9180618C93A289B389A5
:100150008C9188608C93A289B3898C9180688C93F0
:100160000288F389E02D80818F7D8083089590E05F
:10017000FC01E255FF4F249186569F4FFC0184916C
:10018000882399F090E0880F991FFC01E057FF4FFA
:10019000A591B491FC01EA57FF4F859194918FB7D7
:1001A000F894EC91E22BEC938FBF0895AF92BF923D
:1001B000CF92DF92EF92FF920F931F93CF93DF9333
:1001C0006C017B018B01040F151FEB015E01AE1862
:1001D000BF08C017D10759F06991D601ED91FC9184
:1001E0000190F081E02DC6010995892B79F7C501B1
:1001F000DF91CF911F910F91FF90EF90DF90CF9003
:10020000BF90AF900895FC01538D448D252F30E0B1
:10021000842F90E0821B930B541710F0CF96089513
:1002200001970895FC01918D828D981761F0A28D40
:10023000AE0FBF2FB11D5D968C91928D9F5F9F7306
:10024000928F90E008958FEF9FEF0895FC01918DBC
:10025000828D981731F0828DE80FF11D858D90E029
:1002600008958FEF9FEF0895FC01918D228D892FC6
:1002700090E0805C9F4F821B91098F7399270895AE
:100280008AE494E00E94340121E0892B09F420E003
:10029000822F089580E090E0892B29F00E94400190
:1002A00081110C9400000895FC01A48DA80FB92FB2
:1002B000B11DA35ABF4F2C91848D90E001968F738E
:1002C0009927848FA689B7892C93A089B1898C91AD
:1002D000837080648C93938D848D981306C00288FC
:1002E000F389E02D80818F7D80830895EF92FF92C6
:1002F0000F931F93CF93DF93EC0181E0888F9B8D49
:100300008C8D98131AC0E889F989808185FF15C002
:100310009FB7F894EE89FF896083E889F989808125
:100320008370806480839FBF81E090E0DF91CF91F4
:100330001F910F91FF90EF900895F62E0B8D10E016
:100340000F5F1F4F0F731127E02E8C8D8E110CC085
:100350000FB607FCFACFE889F989808185FFF5CFD0
:10036000CE010E945401F1CFEB8DEC0FFD2FF11D5A
:10037000E35AFF4FF0829FB7F8940B8FEA89FB890D
:1003800080818062CFCFCF93DF93EC01888D88236B
:10039000B9F0AA89BB89E889F9898C9185FD03C0E8
:1003A000808186FD0DC00FB607FCF7CF8C9185FFCD
:1003B000F2CF808185FFEDCFCE010E945401E9CFBD
:1003C000DF91CF910895833081F028F4813099F046
:1003D0008230A9F008958730A9F08830C9F08430C0
:1003E000B1F4809180008F7D03C0809180008F7771
:1003F00080938000089584B58F7784BD089584B577
:100400008F7DFBCF8091B0008F778093B0000895EF
:100410008091B0008F7DF9CFCF93DF93282F30E00C
:10042000F901EE58FF4F8491F901E255FF4FD49145
:10043000F901E656FF4FC491CC23A1F081110E942F
:10044000E301EC2FF0E0EE0FFF1FE859FF4FA591FD
:10045000B491EC91ED2381E090E009F480E0DF912C
:10046000CF91089580E090E0FACF1F93CF93DF9370
:10047000282F30E0F901EE58FF4F8491F901E25541
:10048000FF4FD491F901E656FF4FC491CC23A9F058
:10049000162F81110E94E301EC2FF0E0EE0FFF1FF9
:1004A000EA57FF4FA591B4918FB7F894EC911111D1
:1004B00008C0D095DE23DC938FBFDF91CF911F91D1
:1004C0000895DE2BF8CF8E3008F08E508770806450
:1004D00080937C0080917A00806480937A00809180
:1004E0007A0086FDFCCF8091780090917900089584
:1004F0003FB7F8948091AC039091AD03A091AE0307
:10050000B091AF0326B5A89B05C02F3F19F0019607
:10051000A11DB11D3FBFBA2FA92F982F8827BC015D
:10052000CD01620F711D811D911D42E0660F771F85
:10053000881F991F4A95D1F7089508958EBD000030
:100540000DB407FEFDCF8EB508951F93CF93DF93B3
:10055000182F80E591E00E948C00C7EED4E060E0A7
:1005600088890E94350283E00E949E02812F0E94AA
:100570009E0280E00E949E02182F61E088890E94FE
:100580003502812FDF91CF911F910895FF920F9334
:100590001F93CF93DF93F82E062F142F80E591E061
:1005A0000E948C00C7EED4E060E088890E9435028A
:1005B00085E00E949E028F2D0E949E02802F0E9445
:1005C0009E02812F0E949E0261E08889DF91CF9177
:1005D0001F910F91FF900C943502CF93C82F482F95
:1005E00060EE8FE00E94C6028FE00E94A502982F65
:1005F000907E81E09C1301C080E0CF9108950F931D
:100600001F93CF93DF93082F162F80E591E00E9470
:100610008C00C7EED4E060E088890E94350282E059
:100620000E949E02802F0E949E02812F0E949E02A5
:1006300061E08889DF91CF911F910F910C94350271
:10064000FF920F931F93CF93DF93C82FF62E172F90
:10065000042F80E591E00E948C0060E08091F70417
:100660000E94350282E00E949E028C2F0E949E0210
:10067000CF2DD12F0C0F1D2F111DC017D10721F029
:1006800089910E949E02F9CF61E08091F704DF9189
:10069000CF911F910F91FF900C943502CF93DF9370
:1006A00000D000D0CDB7DEB71C821B82613081F450
:1006B00098E09A83198244E0BE016F5F7F4F0E94E9
:1006C00020030F900F900F900F90DF91CF9108951E
:1006D0001A82F0CF4F925F926F928F929F92AF9259
:1006E000BF92CF92DF92FF920F931F93CF93DF932E
:1006F00000D000D0CDB7DEB7B0E0A0E08093E80432
:100700009093E904A093EA04B093EB041092F504EB
:100710001092E70488E08093EC04FB01ADEEB4E0B6
:10072000CB01089621912D938E179F07D9F7B12CF5
:10073000A12C4090020150900301609004014E01F1
:1007400084E0880E911C49825A826B82FE013196A8
:100750006F01FE2E0D2DF60111916F01812F0E9468
:10076000A50283FD1FC01F5F80E0FFEFAF1ABF0A25
:100770008230F1F482E3A816B10429F786E090E014
:1007800090934104809340048091F90380618093A9
:10079000F9038091F6038F3F09F485C08F5F809342
:1007A000F60381C08C149D04B1F610E082E0DDCF29
:1007B00092E3A916B10411F34091EC046DEE74E0DC
:1007C00085E0810F0E9420038091F504813029F497
:1007D0008091EC0480648093EC046091EC0484E0EC
:1007E000810F0E94FF024091E8045091E90460915A
:1007F000EA047091EB048091E704813091F54C8319
:100800005B83AB0166277727842F83708860942FE2
:10081000990F990F990F907E892B8A8365E05695E1
:1008200047956A95E1F7498344E06F2D702F812F3A
:100830000E942003115048E068E0812F0E94C60208
:10084000D12CC12CEFEFCE1ADE0A812F0E94A50217
:1008500083FF15C0F2E3CF16D104A1F787E090E043
:100860008FCFCA0123E0969587952A95E1F7898372
:100870004295440F407E4A831C821B82D5CF82E37F
:10088000C816D10459F3109241041092400480918B
:10089000F9038F7E8093F9038091F9038D7F809314
:1008A000F9031092F6038091F603833328F08091C8
:1008B000F90382608093F9030F900F900F900F90CF
:1008C000DF91CF911F910F91FF90DF90CF90BF905C
:1008D000AF909F908F906F905F904F900895FF9290
:1008E0000F931F93CF93DF93C82FF62E172F042F4C
:1008F00080E591E00E948C0060E08091F7040E9406
:10090000350283E00E949E028C2F0E949E02CF2D12
:10091000D12F0C0F1D2F111DC017D10729F080E01A
:100920000E949E028993F8CF61E08091F704DF91E5
:10093000CF911F910F91FF900C9435020F931F934D
:10094000CF93DF9300D000D0CDB7DEB7182F109231
:10095000E7041092E8041092E9041092EA0410925D
:10096000EB0444E0BE016F5F7F4F0E946F042A8159
:10097000898138E0839FC0011124422F50E065E057
:10098000559547956A95E1F7840F951F092E000C40
:10099000AA0BBB0B8093E8049093E904A093EA04AC
:1009A000B093EB0423FF29C032E0880F991FAA1FE0
:1009B000BB1F3A95D1F72370820F911DA11DB11D68
:1009C000BA2FA92F982F88272B81820F911DA11D47
:1009D000B11DBA2FA92F982F88272C81820F911D26
:1009E000A11DB11D8093E8049093E904A093EA044B
:1009F000B093EB0481E08093E7048FEF810F0E94B6
:100A0000A502082F84E0810F0E94A50203FF16C0F3
:100A100091E09093F504482F4F704093EC046DEEF5
:100A200074E085E0810F0E946F040F900F900F908B
:100A30000F90DF91CF911F910F9108951092F504BF
:100A4000EACFDF92EF92FF920F931F93CF93DF9342
:100A5000D82E162F042FE82EF12C8FE08D1508F4D8
:100A60007FC08091A5039091A6030D2C02C096959E
:100A700087950A94E2F780FF4AC0C091A303D09102
:100A8000A403CE010D2C02C0969587950A94E2F737
:100A900080FF02C0442319F1612F8D2D0E94350281
:100AA00081E090E0A0E0B0E004C0880F991FAA1F89
:100AB000BB1FDA94D2F72091A1033091A203112336
:100AC000B9F0282B392B3093A2032093A1030023E4
:100AD000A9F08C2B9D2B9093A4038093A30380E01B
:100AE000DF91CF911F910F91FF90EF90DF900895CC
:100AF000AC014095509524233523E5CF8095909502
:100B0000C823D923D093A403C093A303E8CF4130D3
:100B100031F781E090E0A0E0B0E004C0880F991FB9
:100B2000AA1FBB1FDA94D2F72091A3033091A4032C
:100B3000282B392B3093A4032093A3032091A103E6
:100B40003091A203662339F0822B932B9093A2035A
:100B50008093A103C4CF8095909582239323F6CFF1
:100B600080E1E81AF10880919F039091A0030E2C78
:100B700002C0969587950A94E2F780FF3FC0C09126
:100B80009D03D0919E03CE010E2C02C096958795B1
:100B90000A94E2F780FF03C0442309F4A0CF612F39
:100BA0008D2D0E94350281E090E0A0E0B0E004C00D
:100BB000880F991FAA1FBB1FEA94D2F720919B03AD
:100BC00030919C03112379F0282B392B30939C030F
:100BD00020939B03002369F08C2B9D2B90939E0305
:100BE00080939D037CCFAC01409550952423352301
:100BF000EDCF809590958C239D23F0CF413009F067
:100C00006ECF81E090E0A0E0B0E004C0880F991FB3
:100C1000AA1FBB1FEA94D2F720919D0330919E0337
:100C2000282B392B30939E0320939D0320919B0307
:100C300030919C03662339F0822B932B90939C0375
:100C400080939B034CCF8095909582239323F6CF7E
:100C50008730D0F4E82FF0E0E05DF94F0C940F15E9
:100C6000370639063B063D063F06410643068EE041
:100C700008958FE0089580E1089581E1089582E16B
:100C8000089583E1089584E108951F93CF93DF933E
:100C9000C091A103D091A2032091A3033091A4039A
:100CA000082E02C0369527950A94E2F720FF0CC063
:100CB0009E0102C0369527958A95E2F7C901817099
:100CC000DF91CF911F910895182F0E940C0241E0EF
:100CD00050E060E070E004C0440F551F661F771FAE
:100CE0001A95D2F7882339F04C2B5D2B5093A20331
:100CF0004093A103E5CF409550954C235D23F6CF5B
:100D0000CF93DF93A7EFB3E08C91E9E4F1E0808328
:100D100011968C911197818312968C9112978283F0
:100D200093968D919C919497838393968D919C91AA
:100D30009497948395968D919C919697858395969B
:100D40008D919C91969796838091F2039091F303F5
:100D500087838091F2039091F30390878091B10390
:100D600081871286C2E4D4E0888199818387888153
:100D70009981948798968C9198978587C1EAD3E05A
:100D80009881898196878787CBE9D3E0988189818B
:100D9000908B818BC2E9D1E098818981928B838B82
:100DA000CCE8D1E098818981948B858B99968D913F
:100DB0009C919A97868B99968D919C919A97978BF7
:100DC0009B968D919C919C97808F9B968D919C91E9
:100DD0009C97918F9D968D919C919E97828F9D96C9
:100DE0008D919C919E97938F9F968D919C91D0977A
:100DF000848F9F968D919C91D097958FD1968D9150
:100E00009C91D297868FD1968D919C91D297978FF6
:100E1000D3968D919C91D49780A3D3968D919C91DC
:100E2000D49791A3D5968D919C91D69782A3D59670
:100E30008D919C91D69793A3D7968D919C91D8979D
:100E400084A3D7968D919C91D89795A3D9968D918F
:100E50009C91DA9786A3D9968D919C91DA9797A366
:100E6000DB968D919C91DC9780A7DB968D919C9170
:100E7000DC9791A7DD968D919C91DE9782A7DD96F8
:100E80008D919C9193A7A6E3B4E08D919C911197CD
:100E900084A78D919C9195A7A8E3B4E08D919C9136
:100EA000119786A78D919C9197A7AAE3B4E08D91A5
:100EB0009C91119780AB8D919C9191ABACE3B4E088
:100EC0008D919C91119782AB8D919C9193ABAEE3E8
:100ED000B4E08D919C91119784AB8D919C9195ABD1
:100EE000A3EBB3E08C9186AB11968C91119787ABF5
:100EF00012968C91129780AF13968C91139781AFB5
:100F000014968C9182AFA0E4B4E08D919C911197DE
:100F100083AF8D919C9194AFA4E4B4E08D919C91AA
:100F2000119785AF8D919C9196AFA6E4B4E08D9119
:100F30009C91119787AF8D919C9190938901E8E4E2
:100F4000F4E08081918180938A01808191819093E6
:100F50008B01DF91CF91089520911E04223061F022
:100F6000233089F0213039F48038910520F48752FC
:100F70009C4FFC01608308958637F1E09F07D8F706
:100F800088549C4FF6CF8115F2E09F07A0F7865654
:100F90009E4FEFCF0F931F93CF93DF9309ED13E095
:100FA000CAE0D0E0CE010E94D713F80181938F01EF
:100FB0002196C431D105B1F708EB13E0CAE8D0E0BF
:100FC000CE010E94D713F80181938F012196CB3A6D
:100FD000D105B1F70AE911E0C0E0D2E0CE010E94EC
:100FE000D713F80181938F012196C115F4E0DF0733
:100FF000A9F78091F80380688093F803DF91CF917F
:101000001F910F910895FF920F931F93CF93DF933A
:10101000EC01F62E08811981C8010E94D713F81639
:1010200021F06F2DC8010E94DF13CE01DF91CF9117
:101030001F910F91FF900895EF92FF920F931F93CE
:10104000CF93DF9300D0CDB7DEB7182F90E080E0CC
:101050000E94D713823029F062E090E080E00E9485
:10106000DF13123031F11330C9F11130A1F429ED41
:10107000E22E23E0F22E0AE010E01A830983F70142
:1010800061917F01CE0101960E9403080F5F1F4FFF
:101090000431110591F78091F80380688093F8037B
:1010A0000F900F90DF91CF911F910F91FF90EF90D4
:1010B000089598EBE92E93E0F92E0AE810E01A83E0
:1010C0000983F70161917F01CE0101960E94030817
:1010D0000F5F1F4F0B3A110591F7DDCF8AE9E82E1C
:1010E00081E0F82E00E012E01A830983F701619194
:1010F0007F01CE0101960E9403080F5F1F4F01156B
:10110000F4E01F0789F7C7CFCF92DF92EF92FF92EB
:101110000F931F93CF93DF9300D0CDB7DEB78091AD
:101120001E04823069F18330A9F1813041F409ED68
:1011300013E04AE8C42ED12C5AE0E52EF12C809120
:101140009801909199019C012E0D3F1D2C153D0594
:1011500058F5F99932C0800F912F911DFC016081E3
:101160003A832983CE0101960E9403088091980159
:101170009091990101969093990180939801DFCF06
:1011800008EB13E0CC24CA94DD24D3943AE8E32E90
:10119000F12CD5CF0AE911E0CC24CA9483E0D82EF3
:1011A000E12C92E0F92ECBCF8091F80380688093F8
:1011B000F80310929901109298010F900F90DF910F
:1011C000CF911F910F91FF90EF90DF90CF900895F6
:1011D0001F93CF93DF93E091E003E0FF84C1DE2F04
:1011E000D295D695D370CE2FC695CF701FB7F894F1
:1011F00080914601811124C0E4EAF0E08491E8EB9B
:10120000F0E09491E82FF0E0EE0FFF1FE057FF4F62
:10121000A591B491EC91E92321F461E08AE00E9468
:1012200035028AE00E94B7008CB580618CBD8CB518
:1012300080648CBD8DE00E94B7008BE00E94B700F7
:10124000809146018F5F809346011FBF80E591E04A
:101250000E948C0060E08091F7040E94350280ECCF
:101260000E949E0261E08091F7040E94350283E2B1
:1012700090E00197F1F780E48093F80480E80E9401
:10128000ED02811140C1D13009F4BEC008F4F1C0B3
:10129000D23009F07DC0C150CE3008F079C0EC2FBB
:1012A000F0E0EB5AF64F0C940F15680A6309DA095F
:1012B000DE09E209E609EA09ED09F009F409F7098E
:1012C000FB09FE09010AC4E8D6EF83E9682F8AE228
:1012D0000E94FF026D2F89E20E94FF026C2F88E2BC
:1012E0000E94FF0261E080E20E944E0361E084E21E
:1012F0000E944E0361E080E00E944E0360E084E0C3
:101300000E944E0361E088E00E944E0360E080E1AD
:101310000E944E0361E084E10E944E0360E088E198
:101320000E944E03C0E360E08C2F0E94FF0260E049
:1013300080E18C0F0E94FF0260E080E28C0F0E942F
:10134000FF02CF5FCE3379F760E080E60E94FF02B4
:1013500060E080E70E94FF0263E08BE20E94FF02F0
:101360006CE38CE00E94FF0260E08DE00E94FF02CF
:1013700044E664E680E60E94C60240E660E680E756
:101380000E94C6028091F8040E94ED028111BBC048
:101390001092F80480E00E94ED028091F9038160D0
:1013A0008093F9031092F6038091F9038D7F809367
:1013B000F903A5C0C4E8D6EF89E888CFC3E8D5EE25
:1013C00087E884CFC4E8D6EF85E880CFC4E8D6EFBD
:1013D00084E87CCFC3E8D5EEFBCFC1E8D3EDF8CFEE
:1013E000C4E8D6EF81E872CFC3E8D5EEFBCFC4E8FE
:1013F000D6EF80E86BCFC3E8D5EEFBCFC1E8D1EDE7
:1014000065CFC0E8D0EC62CFC150CE3008F6EC2FEB
:10141000F0E0E35FF54F0C940F156C0A1B0A1F0AEE
:10142000C809230A570A270A540A500A2A0A700AC6
:101430002E0A320A360AC4E8D6EF87E647CFC4E858
:10144000D6EF83E543CFC3E8D5EE8EE43FCFC4E8C3
:10145000D6EF3CCFC3E8D5EE83E438CFC3E8D5EE72
:1014600081E434CFC3E8D5EE80E430CFC1E8DAECD4
:101470002DCFC650C93008F08BCFEC2FF0E0ED5BDC
:10148000F54F0C940F155B0A570A4C0A540A500A80
:101490005F0A700A620A650AC7E8DFEF84EC16CFBC
:1014A000C3E8D5EE84E412CFC4E8D6EFFBCFC4E89E
:1014B000D6EF89E40BCFC1E8D3ED88E107CFC1E8CF
:1014C000D3EDF0CFC4E8D6EFCFCFC2E8D9EDFECE52
:1014D000C4E8D6EF87EAFACEC7E8DFEF8FE3F6CEAF
:1014E000C4E8D6EFBDCF8091F9038E7F8093F903D6
:1014F0008091F9038D7F8093F9031092F603DF91B9
:10150000CF911F9108958091F9038E7F50CFCF9393
:101510001092F8030E94CA071092A4031092A3032A
:1015200010929E0310929D031092950110929401C7
:1015300010928F0110928E011092A00310929F03BF
:1015400010929701109296011092910110929001C1
:101550008DE00E94B70080E090E29093A603809314
:10156000A503C091E103CF73E1F0C093F403C3314D
:10157000C0F48C2F0E94B7002C2F30E0C03108F04F
:101580008CC081E090E0A0E0B0E004C0880F991F1B
:10159000AA1FBB1FCA95D2F790629093A6038093AF
:1015A000A5038091E20384FF03C08F708093B20390
:1015B00080917A00846080937A0080917A008D7F98
:1015C00080937A0080917A008E7F80937A000E94C7
:1015D000E80883E48093DF038AE090E09093DA03E5
:1015E0008093D9031092DB031092DC031092DD0389
:1015F0001092DE0381E00E941C0881E290E090934B
:10160000B9038093B8031092BA031092BB031092EF
:10161000BC031092BD0382E00E941C0880E092E0AF
:1016200090939B0180939A0110929C0110929D01CE
:1016300010929E0110929F0183E00E941C080E945C
:101640008F000E948F001092F3031092F203109209
:10165000F7038091F80381608093F8031092B00043
:101660001092B10082E0809370009CE79093B300E9
:101670008093B0001092B2008DE08093B10087E0BB
:1016800087BB88E198E20FB6F894A8958093600034
:101690000FBE90936000CF9108952051310981E0F1
:1016A00090E0A0E0B0E004C0880F991FAA1FBB1F04
:1016B0002A95D2F79093A00380939F0372CF8F92C5
:1016C0009F92AF92BF92CF92DF92EF92FF920F93D1
:1016D0001F93CF93DF9300D0CDB7DEB7811521E004
:1016E000920721F580911F048D7F80931F04109233
:1016F000A4031092A30310929E0310929D031092D4
:1017000095011092940110928F0110928E010F900A
:101710000F90DF91CF911F910F91FF90EF90DF908D
:10172000CF90BF90AF909F908F9008958130980791
:1017300051F48091E20385FFEACF80911F0482601B
:1017400080931F04E4CF823021E0920709F04CC05F
:101750008091E20386FFDBCFF8940FB6F894A8954A
:1017600080916000886180936000109260000FBEDD
:1017700040E060E08DE00E94210510E000E01A8367
:10178000098360E0CE0101960E9403080F5F1F4F9E
:10179000011584E0180799F70E94CA070E94780291
:1017A0004B015C0180E1C82E87E2D82EE12CF12CA0
:1017B0000E947802681979098A099B09683E73407A
:1017C00081059105A8F321E0C21AD108E108F108CA
:1017D00088EE880E83E0981EA11CB11CC114D104B0
:1017E000E104F10429F7DACF833021E0920749F4CC
:1017F0008091E20385FF8BCFF8940E94870A78944A
:1018000086CF9C01215032402034310568F420916C
:101810001F0421FF7CCF815041E061E0833108F05B
:1018200076CF0E94210573CF9C0121503340203494
:10183000310508F06CCF20911F0421FF68CF815043
:10184000833108F064CF41E060E0EBCF8F929F924C
:10185000AF92BF92CF92DF92EF92FF920F931F93BE
:10186000CF93DF93CDB7DEB78DB69EB6809148019A
:10187000811106C08AE494E00E941201809347011E
:1018800080914701803509F4C2C038F5823409F4EB
:101890008CC0A8F4813409F46BC00FB6F8949EBED6
:1018A0000FBE8DBEDF91CF911F910F91FF90EF90F2
:1018B000DF90CF90BF90AF909F908F900895853428
:1018C00009F489C0863449F743E050E061E471E0EF
:1018D0008AE494E00E94D600E0CF863509F4BFC0C8
:1018E000A8F4813509F4AAC005E011E08335A9F612
:1018F000F80161918F018AE494E00E9476011092D0
:10190000F703F1E004311F0799F7C7CF873509F4D2
:101910000EC1823711F68AE494E00E9434010697E2
:101920000CF4F3C18AE494E00E941201182F8AE4B7
:1019300094E00E941201D82E8AE494E00E941201E1
:10194000082F8AE494E00E941201E12CF82EE02A8C
:101950008AE494E00E941201C82E97E5D91210C1C2
:10196000143009F051C16C2DC7010E94AC074CC165
:101970000E94800609E411E0F80161918F018AE478
:1019800094E00E947601F1E00C381F07A9F78091DE
:10199000E3039091E4038F3F980709F47ECF01960B
:1019A0009093E4038093E30378CF8AE494E00E9469
:1019B0003401892BD1F38AE494E00E9412018093D0
:1019C0001E048091F8038F778093F80380911E04A2
:1019D0000E941C0862CF8AE494E00E943401892BA3
:1019E000D1F38AE494E00E941201182F8AE494E073
:1019F0000E943401892BD1F38AE494E00E94120101
:101A000020E0382FC901812B0E945F0B46CF8AE46A
:101A100094E00E943401892BD1F38AE494E00E947F
:101A2000120180931E0480911E04803308F435CF88
:101A300080911E04805380931E042FCF05E111E096
:101A40003EE2E32E31E0F32EF80161918F018AE44A
:101A500094E00E947601E016F106B1F71ECF8AE409
:101A600094E00E943401892BD1F38AE494E00E942F
:101A70001201F82E8AE494E00E943401892BD1F3FC
:101A80008AE494E00E941201E0E0F82FCF018F2950
:101A90007C018AE494E00E943401892BD1F38AE42A
:101AA00094E00E941201D82E8AE494E00E9434014E
:101AB000892BD1F38AE494E00E94120140E0582F70
:101AC0004D2980911E04823011F1833019F181304B
:101AD00011F409ED13E0CDB6DEB6EDB7FEB7E41BA9
:101AE000F50B0FB6F894FEBF0FBEEDBF6DB77EB716
:101AF0006F5F7F4FF801EE0DFF1DDB019B01240F8F
:101B0000351FA217B30749F081918D93FACF08EBE7
:101B100013E0E1CF0AE911E0DECF8AE494E00E940D
:101B2000D6000FB6F894DEBE0FBECDBEB6CE8AE4A8
:101B300094E00E943401892BD1F38AE494E00E945E
:101B40001201182F8AE494E00E943401892BD1F30A
:101B50008AE494E00E94120120E0382FC901812B11
:101B60008C018AE494E00E943401892BD1F38AE449
:101B700094E00E941201682FC8010E94AC078DCE2C
:101B80008AE494E00E9412011430F1F500E0182F6D
:101B90000C29E2E4DE1609F465C0ED15C8F0FFE09B
:101BA000DF1629F12CE3D21691F18EE0D8122CC069
:101BB00005E011E0F80161918F018AE494E00E9450
:101BC00076011092F703F1E004311F0799F71CC06A
:101BD00090E5D91609F459C0E6E5DE1609F458C0B7
:101BE000F5E4DF1211C0C7010E945F0B0DC005E1D3
:101BF00011E0F80161918F018AE494E00E9476017E
:101C0000F1E00E321F07A9F71092480146CE0115E8
:101C10001105D9F00E9480060434110510F003E488
:101C200010E0C701875B9E4F6C010E0D1F1DC601A2
:101C3000895491408017910740F4F60161916F013A
:101C40008AE494E00E947601F2CF8091E3039091C0
:101C5000E4038F3F9807C1F201969093E4038093C9
:101C6000E303D2CF8091F80387FD07C08091F8038A
:101C700087FD03C00E948408F9CFE0921E04809182
:101C8000F8038F778093F803BFCFE0921E04BCCF98
:101C900080911E04823021F1833039F1813021F4AA
:101CA00029EDA22E23E0B22ECDB6DEB68DB79EB7BB
:101CB000801B910B0FB6F8949EBF0FBE8DBF6DB702
:101CC0007EB76F5F7F4FF501EE0DFF1DDB019B01BE
:101CD000200F311FA217B30769F081918D93FACFBE
:101CE00098EBA92E93E0B92EDFCF8AE9A82E81E0E8
:101CF000B82EDACFA8018AE494E00E94D6000FB68D
:101D0000F894DEBE0FBECDBE7FCF81E08093480148
:101D1000C4CD1F920F920FB60F9211242F933F93B1
:101D20004F935F936F937F938F939F93AF93BF93E3
:101D3000EF93FF938AE494E00E945401FF91EF91A6
:101D4000BF91AF919F918F917F916F915F914F91D3
:101D50003F912F910F900FBE0F901F9018951F92DB
:101D60000F920FB60F9211242F938F939F93EF939F
:101D7000FF93E0915A04F0915B048081E09160044C
:101D8000F091610482FD1BC09081809163048F5F9C
:101D90008F7320916404821741F0E0916304F0E0B6
:101DA000E65BFB4F958F80936304FF91EF919F91CA
:101DB0008F912F910F900FBE0F901F9018958081DB
:101DC000F4CF1F920F920FB60F9211242F933F93CF
:101DD0008F939F93AF93BF938091A8039091A90392
:101DE000A091AA03B091AB033091A70323E0230F86
:101DF0002D3758F50196A11DB11D2093A70380939F
:101E0000A8039093A903A093AA03B093AB03809176
:101E1000AC039091AD03A091AE03B091AF030196D6
:101E2000A11DB11D8093AC039093AD03A093AE03AD
:101E3000B093AF03BF91AF919F918F913F912F913D
:101E40000F900FBE0F901F90189526E8230F029653
:101E5000A11DB11DD2CF78941F920F920FB60F9291
:101E600011242F935F936F937F938F939F93AF93DF
:101E7000BF93809100019091010165E070E00E94A4
:101E8000FB14892B71F48091F50387FF05C08091C5
:101E9000B10380688093B1038091F50380688093DB
:101EA000F503809100019091010164E170E00E94CE
:101EB000FB14019771F48091F50386FF05C08091B2
:101EC000B10380648093B1038091F50380648093B3
:101ED000F503809100019091010162E370E00E949E
:101EE000FB14029771F48091F50385FF05C0809182
:101EF000B10380628093B1038091F5038062809387
:101F0000F50380910001909101016BE470E00E9463
:101F1000FB14029771F48091F50384FF05C0809152
:101F2000B10380618093B1038091F5038061809358
:101F3000F503809100019091010164E670E00E9438
:101F4000FB14039771F48091F50383FF05C0809122
:101F5000B10388608093B1038091F503886080931A
:101F6000F50380910001909101016AEF70E00E94F9
:101F7000FB14049771F48091F50382FF05C08091F2
:101F8000B10384608093B1038091F50384608093F2
:101F9000F503809100019091010164EF71E00E94CE
:101FA000FB14049771F48091F50381FF05C08091C3
:101FB000B10382608093B1038091F50382608093C6
:101FC000F503809100019091010168EE73E00E9499
:101FD000FB14049789F58091F50380FF05C080917B
:101FE000B10381608093B1038091F5038160809398
:101FF000F50380919A03823028F01092B103109279
:102000009A0309C08091B1038823C9F380919A0390
:102010008F5F80939A038091F2039091F3039093E2
:102020001B0480931A041092F3031092F203809120
:10203000F7038F5F8093F703809100019091010176
:10204000873E934088F01092010110920001BF91E9
:10205000AF919F918F917F916F915F912F910F9091
:102060000FBE0F901F901895809100019091010173
:1020700001969093010180930001E9CFCF93DF9304
:10208000EAE4F4E01382128288EE93E0A0E0B0E08C
:1020900084839583A683B78383E391E091838083D0
:1020A00085EC90E09587848784EC90E0978786871D
:1020B00080EC90E0918B808B81EC90E0938B828B15
:1020C00082EC90E0958B848B86EC90E0978B868BEE
:1020D000118E128E138E148EC7EED4E08AE0888B98
:1020E00061E00E9435028889DF91CF910C94B7009E
:1020F000CF93DF93CDB7DEB72C970FB6F894DEBF42
:102100000FBECDBF789484B5826084BD84B58160F4
:1021100084BD85B5826085BD85B5816085BD8091B2
:102120006E00816080936E0010928100809181002A
:102130008260809381008091810081608093810022
:10214000809180008160809380008091B1008460E4
:102150008093B1008091B00081608093B000809145
:102160007A00846080937A0080917A008260809304
:102170007A0080917A00816080937A0080917A0061
:10218000806880937A001092C1000E94870A48E01C
:10219000E42E8E010F5F1F4F8091F503F12C87FF16
:1021A00020C0A8958091E00380FF14C08091F903BE
:1021B00080FF10C08091F90381FD0CC0D801EE2D85
:1021C0001D92EA95E9F7F5E0F887B80180E095E01F
:1021D0000E946A038091F5038F778093F503FF24B3
:1021E000F3948091F50386FF1EC0F3948091E00381
:1021F00080FF14C08091F90380FF10C08091F90323
:1022000081FD0CC0D801EE2D1D92EA95E9F7F4E1AD
:10221000F887B80181E095E00E946A038091F50398
:102220008F7B8093F5038091F50385FF1EC0F394A7
:102230008091E00380FF14C08091F90380FF10C0FB
:102240008091F90381FD0CC0D801EE2D1D92EA9515
:10225000E9F7F2E3F887B80182E095E00E946A03AB
:102260008091F5038F7D8093F5038091F50384FFC2
:1022700006C0F3948091F5038F7E8093F5038091DF
:10228000F50383FFFCC0F3948091E00380FF14C04A
:102290008091F90380FF10C08091F90381FD0CC08B
:1022A000D801EE2D1D92EA95E9F7F4E6F887B8011A
:1022B00083E095E00E946A038091F9049091FA040A
:1022C000009711F48DEF94E09801281B390B30939F
:1022D0001D0420931C048091B103811117C08091CB
:1022E0001C0490911D04843F914080F080911A0459
:1022F00090911B04883C910548F08091B003843193
:1023000008F056C18F5F8093B00307C08091F80337
:1023100082608093F8031092B0032091D50330912E
:10232000D6034091D7035091D8036091D1037091A7
:10233000D2038091D3039091D4030E943E14609302
:10234000B3037093B4038093B5039093B6032091C5
:10235000CE038091BE039091BF03981708F02EC161
:10236000281708F467C12091C60330E03093470472
:1023700020934604B12C8B2D0E944506B394FDE0BA
:10238000BF12F9CFB12CA12C8A2D0E9428060E94E1
:102390006302F501EE0FFF1FE950FC4F92A781A7E2
:1023A0002FEFA21AB20A36E0A316B10469F78091A2
:1023B000E20384FF17C0B090B2038FE08B1508F4DE
:1023C00056C18B2D0E9428060E946302EB2DF0E07F
:1023D000EE0FFF1FE950FC4F92A781A79093450491
:1023E000809344044091B703242E312C512C412C6E
:1023F000E091CF0320912004309121043695279558
:1024000036952795C901B0E0A0E089879A87AB8708
:10241000BC87281639064A065B0651F1EE2341F1C6
:10242000A0E0B1E0AE1BB1090E941D154B015C019B
:1024300050E09A01AE2FB0E00E942E14860E971E37
:10244000A81EB91E892C9A2CAB2CBB24940184168F
:10245000950671F489859A85AB85BC852F5F3F4FC2
:10246000281639064A065B0618F0940121503109F6
:102470002093B7038091F503877F8093F5038091C4
:10248000F50382FF06C0F3948091F5038B7F809360
:10249000F5038091F50381FF29C0F3948091E00357
:1024A00080FF14C08091F90380FF10C08091F90370
:1024B00081FD0CC0D801EE2D1D92EA95E9F7F5E0FB
:1024C000FF83B80184E095E00E946A038DE00E94DA
:1024D000450640E060E0813009F061E08DE00E9457
:1024E00021058091F5038D7F8093F5038091F5039D
:1024F00080FFCFC08091E00380FF06C08091F90388
:1025000080FDB8C00E94E8088091E00380FF14C0FD
:102510008091F90380FF10C08091F90381FD0CC008
:10252000D801EE2D1D92EA95E9F7F7E0FF83B80197
:1025300085E095E00E946A038091E3039091E403B3
:1025400090934904809348041092E4031092E303AB
:102550008091F5038E7F8093F5038AE494E00E94D6
:1025600034018AE494E00E943401819714F00E94BF
:10257000260C8091F80387FF0E9484088091F20363
:102580009091F3038091F2039091F303019690935D
:10259000F3038093F20320E030E0232B09F4FCCD19
:1025A0000E944001882309F4F7CD0E940000F4CD79
:1025B0008091F8038D7F8093F803AFCE821708F0E7
:1025C000D2CE8091C503281718F02091CD03CDCE2F
:1025D000EFEBF3E081E090E0C1902C1580F4AC01CA
:1025E00041505109FA01E254FC4FD0804A535C4FEC
:1025F000DA017C908A539C4FFC01608004C00196F4
:102600008830910549F74D2D50E030E0241B350B03
:10261000E62DE719FF0BDF010E9415152C2D30E088
:10262000241B350B032E000C440B550B0E94ED139D
:10263000270D9BCE8091C503821738F6EFEBF3E0B0
:1026400081E090E0D190D21668F4FC013197DF016F
:10265000A254BC4FCC908A539C4FDC017C90EA532F
:10266000FC4FCBCF01968830910561F7CCCF90E03D
:1026700080E0B4CE8091F90381FF46CFD801EE2DE2
:102680001D92EA95E9F7B80189E997E00E946A038B
:102690003BCFF11062CF8AE494E00E9434018AE4D7
:1026A00094E00E9434011816190614F40E94260CB6
:1026B0008091F90380FF51CF8091F4030E940C02B6
:1026C000892B09F04ACF80E591E00E948C0060E000
:1026D0008091F7040E94350280EA0E949E0280E009
:1026E0000E949E02F82E61E08091F7040E9435025C
:1026F000F0FE55C081E60E949E0440E061E08CE25D
:102700000E94C6028091E704882389F08091E80442
:102710009091E904A091EA04B091EB04B068809331
:10272000E8049093E904A093EA04B093EB04809149
:10273000F504882389F08091E8049091E904A09140
:10274000EA04B091EB04B0648093E8049093E90448
:10275000A093EA04B093EB048091E8049091E9041B
:10276000A091EA04B091EB048093EE039093EF0301
:10277000A093F003B093F1038091EC048093ED03F8
:10278000ADEEB4E0E5EEF3E090E09F01255E33406E
:10279000281739070CF0E1CE2D912193F6CFF1FEE9
:1027A000DCCE81E70E949E0440E062E0A8CFF99968
:1027B000FECF92BD81BDF89A992780B50895262F46
:1027C000F999FECF1FBA92BD81BD20BD0FB6F89416
:1027D000FA9AF99A0FBE01960895052E97FB1EF4FA
:1027E00000940E94041457FD07D00E940C1407FCAB
:1027F00003D04EF40C9404145095409530952195D7
:102800003F4F4F4F5F4F089590958095709561951C
:102810007F4F8F4F9F4F0895A1E21A2EAA1BBB1B1B
:10282000FD010DC0AA1FBB1FEE1FFF1FA217B3079C
:10283000E407F50720F0A21BB30BE40BF50B661FB2
:10284000771F881F991F1A9469F760957095809576
:1028500090959B01AC01BD01CF010895A29FB001ED
:10286000B39FC001A39F700D811D1124911DB29FC4
:10287000700D811D1124911D08955058BB27AA2762
:102880000E9455140C94C1140E94B31438F00E9495
:10289000BA1420F039F49F3F19F426F40C94B014C4
:1028A0000EF4E095E7FB0C94AA14E92F0E94D214D1
:1028B00058F3BA17620773078407950720F079F475
:1028C000A6F50C94F4140EF4E0950B2EBA2FA02D5F
:1028D0000B01B90190010C01CA01A0011124FF27CD
:1028E000591B99F0593F50F4503E68F11A16F040C8
:1028F000A22F232F342F4427585FF3CF46953795C7
:102900002795A795F0405395C9F77EF41F16BA0B8B
:10291000620B730B840BBAF09150A1F0FF0FBB1F39
:10292000661F771F881FC2F70EC0BA0F621F731F82
:10293000841F48F4879577956795B795F7959E3FDF
:1029400008F0B0CF9395880F08F09927EE0F979570
:102950008795089597F99F6780E870E060E0089593
:102960009FEF80EC089500240A94161617061806A7
:102970000906089500240A94121613061406050683
:102980000895092E0394000C11F4882352F0BB0F14
:1029900040F4BF2B11F460FF04C06F5F7F4F8F4F77
:1029A0009F4F089557FD9058440F551F59F05F3FB2
:1029B00071F04795880F97FB991F61F09F3F79F061
:1029C00087950895121613061406551FF2CF4695E3
:1029D000F1DF08C0161617061806991FF1CF869565
:1029E0007105610508940895E894BB276627772749
:1029F000CB0197F90895AA1BBB1B51E107C0AA1F81
:102A0000BB1FA617B70710F0A61BB70B881F991F8F
:102A10005A95A9F780959095BC01CD010895EE0FC8
:102A2000FF1F0590F491E02D09940E942E1433238A
:102A300012F48A1B9B0B0C941F150E942E14B7FFD7
:0C2A40000895821B930B0895F894FFCFBB
:102A4C00050030405054535F4F535F56302E323098
:102A5C005F64657600737065656475696E6F5F544D
:102A6C00535F4F535F56302E32305F6465760000F3
:102A7C000000007601D6000301C3013401120126C7
:062A8C00013030310000B2
:00000001FF
