:100000000C9497010C94C8010C94C8010C94C8017D
:100010000C94C8010C94C8010C94C8010C94C8013C
:100020000C94C8010C94C8010C94C8010C94C8012C
:100030000C94C8010C9407140C94C8010C94C801CA
:100040000C94C8010C94C8010C94C8010C94C8010C
:100050000C94C8010C94C8010C94C8010C94BD13F5
:100060000C94C8010C9487130C945D130C94C80174
:100070000C94C8010C94C8010C94C8010C94C801DC
:100080000C94C8010C94C8010C94C8010C94C801CC
:100090000C94C8010C94C8010C94C8010C94C801BC
:1000A0000C94C8010C94C8010C94C8010C94C801AC
:1000B0000C94C8010C94C8010C94C8010C94C8019C
:1000C0000C94C8010C94C8010C94C8010C94C8018C
:1000D0000C94C8010C94C8010C9427130C94FD12C5
:1000E0000C94C8010C9471030C94F40D0C94B3029D
:1000F0000C94050E0C94ED080C946A0E0C941B15D0
:100100000C94B0030C94F9080C94FE0D0C94CF0DD4
:100110000C94AC030C9486030C946D0E0C943F0E5F
:100120000C9490030C94EF080C9403090C940109AF
:100130000C94F5080C94FB080C947D030C94F108C6
:100140000C94F7080C9440020C94E10D0C94080EEA
:100150000C94020E0C9480030C94ED0D0C94F70D8E
:100160000C94570E0C947B0E0C9413020C94FD0807
:100170000C94660E0C94A6030C94EB080C94980354
:100180000C9494030C949E030C9463020C94F30857
:100190000C946B0D0C946B030C945F0E0C94330E4B
:1001A0000C94700E0C9400030C944F020C94AB034F
:1001B0000C948A030C94E9080C94FF080C947903BE
:1001C0000C9475030C94770E0C94E50D0C940709B0
:1001D0000C94280E0C94FB0D0C94240E0C94A2038A
:1001E0000C9471020C945B0E0C94300E0C942C0E3B
:1001F0000C94620E0C9405090C94E90D0C943B0EC2
:100200000C94F10D0C94730E0C94370E000020002A
:100210002300260029002C002F00320000010000DE
:1002200003010601090100000A0B02090C0D0E086A
:1002300007030401000000000000000000000000AF
:1002400000000000000000000000000000000000AE
:10025000000012111000000000000000000000006B
:10026000000000000000000000000000000022006C
:10027000250028002B002E00310034000201000070
:10028000050108010B0100002100240027002A00BD
:100290002D003000330001010000040107010A01B4
:1002A00005050505070508080808020202020A0AF2
:1002B0000808040404040101010101010101030310
:1002C000030303030303040707070C0C0C0C0C0CBB
:1002D0000C0C0202020206060606060606060B0BB8
:1002E0000B0B0B0B0B0B01021020200808102040F9
:1002F00010204080020102010804020101020408EA
:100300001020408080402010080402018004020177
:1003100080402010080402010804020101020408C0
:100320001020408001020408102040801B15112479
:100330001FBECFEFD1E2DEBFCDBF00E00CBF12E0A9
:10034000A0E0B2E0EEEAF4E300E00BBF02C00790E9
:100350000D92A634B107D9F72AE0A6E4B2E001C0B5
:100360001D92AA39B207E1F711E0C7E9D1E000E038
:1003700006C021970109802FFE010E943E1AC6394E
:10038000D10780E00807A9F70E947B150C94551A45
:100390000C9400008CBD9DBD0895FC01A089B1891D
:1003A00082E08C93A485B5851C92A685B78580E1F3
:1003B0008C93108EA489B58986E08C93A289B38929
:1003C0008C9180618C93A289B3898C9188608C9385
:1003D000A289B3898C9180688C930288F389E02D7F
:1003E00080818F7D8083089590E0FC01EA51FD4F6C
:1003F000249180569D4FFC018491882399F090E0D0
:10040000880F991FFC01EA57FD4FA591B491FC019B
:10041000E459FD4F859194918FB7F894EC91E22BBC
:10042000EC938FBF0895AF92BF92CF92DF92EF927D
:10043000FF920F931F93CF93DF936C017B018B018E
:10044000040F151FEB015E01AE18BF08C017D107DE
:1004500059F06991D601ED91FC910190F081E02D68
:10046000C6011995892B79F7C501DF91CF911F91AD
:100470000F91FF90EF90DF90CF90BF90AF900895D5
:10048000FC01538D448D252F30E0842F90E0821B9A
:10049000930B541710F0CF96089501970895FC011F
:1004A000918D828D981761F0A28DAE0FBF2FB11D77
:1004B0005D968C91928D9F5F9F73928F90E00895CF
:1004C0008FEF9FEF0895FC01918D828D981731F089
:1004D000828DE80FF11D858D90E008958FEF9FEFDD
:1004E0000895FC01918D228D892F90E0805C9F4FB3
:1004F000821B91098F73992708958AE499E00E94DD
:10050000710221E0892B09F420E0822F089587EE03
:1005100099E00E94710221E0892B09F420E0822FEA
:100520000895FC01A48DA80FB92FB11DA35ABF4F88
:100530002C91848D90E001968F739927848FA689E2
:10054000B7892C93A089B1898C91837080648C9336
:10055000938D848D981306C00288F389E02D8081E5
:100560008F7D80830895EF92FF920F931F93CF9317
:10057000DF93EC0181E0888F9B8D8C8D98131AC0DE
:10058000E889F989808185FF15C09FB7F894EE89C5
:10059000FF896083E889F989808183708064808322
:1005A0009FBF81E090E0DF91CF911F910F91FF906D
:1005B000EF900895F62E0B8D10E00F5F1F4F0F7315
:1005C0001127E02E8C8D8E110CC00FB607FCFACFD0
:1005D000E889F989808185FFF5CFCE010E949102DB
:1005E000F1CFEB8DEC0FFD2FF11DE35AFF4FF082A1
:1005F0009FB7F8940B8FEA89FB8980818062CFCF07
:10060000CF93DF93EC01888D8823B9F0AA89BB8949
:10061000E889F9898C9185FD03C0808186FD0DC034
:100620000FB607FCF7CF8C9185FFF2CF808185FF55
:10063000EDCFCE010E949102E9CFDF91CF910895D5
:1006400080E090E0892B29F00E94870281110E94AE
:10065000000080E090E0892B49F080E090E0892B59
:1006600029F00E94000081110E94000080E090E0CB
:10067000892B49F080E090E0892B29F00E9400004E
:1006800081110E94000080E090E0892B29F00E94F7
:100690007D0281110C94000008958150823108F090
:1006A0005AC0E82FF0E08827E75AFC4F8F4F0C9490
:1006B0003E1A79037D036B0371037503AB0380035B
:1006C00086038A039003940398039E03A203AB035B
:1006D000A603AC03B003809180008F7780938000E5
:1006E0000895809180008F7DF9CF80918000877F71
:1006F000F5CF84B58F7784BD089584B58F7DFBCF0A
:100700008091B0008F778093B00008958091B00001
:100710008F7DF9CF809190008F778093900008951E
:10072000809190008F7DF9CF80919000877FF5CFE9
:100730008091A0008F778093A00008958091A00001
:100740008F7DF9CF8091A000877FF5CF8091200128
:100750008F77809320010895809120018F7DF9CFBC
:1007600080912001877FF5CFCF93DF93282F30E052
:10077000F901EA5DFD4F8491F901EA51FD4FD491F1
:10078000F901E056FD4FC491CC23A1F081110E94E4
:100790004D03EC2FF0E0EE0FFF1FE45FFD4FA5913E
:1007A000B491EC91ED2381E090E009F480E0DF91D9
:1007B000CF91089580E090E0FACF1F93CF93DF931D
:1007C000282F30E0F901EA5DFD4F8491F901EA51EB
:1007D000FD4FD491F901E056FD4FC491CC23A9F00F
:1007E000162F81110E944D03EC2FF0E0EE0FFF1F3A
:1007F000E459FD4FA591B4918FB7F894EC91111184
:1008000008C0D095DE23DC938FBFDF91CF911F917D
:100810000895DE2BF8CF863308F0865320917B00B5
:10082000982F9870277F922B90937B00877080641D
:1008300080937C0080917A00806480937A0080911C
:100840007A0086FDFCCF8091780090917900089520
:100850003FB7F8948091AC089091AD08A091AE0894
:10086000B091AF0826B5A89B05C02F3F19F001969F
:10087000A11DB11D3FBFBA2FA92F982F8827BC01FA
:10088000CD01620F711D811D911D42E0660F771F22
:10089000881F991F4A95D1F7089508958EBD0000CD
:1008A0000DB407FEFDCF8EB508951F93CF93DF9350
:1008B000182F80E591E00E94CA01C4E8DAE060E008
:1008C00088890E94DD0383E00E944E04812F0E94EC
:1008D0004E0480E00E944E04182F61E088890E9437
:1008E000DD03812FDF91CF911F910895FF920F9328
:1008F0001F93CF93DF93F82E062F142F80E591E0FE
:100900000E94CA01C4E8DAE060E088890E94DD0341
:1009100085E00E944E048F2D0E944E04802F0E947D
:100920004E04812F0E944E0461E08889DF91CF91AF
:100930001F910F91FF900C94DD03CF93C82F482F88
:1009400060EE8FE00E9476048FE00E945504982F9D
:10095000907E81E09C1301C080E0CF9108950F93B9
:100960001F93CF93DF93082F162F80E591E00E940D
:10097000CA01C4E8DAE060E088890E94DD0382E011
:100980000E944E04802F0E944E04812F0E944E042C
:1009900061E08889DF91CF911F910F910C94DD0365
:1009A000FF920F931F93CF93DF93C82FF62E172F2D
:1009B000042F80E591E00E94CA0160E08091940AD2
:1009C0000E94DD0382E00E944E048C2F0E944E04A0
:1009D000CF2DD12F0C0F1D2F111DC017D10721F0C6
:1009E00089910E944E04F9CF61E08091940ADF91D1
:1009F000CF911F910F91FF900C94DD03CF93DF9364
:100A000000D01F92CDB7DEB71C821B82613081F40B
:100A100098E09A83198244E0BE016F5F7F4F0E9485
:100A2000D0040F900F900F900F90DF91CF91089509
:100A30001A82F0CF4F925F926F928F929F92AF92F5
:100A4000BF92CF92DF92FF920F931F93CF93DF93CA
:100A500000D01F92CDB7DEB7B0E0A0E08093850A4A
:100A60009093860AA093870AB093880A1092920AFC
:100A70001092840A88E08093890AFB01AAE8BAE010
:100A8000CB01089621912D938E179F07D9F7B12C92
:100A9000A12C4090020250900302609004024E018B
:100AA00084E0880E911C49825A826B82FE01319645
:100AB0006F01FE2E0D2DF60111916F01812F0E9405
:100AC000550483FD1FC01F5F80E0FFEFAF1ABF0A10
:100AD0008230F1F482E3A816B10429F786E090E0B1
:100AE00090934109809340098091F9088061809337
:100AF000F9088091F6088F3F09F485C08F5F8093D5
:100B0000F60881C08C149D04B1F610E082E0DDCFC0
:100B100092E3A916B10411F34091890A6AE87AE0D8
:100B200085E0810F0E94D0048091920A813029F4DF
:100B30008091890A80648093890A6091890A84E09F
:100B4000810F0E94AF044091850A5091860A6091FE
:100B5000870A7091880A8091840A813091F54C83CC
:100B60005B83AB0166277727842F83708860942F7F
:100B7000990F990F990F907E892B8A8365E056957E
:100B800047956A95E1F7498344E06F2D702F812FD7
:100B90000E94D004115048E068E0812F0E94760442
:100BA000D12CC12CEFEFCE1ADE0A812F0E94550402
:100BB00083FF15C0F2E3CF16D104A1F787E090E0E0
:100BC0008FCFCA0123E0969587952A95E1F789830F
:100BD0004295440F407E4A831C821B82D5CF82E31C
:100BE000C816D10459F3109241091092400980911E
:100BF000F9088F7E8093F9088091F9088D7F8093A2
:100C0000F9081092F6088091F608833328F0809155
:100C1000F90882608093F9080F900F900F900F9061
:100C2000DF91CF911F910F91FF90DF90CF90BF90F8
:100C3000AF909F908F906F905F904F900895FF922C
:100C40000F931F93CF93DF93C82FF62E172F042FE8
:100C500080E591E00E94CA0160E08091940A0E94C0
:100C6000DD0383E00E944E048C2F0E944E04CF2DA2
:100C7000D12F0C0F1D2F111DC017D10729F080E0B7
:100C80000E944E048993F8CF61E08091940ADF912D
:100C9000CF911F910F91FF900C94DD030F931F9341
:100CA000CF93DF9300D01F92CDB7DEB7182F1092ED
:100CB000840A1092850A1092860A1092870A10926E
:100CC000880A44E0BE016F5F7F4F0E941F062A81A1
:100CD000898138E0839FC0011124422F50E065E0F4
:100CE000559547956A95E1F7840F951F092E000CDD
:100CF000AA0BBB0B8093850A9093860AA093870A60
:100D0000B093880A23FF29C032E0880F991FAA1FD9
:100D1000BB1F3A95D1F72370820F911DA11DB11D04
:100D2000BA2FA92F982F88272B81820F911DA11DE3
:100D3000B11DBA2FA92F982F88272C81820F911DC2
:100D4000A11DB11D8093850A9093860AA093870AFE
:100D5000B093880A81E08093840A8FEF810F0E940C
:100D60005504082F84E0810F0E94550403FF16C02C
:100D700091E09093920A482F4F704093890A6AE855
:100D80007AE085E0810F0E941F060F900F900F9070
:100D90000F90DF91CF911F910F9108951092920AB9
:100DA000EACFDF92EF92FF920F931F93CF93DF93DF
:100DB000D82E162F042FC82FD0E02FE0281708F4C4
:100DC0007FC08091A5089091A6080D2C02C0969531
:100DD00087950A94E2F780FF4AC0C091A308D0919A
:100DE000A408CE010D2C02C0969587950A94E2F7CF
:100DF00080FF02C0442319F1612F8D2D0E94DD0375
:100E000081E090E0A0E0B0E004C0880F991FAA1F25
:100E1000BB1FDA94D2F72091A1083091A2081123C8
:100E2000B9F0282B392B3093A2082093A108002376
:100E3000A9F08C2B9D2B9093A4088093A30880E0AD
:100E4000DF91CF911F910F91FF90EF90DF90089568
:100E5000AC014095509524233523E5CF809590959E
:100E6000C823D923D093A408C093A308E8CF413066
:100E700031F781E090E0A0E0B0E004C0880F991F56
:100E8000AA1FBB1FDA94D2F72091A3083091A408BF
:100E9000282B392B3093A4082093A3082091A10874
:100EA0003091A208662339F0822B932B9093A208ED
:100EB0008093A108C4CF8095909582239323F6CF89
:100EC0008FE18D1508F476C0609780919F0890910E
:100ED000A0080C2E02C0969587950A94E2F780FF31
:100EE0003FC0E0909D08F0909E08C7010C2E02C004
:100EF000969587950A94E2F780FF03C0442309F48E
:100F00009ECF612F8D2D0E94DD0381E090E0A0E057
:100F1000B0E004C0880F991FAA1FBB1FCA95D2F763
:100F200020919B0830919C08112379F0282B392BB4
:100F300030939C0820939B08002369F0E82AF92A43
:100F4000F0929E08E0929D087ACFAC0140955095B2
:100F500024233523EDCF80959095E822F922F0CF18
:100F6000413009F06CCF81E090E0A0E0B0E004C037
:100F7000880F991FAA1FBB1FCA95D2F720919D0801
:100F800030919E08282B392B30939E0820939D0882
:100F900020919B0830919C08662339F0822B932B7B
:100FA00090939C0880939B084ACF809590958223CC
:100FB0009323F6CF8FE28D1508F476C0A097809129
:100FC000990890919A080C2E02C0969587950A94DC
:100FD000E2F780FF3FC0E0909708F0909808C701C3
:100FE0000C2E02C0969587950A94E2F780FF03C005
:100FF000442309F424CF612F8D2D0E94DD0381E06D
:1010000090E0A0E0B0E004C0880F991FAA1FBB1FAA
:10101000CA95D2F72091950830919608112379F05E
:10102000282B392B3093960820939508002369F0DC
:10103000E82AF92AF0929808E092970800CFAC01CC
:101040004095509524233523EDCF80959095E82247
:10105000F922F0CF413009F0F2CE81E090E0A0E03B
:10106000B0E004C0880F991FAA1FBB1FCA95D2F712
:101070002091970830919808282B392B30939808A5
:10108000209397082091950830919608662339F0AF
:10109000822B932B9093960880939508D0CE8095C1
:1010A000909582239323F6CFE097809193089091B7
:1010B00094080C2E02C0969587950A94E2F780FF5B
:1010C00043C0E0909108F0909208C7010C2E02C036
:1010D000969587950A94E2F780FF03C0442309F4AC
:1010E000AECE612F8D2D0E94DD0381E090E0A0E067
:1010F000B0E004C0880F991FAA1FBB1FCA95D2F782
:1011000020918F0830919008112379F0282B392BEA
:101110003093900820938F08002369F08E299F292F
:1011200090939208809391088ACEAC014095509597
:1011300024233523EDCF80959095E822F922F09273
:101140009208E09291087BCE413009F078CE81E0A0
:1011500090E0A0E0B0E004C0880F991FAA1FBB1F59
:10116000CA95D2F72091910830919208282B392BFB
:10117000309392082093910820918F083091900825
:10118000662339F0822B932B9093900880938F08DD
:1011900056CE8095909582239323F6CF803108F028
:1011A00037C0E82FF0E08827E752F74F8F4F0C94B5
:1011B0003E1AE908EB08ED08EF08F108F308F50816
:1011C000F708F908FB08FD08FF08010903090509EC
:1011D000070986E3089587E3089588E3089589E37E
:1011E00008958AE308958BE308958CE308958DE3D1
:1011F00008958EE308958FE3089580E4089581E4CF
:10120000089582E4089583E4089584E4089585E4CC
:101210000895EF92FF921F93CF93DF93182FC82F5B
:10122000D0E08031E8F5C091A108D091A20880916A
:10123000A3089091A408012E02C0969587950A9460
:10124000E2F780FF08C0CE0102C0969587951A95F7
:10125000E2F7817016C0812F0E94B40341E050E094
:1012600060E070E004C0440F551F661F771F1A9599
:10127000D2F7882361F04C2B5D2B5093A20840934A
:10128000A108DF91CF911F91FF90EF9008954095B5
:101290005095C423D523D093A208C093A108F1CFC1
:1012A0008032C8F56097E0909B08F0909C08809190
:1012B0009D0890919E082C2F0C2E02C09695879524
:1012C0000A94E2F780FF07C0C70102C09695879590
:1012D0002A95E2F7BECF812F0E94B40341E050E08F
:1012E00060E070E004C0440F551F661F771FCA9569
:1012F000D2F7882339F04E295F2950939C084093F8
:101300009B08BFCF40955095E422F522F0929C08AF
:10131000E0929B08B6CF803390F5A097E0909508B7
:10132000F090960880919708909198082C2F0C2E99
:1013300002C0969587950A94E2F780FDC5CF812F6C
:101340000E94B40341E050E060E070E004C0440F4C
:10135000551F661F771FCA95D2F7882339F04E298B
:101360005F2950939608409395088BCF40955095F0
:10137000E422F522F0929608E092950882CFE09759
:10138000E0908F08F09090088091910890919208D9
:101390002C2F0C2E02C0969587950A94E2F780FDBB
:1013A00093CF812F0E94B40341E050E060E070E0F1
:1013B00004C0440F551F661F771FCA95D2F78823B4
:1013C00039F04E295F295093900840938F0859CFE8
:1013D00040955095E422F522F0929008E0928F0813
:1013E00050CFCF93DF93A7EFB8E08C91E9E4F2E020
:1013F000808311968C911197818312968C9112970C
:10140000828393968D919C919497838393968D91EB
:101410009C919497948395968D919C9196978583B2
:1014200095968D919C91969796838091F2089091D4
:10143000F30887838091F2089091F3089087809158
:10144000B10881871286C2E4D9E0888199818387B7
:1014500088819981948798968C9198978587C1EA1D
:10146000D8E09881898196878787CBE9D8E09881F1
:101470008981908B818BC5E9D8E098818981928B95
:10148000838BCFE8D8E098818981948B858B99965E
:101490008D919C919A97868B99968D919C919A9714
:1014A000978B9B968D919C919C97808F9B968D910D
:1014B0009C919C97918F9D968D919C919E97828FE8
:1014C0009D968D919C919E97938F9F968D919C91C7
:1014D000D097848F9F968D919C91D097958FD19620
:1014E0008D919C91D297868FD1968D919C91D29718
:1014F000978FD3968D919C91D49780A3D3968D91FD
:101500009C91D49791A3D5968D919C91D69782A3C7
:10151000D5968D919C91D69793A3D7968D919C91BA
:10152000D89784A3D7968D919C91D89795A3D99657
:101530008D919C91DA9786A3D9968D919C91DA979B
:1015400097A3DB968D919C91DC9780A7DB968D917C
:101550009C91DC9791A7DD968D919C91DE9782A757
:10156000DD968D919C9193A7A6E3B9E08D919C9116
:10157000119784A78D919C9195A7A8E3B9E08D91CF
:101580009C91119786A78D919C9197A7AAE3B9E0AA
:101590008D919C91119780AB8D919C9191ABACE317
:1015A000B9E08D919C91119782AB8D919C9193ABF9
:1015B000AEE3B9E08D919C91119784AB8D919C9194
:1015C00095ABA3EBB8E08C9186AB11968C911197FB
:1015D00087AB12968C91129780AF13968C911397CC
:1015E00081AF14968C9182AFA0E4B9E08D919C916B
:1015F000119783AF8D919C9194AFA4E4B9E08D9144
:101600009C91119785AF8D919C9196AFA6E4B9E01E
:101610008D919C91119787AF8D919C9190938902A8
:10162000E8E4F9E08081918180938A028081918150
:1016300090938B02DF91CF91089520911E09233062
:10164000D1F028F4213041F0223071F00895243097
:10165000C9F02530F1F008958038910520F48752C3
:10166000974FFC01608308958637F1E09F07D8F714
:101670008854974FF6CF8115F2E09F07A0F7825765
:10168000994FEFCF8115F2E09F0768F782579B4F84
:10169000E8CF8115F2E09F0730F782579D4FE1CFE9
:1016A000CF92DF92EF92FF920F931F93CF93DF932E
:1016B000EB017B012EEFF21A8B016C01C61AD70ADF
:1016C000C601800F911F0E940619F80181938F01B6
:1016D000EE15FF05A9F7CE01DF91CF911F910F9174
:1016E000FF90EF90DF90CF9008950F931F93CF93CB
:1016F000DF9309ED18E0CAE0D0E0CE010E940619A0
:10170000F80181938F012196C431D105B1F708EB1F
:1017100018E0CAE8D0E0CE010E940619F8018193D2
:101720008F012196CB3AD105B1F76EE876E080E0E3
:1017300092E00E94500B6EE874E080E094E00E941A
:10174000500B6EE872E080E096E00E94500B8091B2
:10175000F80880688093F808DF91CF911F910F916E
:101760000895FF920F931F93CF93DF93EC01F62E12
:1017700008811981C8010E940619F81621F06F2D01
:10178000C8010E940E19CE01DF91CF911F910F91D8
:10179000FF900895AF92BF92CF92DF92EF92FF92A7
:1017A0000F931F93CF93DF931F921F92CDB7DEB796
:1017B0008B016B012EEFD21A7B015C01A61AB70ACE
:1017C000C5018E0D9F1D9A838983F70161917F0169
:1017D000CE0101960E94B10BEC14FD0489F7C801FB
:1017E0000F900F90DF91CF911F910F91FF90EF908D
:1017F000DF90CF90BF90AF900895EF92FF920F933C
:101800001F93CF93DF931F921F92CDB7DEB7182F90
:1018100090E080E00E940619823029F062E090E0BA
:1018200080E00E940E19133009F448C090F4113082
:10183000D9F0123071F18091F80880688093F8082F
:101840000F900F90DF91CF911F910F91FF90EF902C
:1018500008951430D1F1153071F76EE872E080E030
:1018600096E00E94CA0BE7CF99EDE92E98E0F92E99
:101870000AE010E01A830983F70161917F01CE012C
:1018800001960E94B10B0F5F1F4F0431110591F7B4
:10189000D2CF88EBE82E88E0F82E0AE810E01A8311
:1018A0000983F70161917F01CE0101960E94B10B7E
:1018B0000F5F1F4F0B3A110591F7BDCF6EE876E031
:1018C00080E092E00E94CA0BB6CF6EE874E080E040
:1018D00094E00E94CA0BAFCFCF92DF92EF92FF92BB
:1018E0000F931F93CF93DF931F921F92CDB7DEB755
:1018F00080911E09833009F448C030F5813091F1A0
:101900008230C9F180918C0290918D029C012E0D44
:101910003F1D2C153D0508F04CC0F99953C0800FB0
:10192000912F911DFC0160813A832983CE0101969C
:101930000E94B10B80918C0290918D020196909340
:101940008D0280938C02DECF843049F18530D1F650
:101950000EE812E0CC24CA9487E0D82EE12C96E061
:10196000F92ED0CF09ED18E0EAE8CE2ED12CFAE01E
:10197000EF2EF12CC7CF08EB18E0CC24CA94DD245D
:10198000D3947AE8E72EF12CBDCF0EE816E0CC24F4
:10199000CA9443E0D42EE12C52E0F52EB3CF0EE8EA
:1019A00014E0CC24CA9425E0D22EE12C34E0F32EAE
:1019B000A9CF8091F80880688093F80810928D0272
:1019C00010928C020F900F90DF91CF911F910F9189
:1019D000FF90EF90DF90CF9008951F93CF93DF9308
:1019E000E091E008E0FF8AC1DE2FD295D695D37052
:1019F000CE2FC695CF701FB7F89480914602811103
:101A000024C0E5EDF2E08491EBE1F3E09491E82F5E
:101A1000F0E0EE0FFF1FEA57FD4FA591B491EC9156
:101A2000E92321F461E085E30E94DD0385E30E9460
:101A3000F4018CB580618CBD8CB580648CBD84E371
:101A40000E94F40183E30E94F401809146028F5FBB
:101A5000809346021FBF80E591E00E94CA0160E0CA
:101A60008091940A0E94DD0380EC0E944E0461E0A4
:101A70008091940A0E94DD0383E290E00197F1F7E0
:101A800080E48093950A80E80E949D04682F81116C
:101A900045C1D13009F4BFC008F4F4C0D23009F018
:101AA0007EC0C150CE3008F07AC0EC2FF0E088271D
:101AB000E35AF24F8F4F0C943E1A730E6B0DE10DEB
:101AC000E50DE90DED0DF10DF40DF70DFB0DFE0D1E
:101AD000020E050E080EC4E8D6EF63E98AE20E9402
:101AE000AF046D2F89E20E94AF046C2F88E20E9440
:101AF000AF0461E080E20E94FE0461E084E20E94A3
:101B0000FE0461E080E00E94FE0460E084E00E9448
:101B1000FE0461E088E00E94FE0460E080E10E9433
:101B2000FE0461E084E10E94FE0460E088E10E941E
:101B3000FE04C0E360E08C2F0E94AF0460E080E10F
:101B40008C0F0E94AF0460E080E28C0F0E94AF0413
:101B5000CF5FCE3379F760E080E60E94AF0460E0AB
:101B600080E70E94AF0463E08BE20E94AF046CE365
:101B70008CE00E94AF0460E08DE00E94AF0444E678
:101B800064E680E60E94760440E660E680E70E9414
:101B900076048091950A0E949D048111BFC0109225
:101BA000950A80E00E949D048091F90881608093ED
:101BB000F9081092F6088091F9088D7F8093F90852
:101BC000A9C0C4E8D6EF69E889CFC3E8D5EE67E8D5
:101BD00085CFC4E8D6EF65E881CFC4E8D6EF64E8E6
:101BE0007DCFC3E8D5EEFBCFC1E8D3EDF8CFC4E895
:101BF000D6EF61E873CFC3E8D5EEFBCFC4E8D6EFEC
:101C000060E86CCFC3E8D5EEFBCFC1E8D1ED66CF7D
:101C1000C0E8D0EC63CFC150CE3008F6EC2FF0E036
:101C20008827EA5EF14F8F4F0C943E1A770E240EF0
:101C3000280ECF0D2C0E620E300E5F0E5B0E330E93
:101C40007B0E370E3B0E3F0EC4E8D6EF67E646CF5D
:101C5000C4E8D6EF63E542CFC3E8D5EE6EE43ECFED
:101C6000C4E8D6EF3BCFC3E8D5EE63E437CFC3E893
:101C7000D5EE61E433CFC3E8D5EE60E42FCFC1E801
:101C8000DAEC2CCFC650C93008F089CFEC2FF0E049
:101C90008827E25BF14F8F4F0C943E1A660E620E5E
:101CA000570E5F0E5B0E6A0E7B0E6D0E700EC7E850
:101CB000DFEF64EC13CFC3E8D5EE64E40FCFC4E8E4
:101CC000D6EFFBCFC4E8D6EF69E408CFC1E8D3ED87
:101CD00068E104CFC1E8D3EDF0CFC4E8D6EFCDCFB3
:101CE000C2E8D9EDFBCEC4E8D6EF67EAF7CEC7E885
:101CF000DFEF6FE3F3CEC4E8D6EFBBCF8091F908F6
:101D00008E7F8093F9088091F9088D7F8093F90880
:101D10001092F608DF91CF911F9108958091F908F4
:101D20008E7F4CCFCF93DF931092F8080E94750BF3
:101D30001092A4081092A30810929E0810929D0879
:101D40001092980810929708109292081092910899
:101D50001092A00810929F0810929A081092990869
:101D600010929408109293088DE00E94F40180E094
:101D700090E29093A6088093A508C091E108CF73E4
:101D8000F9F0C53308F0C75FC093F408C633C0F458
:101D90008C2F0E94F4018C2F90E0C03108F0AFC06E
:101DA00081E090E0A0E0B0E004C0880F991FAA1F76
:101DB000BB1FCA95D2F790629093A6088093A5089E
:101DC0008091E20884FF03C08F708093B2088091F5
:101DD0007A00846080937A0080917A008D7F80936E
:101DE0007A0080917A008E7F80937A000E94ED0CB9
:101DF00083E48093DF088AE090E09093DA08809390
:101E0000D9081092DB081092DC081092DD081092BD
:101E1000DE0881E00E94FD0B81E290E09093B9081A
:101E20008093B8081092BA081092BB081092BC08B0
:101E30001092BD0882E00E94FD0BC0E0D2E0D0937A
:101E40008F06C0938E061092900610929106109203
:101E500092061092930683E00E94FD0BD0938F04AC
:101E6000C0938E04109290041092910410929204E8
:101E70001092930484E00E94FD0BD0938F02C093D4
:101E80008E02109290021092910210929202109281
:101E9000930285E00E94FD0B87EE99E00E94CD0140
:101EA0008AE499E00E94CD011092F3081092F208A2
:101EB0001092F7088091F80881608093F8081092DA
:101EC000B0001092B10082E0809370009CE7909384
:101ED000B3008093B0001092B2008DE08093B10007
:101EE00087E087BB88E198E20FB6F894A8958093C5
:101EF00060000FBE90936000DF91CF910895C032D3
:101F000088F4409741E050E060E070E004C0440F86
:101F1000551F661F771F8A95D2F75093A0084093EC
:101F20009F084ECFC03388F4809741E050E060E0D6
:101F300070E004C0440F551F661F771F8A95D2F7C3
:101F400050939A08409399083BCFC09741E050E0E6
:101F500060E070E004C0440F551F661F771F8A952C
:101F6000D2F750939408409393082ACF8F929F9270
:101F7000AF92BF92CF92DF92EF92FF920F931F9397
:101F8000CF93DF931F921F92CDB7DEB7811521E06B
:101F9000920721F580911F098D7F80931F09109270
:101FA000A4081092A30810929E0810929D08109207
:101FB00098081092970810929208109291080F902A
:101FC0000F90DF91CF911F910F91FF90EF90DF90D5
:101FD000CF90BF90AF909F908F90089581309807D9
:101FE00051F48091E20885FFEACF80911F09826059
:101FF00080931F09E4CF823021E0920709F04CC0A2
:102000008091E20886FFDBCFF8940FB6F894A8958C
:1020100080916000886180936000109260000FBE24
:1020200040E060E08DE00E94D10610E000E01A83FD
:10203000098360E0CE0101960E94B10B0F5F1F4F34
:10204000011580E1180799F70E94750B0E9428047A
:102050004B015C0180E1C82E87E2D82EE12CF12CE7
:102060000E942804681979098A099B09683E73400F
:1020700081059105A8F321E0C21AD108E108F10811
:1020800088EE880E83E0981EA11CB11CC114D104F7
:10209000E104F10429F7DACF833021E0920749F413
:1020A0008091E20885FF8BCFF8940E94920E78947D
:1020B00086CF9C01215032402034310568F42091B4
:1020C0001F0921FF7CCF815041E061E0863308F099
:1020D00076CF0E94D10673CF9C012150334020342B
:1020E000310508F06CCF20911F0921FF68CF815086
:1020F000863308F064CF41E060E0EBCF8F929F928F
:10210000AF92BF92CF92DF92EF92FF920F931F9305
:10211000CF93DF93CDB7DEB78DB69EB680914802E0
:10212000811106C087EE99E00E944F02809347021A
:1021300080914702803509F4C2C038F5823409F431
:102140008CC0A8F4813409F46BC00FB6F8949EBE1D
:102150000FBE8DBEDF91CF911F910F91FF90EF9039
:10216000DF90CF90BF90AF909F908F90089585346F
:1021700009F489C0863449F743E050E061E472E035
:1021800087EE99E00E941302E0CF863509F4BFC0C4
:10219000A8F4813509F4AAC005E012E08335A9F658
:1021A000F80161918F0187EE99E00E94B3021092CD
:1021B000F708F2E004311F0799F7C7CF873509F414
:1021C0001AC1823711F687EE99E00E9471020697D4
:1021D0000CF40FC287EE99E00E944F02182F87EE91
:1021E00099E00E944F02D82E87EE99E00E944F029C
:1021F000082F87EE99E00E944F02E12CF82EE02A8A
:1022000087EE99E00E944F02C82E97E5D9121CC1B3
:10221000143009F05DC16C2DC7010E941D0B58C11F
:102220000E94F10909E412E0F80161918F0187EE43
:1022300099E00E94B302F2E00C381F07A9F78091E1
:10224000E3089091E4088F3F980709F47ECF019648
:102250009093E4088093E30878CF87EE99E00E949A
:102260007102892BD1F387EE99E00E944F0280938F
:102270001E098091F8088F778093F80880911E09D5
:102280000E94FD0B62CF87EE99E00E947102892BBC
:10229000D1F387EE99E00E944F02182F87EE99E064
:1022A0000E947102892BD1F387EE99E00E944F02C0
:1022B00020E0382FC901812B0E94B60F46CF87EE50
:1022C00099E00E947102892BD1F387EE99E00E9478
:1022D0004F0280931E0980911E09803308F435CF88
:1022E00080911E09805380931E092FCF05E112E0D3
:1022F0005EE2E52E52E0F52EF80161918F0187EE46
:1023000099E00E94B302E016F106B1F71ECF87EE06
:1023100099E00E947102892BD1F387EE99E00E9427
:102320004F02F82E87EE99E00E947102892BD1F3BB
:1023300087EE99E00E944F02E0E0F82FCF018F294D
:102340007C0187EE99E00E947102892BD1F387EE20
:1023500099E00E944F02D82E87EE99E00E94710208
:10236000892BD1F387EE99E00E944F0240E0582F6D
:102370004D2980911E09833071F100F5813029F1DA
:10238000823031F1CDB6DEB6EDB7FEB7E41BF50B0A
:102390000FB6F894FEBF0FBEEDBF6DB77EB76F5F8F
:1023A0007F4FF801EE0DFF1DDB019B01240F351F50
:1023B000A217B307B1F081918D93FACF843071F0F9
:1023C000853001F70EE812E0DDCF09ED18E0DACF35
:1023D00008EB18E0D7CF0EE816E0D4CF0EE814E0F3
:1023E000D1CF87EE99E00E9413020FB6F894DEBEBB
:1023F0000FBECDBEAACE87EE99E00E947102892B56
:10240000D1F387EE99E00E944F02182F87EE99E0F2
:102410000E947102892BD1F387EE99E00E944F024E
:1024200020E0382FC901812B8C0187EE99E00E94B2
:102430007102892BD1F387EE99E00E944F02682F39
:10244000C8010E941D0B81CE87EE99E00E944F02C9
:102450001430F1F500E0182F0C29E2E4DE1609F43F
:1024600065C0ED15C8F0FFE0DF1629F12CE3D216A8
:1024700091F18EE0D8122CC005E012E0F8016191D4
:102480008F0187EE99E00E94B3021092F708F2E004
:1024900004311F0799F71CC090E5D91609F459C0FB
:1024A000E6E5DE1609F458C0F5E4DF1211C0C701F5
:1024B0000E94B60F0DC005E112E0F80161918F0195
:1024C00087EE99E00E94B302F2E00E321F07A9F7EF
:1024D000109248023ACE01151105D9F00E94F10977
:1024E0000434110510F003E410E0C701875B9D4F31
:1024F0006C010E0D1F1DC601895492408017910773
:1025000040F4F60161916F0187EE99E00E94B302F9
:10251000F2CF8091E3089091E4088F3F9807C1F2D1
:1025200001969093E4088093E308D2CF8091F80855
:1025300087FD07C08091F80887FD03C00E946C0CDE
:10254000F9CFE0921E098091F8088F778093F80800
:10255000BFCFE0921E09BCCF80911E098330A1F14C
:1025600000F5813039F1823051F1CDB6DEB68DB74C
:102570009EB7801B910B0FB6F8949EBF0FBE8DBF08
:102580006DB77EB76F5F7F4FF501EE0DFF1DDB016D
:102590009B01200F311FA217B30701F181918D9389
:1025A000FACF8430B1F0853001F78EE8A82E82E0B2
:1025B000B82EDBCF49EDA42E48E0B42ED6CF38EBB1
:1025C000A32E38E0B32ED1CF2EE8A22E26E0B22ED5
:1025D000CCCF9EE8A92E94E0B92EC7CFA80187EEF4
:1025E00099E00E9413020FB6F894DEBE0FBECDBE76
:1025F0006FCF81E080934802A8CD1F920F920FB653
:102600000F9211240BB60F922F933F934F935F932A
:102610006F937F938F939F93AF93BF93EF93FF93AA
:102620008AE499E00E949102FF91EF91BF91AF91EE
:102630009F918F917F916F915F914F913F912F91DA
:102640000F900BBE0F900FBE0F901F9018951F920A
:102650000F920FB60F9211240BB60F922F938F93F8
:102660009F93EF93FF93E0915A09F0915B0980816A
:10267000E0916009F091610982FD1DC09081809117
:1026800063098F5F8F7320916409821741F0E09195
:102690006309F0E0E65BF64F958F80936309FF9145
:1026A000EF919F918F912F910F900BBE0F900FBEC6
:1026B0000F901F9018958081F2CF1F920F920FB646
:1026C0000F9211240BB60F922F933F934F935F936A
:1026D0006F937F938F939F93AF93BF93EF93FF93EA
:1026E00087EE99E00E949102FF91EF91BF91AF9127
:1026F0009F918F917F916F915F914F913F912F911A
:102700000F900BBE0F900FBE0F901F9018951F9249
:102710000F920FB60F9211240BB60F922F938F9337
:102720009F93EF93FF93E091F709F091F80980816F
:10273000E091FD09F091FE0982FD1DC0908180911C
:10274000000A8F5F8F732091010A821741F0E09198
:10275000000AF0E0E951F64F958F8093000AFF914F
:10276000EF919F918F912F910F900BBE0F900FBE05
:102770000F901F9018958081F2CF1F920F920FB685
:102780000F9211242F933F938F939F93AF93BF93F7
:102790008091A8089091A908A091AA08B091AB08CF
:1027A0003091A70823E0230F2D3758F50196A11D7E
:1027B000B11D2093A7088093A8089093A908A0931F
:1027C000AA08B093AB088091AC089091AD08A09195
:1027D000AE08B091AF080196A11DB11D8093AC0861
:1027E0009093AD08A093AE08B093AF08BF91AF919E
:1027F0009F918F913F912F910F900FBE0F901F903F
:10280000189526E8230F0296A11DB11DD2CF78940A
:102810001F920F920FB60F9211242F935F936F9315
:102820007F938F939F93AF93BF938091000290917A
:10283000010265E070E00E942A1A892B71F48091F0
:10284000F50887FF05C08091B10880688093B108C2
:102850008091F50880688093F5088091000290913E
:10286000010264E170E00E942A1A019771F48091DC
:10287000F50886FF05C08091B10880648093B10897
:102880008091F50880648093F50880910002909112
:10289000010262E370E00E942A1A029771F48091AB
:1028A000F50885FF05C08091B10880628093B1086A
:1028B0008091F50880628093F508809100029091E4
:1028C00001026BE470E00E942A1A029771F4809171
:1028D000F50884FF05C08091B10880618093B1083C
:1028E0008091F50880618093F508809100029091B5
:1028F000010264E670E00E942A1A039771F4809145
:10290000F50883FF05C08091B10888608093B10805
:102910008091F50888608093F5088091000290917D
:1029200001026AEF70E00E942A1A049771F4809104
:10293000F50882FF05C08091B10884608093B108DA
:102940008091F50884608093F50880910002909151
:10295000010264EF71E00E942A1A049771F48091D9
:10296000F50881FF05C08091B10882608093B108AD
:102970008091F50882608093F50880910002909123
:10298000010268EE73E00E942A1A049789F580918B
:10299000F50880FF05C08091B10881608093B1087F
:1029A0008091F50881608093F50880918E088230CF
:1029B00028F01092B10810928E0809C08091B108D9
:1029C0008823C9F380918E088F5F80938E08809151
:1029D000F2089091F30890931B0980931A091092C2
:1029E000F3081092F2088091F7088F5F8093F70840
:1029F0008091000290910102873E934090F01092E6
:102A000001021092000217BABF91AF919F918F916E
:102A10007F916F915F912F910F900FBE0F901F903C
:102A20001895809100029091010201969093010205
:102A300080930002E8CFCF93DF93EAE4F9E01382BA
:102A4000128248EE53E060E070E044835583668371
:102A5000778383E392E09183808325E331E03587B8
:102A6000248724E331E03787268720E331E0318B68
:102A7000208B21E331E0338B228B22E331E0358B55
:102A8000248B26E331E0378B268B118E128E138E2A
:102A9000148EE7EEF9E01382128244835583668335
:102AA00077839183808385EC90E09587848784EC9D
:102AB00090E09787868780EC90E0918B808B81EC0B
:102AC00090E0938B828B82EC90E0958B848B86ECEC
:102AD00090E0978B868B118E128E138E148EC4E825
:102AE000DAE085E3888B61E00E94DD038889DF916D
:102AF000CF910C94F401CF93DF93CDB7DEB72C9731
:102B00000FB6F894DEBF0FBECDBF789484B5826057
:102B100084BD84B5816084BD85B5826085BD85B581
:102B2000816085BD80916E00816080936E001092FF
:102B3000810080918100826080938100809181007A
:102B4000816080938100809180008160809380000B
:102B50008091B10084608093B1008091B000816069
:102B60008093B00080919100826080939100809169
:102B700091008160809391008091900081608093AA
:102B800090008091A10082608093A1008091A100BB
:102B900081608093A1008091A00081608093A0005B
:102BA00080912101826080932101809121018160C7
:102BB0008093210180912001816080932001809188
:102BC0007A00846080937A0080917A00826080939A
:102BD0007A0080917A00816080937A0080917A00F7
:102BE000806880937A001092C1000E94920E48E0A3
:102BF000E42E8E010F5F1F4F8091F508F12C87FFA7
:102C000020C0A8958091E00880FF14C08091F90849
:102C100080FF10C08091F90881FD0CC0D801EE2D15
:102C20001D92EA95E9F7F5E0F887B80180E095E0B4
:102C30000E941A058091F5088F778093F508FF248C
:102C4000F3948091F50886FF1EC0F3948091E0080C
:102C500080FF14C08091F90880FF10C08091F908AE
:102C600081FD0CC0D801EE2D1D92EA95E9F7F4E143
:102C7000F887B80181E095E00E941A058091F50877
:102C80008F7B8093F5088091F50885FF1EC0F39433
:102C90008091E00880FF14C08091F90880FF10C087
:102CA0008091F90881FD0CC0D801EE2D1D92EA95A6
:102CB000E9F7F2E3F887B80182E095E00E941A058F
:102CC0008091F5088F7D8093F5088091F50884FF49
:102CD00006C0F3948091F5088F7E8093F50880916B
:102CE000F50883FF05C1F3948091E00880FF14C0CC
:102CF0008091F90880FF10C08091F90881FD0CC017
:102D0000D801EE2D1D92EA95E9F7F4E6F887B801AF
:102D100083E095E00E941A058091960A9091970AA7
:102D2000009711F48AE99AE09801281B390B309337
:102D30001D0920931C098091B108811117C0809151
:102D40001C0990911D09843F914080F080911A09DF
:102D500090911B09883C910548F08091B00884311E
:102D600008F055C18F5F8093B00807C08091F808C4
:102D700082608093F8081092B0082091D5083091B5
:102D8000D6084091D7085091D8086091D108709129
:102D9000D2088091D3089091D4080E946D19609355
:102DA000B3087093B4088093B5089093B608209147
:102DB000CE088091BE089091BF08981708F02DC1E9
:102DC000281708F466C12091C60830E030934709FF
:102DD00020934609B12C8B2D0E940909B394F4E38A
:102DE000BF12F9CFB12CA12C8A2D0E94CE08982EAB
:102DF0000E940B04892D0E940B04F501EE0FFF1FAA
:102E0000E950F74F92A781A72FEFA21AB20A3FE02D
:102E1000A316B10449F78091E20884FF1BC0B0906B
:102E2000B2088FE08B1508F451C18B2D0E94CE089B
:102E3000A82E0E940B048A2D0E940B04EB2DF0E0BB
:102E4000EE0FFF1FE950F74F92A781A79093450916
:102E5000809344095091B708252E312C512C412CD8
:102E60004091CF082091200930912109369527956E
:102E700036952795C901B0E0A0E089879A87AB878E
:102E8000BC87281639064A065B0659F1442349F1E6
:102E9000A0E0B1E0A41BB1090E944E1A4B015C01F5
:102EA000E52FF0E09F01A42FB0E00E945D19860E8F
:102EB000971EA81EB91E892C9A2CAB2CBB249401FA
:102EC0008E169F0671F489859A85AB85BC852F5F28
:102ED0003F4F281639064A065B0618F09401215028
:102EE00031092093B7088091F508877F8093F50812
:102EF0008091F50882FF06C0F3948091F5088B7FDE
:102F00008093F5088091F50881FF29C0F3948091A2
:102F1000E00880FF14C08091F90880FF10C0809104
:102F2000F90881FD0CC0D801EE2D1D92EA95E9F754
:102F3000F5E0FF83B80184E095E00E941A058DE07A
:102F40000E94090940E060E0813009F061E08DE015
:102F50000E94D1068091F5088D7F8093F5088091BD
:102F6000F50880FFC5C08091E00880FF06C0809111
:102F7000F90880FDAEC00E94ED0C8091E00880FF52
:102F800014C08091F90880FF10C08091F90881FD7C
:102F90000CC0D801EE2D1D92EA95E9F7F7E0FF830A
:102FA000B80185E095E00E941A058091E3089091B0
:102FB000E40890934909809348091092E40810921C
:102FC000E3088091F5088E7F8093F5088AE499E004
:102FD0000E94710287EE99E00E947102819714F0BD
:102FE0000E947E108091F80887FF0E946C0C8091EF
:102FF000F2089091F3088091F2089091F3080196FD
:103000009093F3088093F2080E942003F5CD8091FD
:10301000F8088D7F8093F808B0CE821708F0D3CEE1
:103020008091C508281718F02091CD08CECEEFEB7F
:10303000F8E081E090E0C1902C1580F4AC014150A3
:103040005109FA01E254F74FD0804A53574FDA0141
:103050007C908A53974FFC01608004C001968830B1
:10306000910549F74D2D50E030E0241B350BE62D3E
:10307000E719FF0BDF010E94461A2C2D30E0241BBC
:10308000350B032E000C440B550B0E941C19270D09
:103090009CCE8091C508821738F6EFEBF8E081E00E
:1030A00090E0D190D21668F4FC013197DF01A25470
:1030B000B74FCC908A53974FDC017C90EA53F74F7F
:1030C000CBCF01968830910561F7CCCF90E080E0BE
:1030D000BDCE8091F90881FF50CFD801EE2D1D9211
:1030E000EA95E9F7B80189E997E00E941A0545CF0A
:1030F000F1106CCF8AE499E00E94710287EE99E0AA
:103100000E9471021816190614F40E947E10809114
:10311000F90880FF5BCF8091F4080E94B403892BEB
:1031200009F054CF80E591E00E94CA0160E08091EF
:10313000940A0E94DD0380EA0E944E0480E00E940F
:103140004E04F82E61E08091940A0E94DD03F0FEA7
:1031500055C081E60E944E0640E061E08CE20E948C
:1031600076048091840A882389F08091850A909161
:10317000860AA091870AB091880AB0688093850A70
:103180009093860AA093870AB093880A8091920A46
:10319000882389F08091850A9091860AA091870AF8
:1031A000B091880AB0648093850A9093860AA093B0
:1031B000870AB093880A8091850A9091860AA09127
:1031C000870AB091880A8093EE089093EF08A09345
:1031D000F008B093F1088091890A8093ED08AAE87D
:1031E000BAE0E5EEF8E090E09F01255E3840281750
:1031F00039070CF0EBCE2D912193F6CFF1FEE6CE00
:1032000081E70E944E0640E062E0A8CFF999FECF28
:1032100092BD81BDF89A992780B50895262FF99916
:10322000FECF1FBA92BD81BD20BD0FB6F894FA9AA9
:10323000F99A0FBE01960895052E97FB1EF400948F
:103240000E94331957FD07D00E943B1907FC03D099
:103250004EF40C94331950954095309521953F4F7D
:103260004F4F5F4F089590958095709561957F4F72
:103270008F4F9F4F0895A1E21A2EAA1BBB1BFD0181
:103280000DC0AA1FBB1FEE1FFF1FA217B307E40745
:10329000F50720F0A21BB30BE40BF50B661F771F9D
:1032A000881F991F1A9469F760957095809590957D
:1032B0009B01AC01BD01CF010895A29FB001B39F56
:1032C000C001A39F700D811D1124911DB29F700D2F
:1032D000811D1124911D08955058BB27AA270E94D3
:1032E00084190C94F0190E94E21938F00E94E9192F
:1032F00020F039F49F3F19F426F40C94DF190EF4F2
:10330000E095E7FB0C94D919E92F0E94011A58F3B4
:10331000BA17620773078407950720F079F4A6F5BA
:103320000C94231A0EF4E0950B2EBA2FA02D0B014E
:10333000B90190010C01CA01A0011124FF27591BFA
:1033400099F0593F50F4503E68F11A16F040A22F00
:10335000232F342F4427585FF3CF46953795279571
:10336000A795F0405395C9F77EF41F16BA0B620B70
:10337000730B840BBAF09150A1F0FF0FBB1F661FB7
:10338000771F881FC2F70EC0BA0F621F731F841FFA
:1033900048F4879577956795B795F7959E3F08F020
:1033A000B0CF9395880F08F09927EE0F97958795E2
:1033B000089597F99F6780E870E060E008959FEFB7
:1033C00080EC089500240A941616170618060906BC
:1033D000089500240A94121613061406050608958B
:1033E000092E0394000C11F4882352F0BB0F40F413
:1033F000BF2B11F460FF04C06F5F7F4F8F4F9F4F53
:10340000089557FD9058440F551F59F05F3F71F0D4
:103410004795880F97FB991F61F09F3F79F087953B
:103420000895121613061406551FF2CF4695F1DFC4
:1034300008C0161617061806991FF1CF8695710554
:10344000610508940895E894BB2766277727CB0188
:1034500097F90895AA1BBB1B51E107C0AA1FBB1F08
:10346000A617B70710F0A61BB70B881F991F5A9510
:10347000A9F780959095BC01CD010895EE0FFF1F2F
:10348000881F8BBF0790F691E02D19940E945D195B
:10349000332312F48A1B9B0B0C94501A0E945D1963
:0E34A000B7FF0895821B930B0895F894FFCF99
:1034AE00050030405054535F4F535F56302E32302C
:1034BE005F64657600737065656475696E6F5F54E1
:1034CE00535F4F535F56302E32305F646576000087
:1034DE00000000B30213024002000371024F0263A8
:0634EE0002303031000045
:00000001FF
