:100000000C9497010C94C8010C94C8010C94C8017D
:100010000C94C8010C94C8010C94C8010C94C8013C
:100020000C94C8010C94C8010C94C8010C94C8012C
:100030000C94C8010C94BE120C94C8010C94C80115
:100040000C94C8010C94C8010C94C8010C94C8010C
:100050000C94C8010C94C8010C94C8010C9474123F
:100060000C94C8010C943E120C9414120C94C80108
:100070000C94C8010C94C8010C94C8010C94C801DC
:100080000C94C8010C94C8010C94C8010C94C801CC
:100090000C94C8010C94C8010C94C8010C94C801BC
:1000A0000C94C8010C94C8010C94C8010C94C801AC
:1000B0000C94C8010C94C8010C94C8010C94C8019C
:1000C0000C94C8010C94C8010C94C8010C94C8018C
:1000D0000C94C8010C94C8010C94DE110C94B4115A
:1000E0000C94C8010C9414090C94B40B0C940409DE
:1000F0000C94FA080C9410090C94ED0B0C94F00B72
:100100000C944C030C9402090C94740B0C940E097F
:100110000C94850B0C946A0B0C947F0B0C94A10B24
:100120000C947B0B0C94BC0B0C94E1020C94DC0B38
:100130000C94FC080C94DF0B0C945A030C94D6130B
:100140000C946E0B0C9461030C9408090C94AD0B89
:100150000C94FE080C945E030C94B80B0C948C0366
:100160000C94F4010C94E30B0C94500B0C940609C2
:100170000C946B030C9483030C94F6080C94750395
:100180000C9491030C940A090C94780B0C9487033B
:100190000C9412090C94660B0C94D40B0C9452031F
:1001A0000C9494020C94D80B0C948D030C94F80BC3
:1001B0000C94B00B0C94A90B0C94E70B0C940C0949
:1001C0000C94F40B0C94620B0C94EC0A0C94820BC0
:1001D0000C9430020C9467030C9452020C945E0B46
:1001E0000C94F8080C94710B0C9471030C94440259
:1001F0000C9400090C94A50B0C94EA0B0C94560378
:100200000C947F030C9479030C94210200002100CC
:10021000240027002A002D003000330001010000D7
:10022000040107010A0100002200250028002B001C
:100230002E003100340002010000050108010B010D
:10024000000020002300260029002C002F0032008F
:100250000001000003010601090105050505070568
:1002600008080808020202020A0A08080404040432
:10027000010101010101010103030303030303035E
:10028000040707070C0C0C0C0C0C0C0C02020202ED
:1002900006060606060606060B0B0B0B0B0B0B0BD6
:1002A0000102102020080810204010204080020188
:1002B000020108040201010204081020408080406D
:1002C000201008040201800402018040201008046C
:1002D000020108040201010204081020408001020A
:1002E00004081020408000000A0B02090C0D0E08C3
:1002F00007030401000000000000000000000000EF
:1003000000000000000000000000000000000000ED
:1003100000001211100000000000000000000000AA
:10032000000000000000000000000000D6131124AF
:100330001FBECFEFD1E2DEBFCDBF00E00CBF12E0A9
:10034000A0E0B2E0E6E8F4E300E00BBF02C00790F3
:100350000D92A634B107D9F72AE0A6E4B2E001C0B5
:100360001D92A934B207E1F711E0C7E9D1E000E03E
:1003700006C021970109802FFE010E942A1AC63962
:10038000D10780E00807A9F70E9437140C94411A9E
:100390000C9400008CBD9DBD0895FC01A089B1891D
:1003A00082E08C93A485B5851C92A685B78580E1F3
:1003B0008C93108EA489B58986E08C93A289B38929
:1003C0008C9180618C93A289B3898C9188608C9385
:1003D000A289B3898C9180688C930288F389E02D7F
:1003E00080818F7D80830895AF92BF92CF92DF92FC
:1003F000EF92FF920F931F93CF93DF936C017B01DA
:100400008B01040F151FEB015E01AE18BF08C0176A
:10041000D10759F06991D601ED91FC910190F081DD
:10042000E02DC6011995892B79F7C501DF91CF9190
:100430001F910F91FF90EF90DF90CF90BF90AF9002
:100440000895FC01538D448D252F30E0842F90E0DA
:10045000821B930B541710F0CF96089501970895BF
:10046000FC01918D828D981761F0A28DAE0FBF2F88
:10047000B11D5D968C91928D9F5F9F73928F90E0DE
:1004800008958FEF9FEF0895FC01918D828D98174D
:1004900031F0828DE80FF11D858D90E008958FEF8A
:1004A0009FEF0895FC01918D228D892F90E0805C53
:1004B0009F4F821B91098F739927089589EF98E0C8
:1004C0000E94520221E0892B09F420E0822F089536
:1004D00086E999E00E94520221E0892B09F420E08C
:1004E000822F0895FC01A48DA80FB92FB11DA35A26
:1004F000BF4F2C91848D90E001968F739927848F44
:10050000A689B7892C93A089B1898C918370806466
:100510008C93938D848D981306C00288F389E02D07
:1005200080818F7D80830895EF92FF920F931F93B8
:10053000CF93DF93EC0181E0888F9B8D8C8D981396
:100540001AC0E889F989808185FF15C09FB7F894A2
:10055000EE89FF896083E889F989808183708064EE
:1005600080839FBF81E090E0DF91CF911F910F9139
:10057000FF90EF900895F62E0B8D10E00F5F1F4F48
:100580000F731127E02E8C8D8E110CC00FB607FC57
:10059000FACFE889F989808185FFF5CFCE010E94E5
:1005A0007202F1CFEB8DEC0FFD2FF11DE35AFF4FDF
:1005B000F0829FB7F8940B8FEA89FB898081806273
:1005C000CFCFCF93DF93EC01888D8823B9F0AA8930
:1005D000BB89E889F9898C9185FD03C0808186FDFE
:1005E0000DC00FB607FCF7CF8C9185FFF2CF80814D
:1005F00085FFEDCFCE010E947202E9CFDF91CF914E
:10060000089580E090E0892B29F00E946802811112
:100610000E94000080E090E0892B49F080E090E0AB
:10062000892B29F00E94000081110E94000080E0C7
:1006300090E0892B49F080E090E0892B29F00E941E
:10064000000081110E94000080E090E0892B29F0D9
:100650000E945E0281110C94000008958150823145
:1006600008F05AC0E82FF0E08827E65CFC4F8F4F77
:100670000C942A1A5A035E034C03520356038C034C
:10068000610367036B037103750379037F038303BE
:100690008C0387038D039103809180008F77809373
:1006A00080000895809180008F7DF9CF8091800037
:1006B000877FF5CF84B58F7784BD089584B58F7D0E
:1006C000FBCF8091B0008F778093B0000895809128
:1006D000B0008F7DF9CF809190008F77809390004C
:1006E0000895809190008F7DF9CF80919000877F51
:1006F000F5CF8091A0008F778093A000089580911E
:10070000A0008F7DF9CF8091A000877FF5CF8091E9
:1007100020018F77809320010895809120018F7DA3
:10072000F9CF80912001877FF5CFCF93DF93282FDA
:1007300030E0F901EA51FD4F8491F901E056FD4F97
:10074000D491F901E65AFD4FC491CC23A1F0811157
:100750000E942E03EC2FF0E0EE0FFF1FE05CFD4F38
:10076000A591B491EC91ED2381E090E009F480E053
:10077000DF91CF91089580E090E0FACF1F93CF935F
:10078000DF93282F30E0F901EA51FD4F8491F90100
:10079000E056FD4FD491F901E65AFD4FC491CC23A8
:1007A000A9F0162F81110E942E03EC2FF0E0EE0F1E
:1007B000FF1FEA5DFD4FA591B4918FB7F894EC91BE
:1007C000111108C0D095DE23DC938FBFDF91CF914C
:1007D0001F910895DE2BF8CFCF93DF9390E0FC01BB
:1007E000E056FD4F2491865A9D4FFC018491882349
:1007F000D1F090E0880F991FFC01E45FFD4FA591B7
:10080000B491FC01EA5DFD4FC591D491623071F461
:100810009FB7F8943C91822F809583238C93E88135
:100820002E2B28839FBFDF91CF9108958FB7F89427
:10083000EC912E2B2C938FBFF6CF863308F0865386
:1008400020917B00982F9870277F922B90937B00AC
:100850008770806480937C0080917A0080648093AC
:100860007A0080917A0086FDFCCF8091780090918B
:10087000790008953FB7F89480916A0890916B08C9
:10088000A0916C08B0916D0826B5A89B05C02F3FBC
:1008900019F00196A11DB11D3FBFBA2FA92F982FA6
:1008A0008827BC01CD01620F711D811D911D42E0A1
:1008B000660F771F881F991F4A95D1F708950895ED
:1008C0008EBD00000DB407FEFDCF8EB508951F93B9
:1008D000CF93DF93182F80E591E00E94CA01C3E314
:1008E000DAE060E088890E94BE0383E00E94600431
:1008F000812F0E94600480E00E946004182F61E054
:1009000088890E94BE03812FDF91CF911F910895A6
:10091000FF920F931F93CF93DF93F82E062F142F80
:1009200080E591E00E94CA01C3E3DAE060E08889D3
:100930000E94BE0385E00E9460048F2D0E94600427
:10094000802F0E946004812F0E94600461E08889EA
:10095000DF91CF911F910F91FF900C94BE03CF9325
:10096000C82F482F60EE8FE00E9488048FE00E941D
:100970006704982F907E81E09C1301C080E0CF91A6
:1009800008950F931F93CF93DF93082F162F80E5C1
:1009900091E00E94CA01C3E3DAE060E088890E9426
:1009A000BE0382E00E946004802F0E946004812FB9
:1009B0000E94600461E08889DF91CF911F910F91BF
:1009C0000C94BE03FF920F931F93CF93DF93C82F16
:1009D000F62E172F042F80E591E00E94CA0160E0F7
:1009E0008091430A0E94BE0382E00E9460048C2F23
:1009F0000E946004CF2DD12F0C0F1D2F111DC01789
:100A0000D10721F089910E946004F9CF61E08091C3
:100A1000430ADF91CF911F910F91FF900C94BE0379
:100A2000CF93DF9300D01F92CDB7DEB71C821B821D
:100A3000613081F498E09A83198244E0BE016F5FCF
:100A40007F4F0E94E2040F900F900F900F90DF9164
:100A5000CF9108951A82F0CF4F925F926F928F924A
:100A60009F92AF92BF92CF92DF92FF920F931F930C
:100A7000CF93DF9300D01F92CDB7DEB7B0E0A0E0F8
:100A80008093340A9093350AA093360AB093370ABC
:100A90001092410A1092330A88E08093380AFB01D1
:100AA000A9E3BAE0CB01089621912D93E817F90745
:100AB000D9F7B12CA12C4090020250900302609013
:100AC00004024E0184E0880E911C49825A826B8296
:100AD000FE0131966F01FE2E0D2DF60111916F0171
:100AE000812F0E94670483FD1FC01F5F80E0FFEF1E
:100AF000AF1ABF0A8230F1F482E3A816B10429F7D5
:100B000086E090E09093E9088093E8088091B60829
:100B100080618093B6088091B2088F3F09F480C04D
:100B20008F5F8093B2087CC08C149D04B1F610E0F6
:100B300082E0DDCF92E3A916B10411F34091380AA7
:100B400069E37AE085E0810F0E94E2048091410A26
:100B5000813029F48091380A80648093380A60914A
:100B6000380A84E0810F0E94C1044091340A5091F8
:100B7000350A6091360A7091370A8091330A8130C4
:100B800091F54C835B83AB0166277727842F8370B5
:100B90008860942F990F990F990F907E892B8A83E3
:100BA00065E0569547956A95E1F7498344E06F2DD6
:100BB000702F812F0E94E204115048E068E0812FDD
:100BC0000E948804D12CC12CEFEFCE1ADE0A812FAF
:100BD0000E94670483FF15C0F2E3CF16D104A1F78A
:100BE00087E090E08FCFCA0123E0969587952A95FC
:100BF000E1F789834295440F407E4A831C821B8221
:100C0000D5CF8091B60892E3C916D10449F310926A
:100C1000E9081092E8088D7E8093B6081092B20819
:100C20008091B208833328F08091B6088260809367
:100C3000B6080F900F900F900F90DF91CF911F91FA
:100C40000F91FF90DF90CF90BF90AF909F908F90CB
:100C50006F905F904F900895FF920F931F93CF93E3
:100C6000DF93C82FF62E172F042F80E591E00E9406
:100C7000CA0160E08091430A0E94BE0383E00E94A3
:100C800060048C2F0E946004CF2DD12F0C0F1D2FDC
:100C9000111DC017D10729F080E00E9460048993DC
:100CA000F8CF61E08091430ADF91CF911F910F91BE
:100CB000FF900C94BE030F931F93CF93DF9300D04C
:100CC0001F92CDB7DEB7182F1092330A1092340A54
:100CD0001092350A1092360A1092370A44E0BE018B
:100CE0006F5F7F4F0E942C062A81898138E0839FA5
:100CF000C0011124422F50E065E0559547956A9553
:100D0000E1F7840F951F092E000CAA0BBB0B8093F3
:100D1000340A9093350AA093360AB093370A23FF1A
:100D200029C032E0880F991FAA1FBB1F3A95D1F73F
:100D30002370820F911DA11DB11DBA2FA92F982FCD
:100D400088272B81820F911DA11DB11DBA2FA92FBC
:100D5000982F88272C81820F911DA11DB11D809392
:100D6000340A9093350AA093360AB093370A81E08B
:100D70008093330A8FEF810F0E946704082F84E06D
:100D8000810F0E94670403FF16C091E09093410A0F
:100D9000482F4F704093380A69E37AE085E0810F6D
:100DA0000E942C060F900F900F900F90DF91CF9123
:100DB0001F910F9108951092410AEACFDF92EF92AE
:100DC000FF920F931F93CF93DF93D82E162F042FEC
:100DD000C82FD0E02FE0281708F47FC08091630867
:100DE000909164080D2C02C0969587950A94E2F7BD
:100DF00080FF4AC0C0916108D0916208CE010D2CDD
:100E000002C0969587950A94E2F780FF02C04423BA
:100E100019F1612F8D2D0E94BE0381E090E0A0E0CA
:100E2000B0E004C0880F991FAA1FBB1FDA94D2F745
:100E300020915F08309160081123B9F0282B392BDD
:100E40003093600820935F080023A9F08C2B9D2B22
:100E5000909362088093610880E0DF91CF911F91A9
:100E60000F91FF90EF90DF900895AC014095509561
:100E700024233523E5CF80959095C823D923D0939B
:100E80006208C0936108E8CF413031F781E090E01B
:100E9000A0E0B0E004C0880F991FAA1FBB1FDA941E
:100EA000D2F72091610830916208282B392B3093BA
:100EB00062082093610820915F08309160086623E2
:100EC00039F0822B932B9093600880935F08C4CFF6
:100ED0008095909582239323F6CF8FE18D1508F4AA
:100EE00076C0609780915D0890915E080C2E02C0DC
:100EF000969587950A94E2F780FF3FC0E0905B08E3
:100F0000F0905C08C7010C2E02C0969587950A9454
:100F1000E2F780FF03C0442309F49ECF612F8D2D9B
:100F20000E94BE0381E090E0A0E0B0E004C0880F22
:100F3000991FAA1FBB1FCA95D2F72091590830915B
:100F40005A08112379F0282B392B30935A08209313
:100F50005908002369F0E82AF92AF0925C08E09227
:100F60005B087ACFAC014095509524233523EDCF13
:100F700080959095E822F922F0CF413009F06CCFAE
:100F800081E090E0A0E0B0E004C0880F991FAA1FA4
:100F9000BB1FCA95D2F720915B0830915C08282BC3
:100FA000392B30935C0820935B08209159083091CD
:100FB0005A08662339F0822B932B90935A0880931A
:100FC00059084ACF8095909582239323F6CF8FE2DC
:100FD0008D1508F476C0A097809157089091580815
:100FE0000C2E02C0969587950A94E2F780FF3FC0C9
:100FF000E0905508F0905608C7010C2E02C0969557
:1010000087950A94E2F780FF03C0442309F424CFB4
:10101000612F8D2D0E94BE0381E090E0A0E0B0E042
:1010200004C0880F991FAA1FBB1FCA95D2F7209131
:10103000530830915408112379F0282B392B309321
:10104000540820935308002369F0E82AF92AF09203
:101050005608E092550800CFAC01409550952423E6
:101060003523EDCF80959095E822F922F0CF4130DD
:1010700009F0F2CE81E090E0A0E0B0E004C0880F7B
:10108000991FAA1FBB1FCA95D2F72091550830910E
:101090005608282B392B3093560820935508209159
:1010A000530830915408662339F0822B932B909388
:1010B000540880935308D0CE809590958223932333
:1010C000F6CFE09780915108909152080C2E02C003
:1010D000969587950A94E2F780FF43C0E0904F0809
:1010E000F0905008C7010C2E02C0969587950A947F
:1010F000E2F780FF03C0442309F4AECE612F8D2DAB
:101100000E94BE0381E090E0A0E0B0E004C0880F40
:10111000991FAA1FBB1FCA95D2F720914D08309185
:101120004E08112379F0282B392B30934E08209349
:101130004D08002369F08E299F29909350088093D1
:101140004F088ACEAC014095509524233523EDCF2E
:1011500080959095E822F922F0925008E0924F088D
:101160007BCE413009F078CE81E090E0A0E0B0E0A5
:1011700004C0880F991FAA1FBB1FCA95D2F72091E0
:101180004F0830915008282B392B3093500820936A
:101190004F0820914D0830914E08662339F0822B7C
:1011A000932B90934E0880934D0856CE8095909542
:1011B00082239323F6CF803108F037C0E82FF0E088
:1011C0008827EA51F74F8F4F0C942A1AF608F8082F
:1011D000FA08FC08FE0800090209040906090809C2
:1011E0000A090C090E0910091209140986E3089569
:1011F00087E3089588E3089589E308958AE30895CD
:101200008BE308958CE308958DE308958EE30895AC
:101210008FE3089580E4089581E4089582E40895B9
:1012200083E4089584E4089585E40895EF92FF929D
:101230001F93CF93DF93182FC82FD0E0803108F091
:101240005DC0C0915F08D091600880916108909165
:101250006208012E02C0969587950A94E2F780FFF6
:1012600008C0CE0102C0969587951A95E2F7817065
:1012700016C0812F0E94950341E050E060E070E0CD
:1012800004C0440F551F661F771F1A95D2F7882395
:1012900061F14C2B5D2B5093600840935F082091C7
:1012A0005F08309160083093C1082093C0082091F6
:1012B000590830915A083093C3082093C2082091EE
:1012C0005308309154083093C5082093C4082091E6
:1012D0004D0830914E083093C7082093C608DF911F
:1012E000CF911F91FF90EF90089540955095C423A2
:1012F000D523D0936008C0935F08D1CF8032A8F582
:10130000E0905908F0905A08609780915B0890919E
:101310005C082C2F0C2E02C0969587950A94E2F754
:1013200080FF07C0C70102C0969587952A95E2F70E
:101330009ECF812F0E94950341E050E060E070E075
:1013400004C0440F551F661F771FCA95D2F7882324
:1013500039F0E42AF52AF0925A08E09259089FCF12
:1013600040955095E422F522F6CF803370F5E09059
:101370005308F0905408A097809155089091560812
:101380002C2F0C2E02C0969587950A94E2F780FDCB
:10139000C9CF812F0E94950341E050E060E070E0EA
:1013A00004C0440F551F661F771FCA95D2F78823C4
:1013B00039F0E42AF52AF0925408E09253086FCFEE
:1013C00040955095E422F522F6CFE0904D08F0903C
:1013D0004E08E09780914F08909150082C2F0C2ECA
:1013E00002C0969587950A94E2F780FD9BCF812FE6
:1013F0000E94950341E050E060E070E004C0440FBB
:10140000551F661F771FCA95D2F7882339F0E42A43
:10141000F52AF0924E08E0924D0841CF4095509544
:10142000E422F522F6CF20914B022330D1F028F4AC
:10143000213041F0223071F008952430C9F0253078
:10144000F1F008958038910520F48B56974FFC01F8
:10145000608308958637F1E09F07D8F78F58974F3C
:10146000F6CF8115F2E09F07A0F7845B994FEFCF8D
:101470008115F2E09F0768F7845B9B4FE8CF8115E9
:10148000F2E09F0730F7845B9D4FE1CF0F931F93EE
:10149000CF93DF9361157105C9F0EB0167347105D6
:1014A00010F0C6E4D0E08C010D54174FC80FD91FBF
:1014B000C801835B98408C179D0740F4F801619147
:1014C0008F0186E999E00E949402F2CFDF91CF91DB
:1014D0001F910F9108951F93CF93DF93E0919C0884
:1014E000E0FF89C1DE2FD295D695D370CE2FC69559
:1014F000CF701FB7F89480914602811127C0EFE8A2
:10150000F2E08491E5EDF2E09491E82FF0E0EE0F47
:10151000FF1FE45FFD4FA591B491EC91E92321F405
:1015200061E085E30E94BE0361E085E30E94EC0375
:101530008CB580618CBD8CB580648CBD61E084E32A
:101540000E94EC0361E083E30E94EC038091460279
:101550008F5F809346021FBF80E591E00E94CA0121
:1015600060E08091430A0E94BE0380EC0E94600408
:1015700061E08091430A0E94BE0383E290E00197FC
:10158000F1F780E48093440A80E80E94AF04682F5A
:1015900081113CC1D13009F4BBC008F4F0C0D23095
:1015A00009F07EC0C150CE3008F07AC0EC2FF0E0D8
:1015B0008827E252F54F8F4F0C942A1AF00BEC0A51
:1015C0005E0B620B660B6A0B6E0B710B740B780B68
:1015D0007B0B7F0B820B850BC4E8D6EF63E98AE2B5
:1015E0000E94C1046D2F89E20E94C1046C2F88E221
:1015F0000E94C10461E080E20E94100561E084E283
:101600000E94100561E080E00E94100560E084E027
:101610000E94100561E088E00E94100560E080E112
:101620000E94100561E084E10E94100560E088E1FD
:101630000E941005C0E360E08C2F0E94C10460E0AE
:1016400080E18C0F0E94C10460E080E28C0F0E9458
:10165000C104CF5FCE3379F760E080E60E94C10419
:1016600060E080E70E94C10463E08BE20E94C10455
:101670006CE38CE00E94C10460E08DE00E94C10434
:1016800044E664E680E60E94880440E660E680E77F
:101690000E9488048091440A0E94AF048111B6C060
:1016A0001092440A80E00E94AF048091B608109224
:1016B000B2088D7F81608093B608A4C0C4E8D6EFDD
:1016C00069E88DCFC3E8D5EE67E889CFC4E8D6EFE7
:1016D00065E885CFC4E8D6EF64E881CFC3E8D5EEEE
:1016E000FBCFC1E8D3EDF8CFC4E8D6EF61E877CF00
:1016F000C3E8D5EEFBCFC4E8D6EF60E870CFC3E80F
:10170000D5EEFBCFC1E8D1ED6ACFC0E8D0EC67CF12
:10171000C150CE3028F6EC2FF0E08827ED56F44F7C
:101720008F4F0C942A1AF40BA10BA50B500BA90B8D
:10173000DF0BAD0BDC0BD80BB00BF80BB40BB80BFD
:10174000BC0BC4E8D6EF67E64ACFC4E8D6EF63E542
:1017500046CFC3E8D5EE6EE442CFC4E8D6EF3FCF24
:10176000C3E8D5EE63E43BCFC3E8D5EE61E437CF01
:10177000C3E8D5EE60E433CFC1E8DAEC30CFC65031
:10178000C93008F08DCFEC2FF0E08827E553F44FF7
:101790008F4F0C942A1AE30BDF0BD40BDC0BD80B06
:1017A000E70BF80BEA0BED0BC7E8DFEF64EC17CFA4
:1017B000C3E8D5EE64E413CFC4E8D6EFFBCFC4E8AA
:1017C000D6EF69E40CCFC1E8D3ED68E108CFC1E8FA
:1017D000D3EDF0CFC4E8D6EFCDCFC2E8D9EDFFCE40
:1017E000C4E8D6EF67EAFBCEC7E8DFEF6FE3F7CEDA
:1017F000C4E8D6EFBBCF8091B6088C7F8093B60843
:101800001092B208DF91CF911F9108958091B60890
:101810008E7F51CFCF92DF92EF92FF920F931F9363
:10182000CF93DF93EB017B012EEFF21A8B016C015A
:10183000C61AD70AC601800F911F0E944318F801EB
:1018400081938F01EE15FF05A9F7CE01DF91CF91AE
:101850001F910F91FF90EF90DF90CF9008950F931D
:101860001F93CF93DF9305E918E0CAE0D0E0CE01E3
:101870000E944318F80181938F012196C631D1054A
:10188000B1F701E718E0CAE8D0E0CE010E944318A2
:10189000F80181938F012196CB3AD105B1F76CE421
:1018A00076E080E092E00E940A0C6CE474E080E054
:1018B00094E00E940A0C6CE472E080E096E00E94E2
:1018C0000A0C8091B40880688093B408DF91CF91AE
:1018D0001F910F910895FF920F931F93CF93DF9362
:1018E000EC01F62E08811981C8010E944318F816F0
:1018F00021F06F2DC8010E944B18CE01DF91CF91CE
:101900001F910F91FF900895AF92BF92CF92DF92F7
:10191000EF92FF920F931F93CF93DF931F921F922B
:10192000CDB7DEB78B016B012EEFD21A7B015C01C4
:10193000A61AB70AC5018E0D9F1D9A838983F701E8
:1019400061917F01CE0101960E946B0CEC14FD04A5
:1019500089F7C8010F900F90DF91CF911F910F91E0
:10196000FF90EF90DF90CF90BF90AF900895EF92EF
:10197000FF920F931F93CF93DF931F921F92CDB7C8
:10198000DEB7182F90E080E00E944318823029F0E3
:1019900062E090E080E00E944B18133009F448C0E8
:1019A00090F41130D9F0123071F18091B408806850
:1019B0008093B4080F900F90DF91CF911F910F91FA
:1019C000FF90EF9008951430D1F1153071F76CE469
:1019D00072E080E096E00E94840CE7CF95E9E92E62
:1019E00098E0F92E0AE010E01A830983F70161916B
:1019F0007F01CE0101960E946B0C0F5F1F4F0631D5
:101A0000110591F7D2CF81E7E82E88E0F82E0AE899
:101A100010E01A830983F70161917F01CE010196DD
:101A20000E946B0C0F5F1F4F0B3A110591F7BDCF52
:101A30006CE476E080E092E00E94840CB6CF6CE427
:101A400074E080E094E00E94840CAFCFCF93DF93EA
:101A50001092B4080E942F0C109262081092610834
:101A600010925C0810925B0810925608109255086C
:101A70001092500810924F0810925E0810925D0864
:101A8000109258081092570810925208109251085C
:101A900061E08DE00E94EC0380E090E290936408A6
:101AA00080936308C0919D08CF7301F1C53308F09E
:101AB000C75FC093B008CA33C8F462E08C2F0E949D
:101AC000EC03C03198F481E090E0A0E0B0E004C005
:101AD000880F991FAA1FBB1FCA95D2F780959095B2
:101AE00088279072909364088093630880919E0881
:101AF00084FF03C08F708093700880917A008460A7
:101B000080937A0080917A008D7F80937A00809113
:101B10007A008E7F80937A000E946B0A86E480931D
:101B20009B088CE090E09093960880939508109223
:101B30009708109298081092990810929A0881E0DC
:101B40000E94B70C81E290E0909372088093710834
:101B5000109273081092740810927508109276080B
:101B600082E00E94B70CC0E0D2E0D0934D06C09353
:101B70004C0610924E0610924F061092500610928C
:101B8000510683E00E94B70CD0934D04C0934C04DF
:101B900010924E0410924F0410925004109251046F
:101BA00084E00E94B70CD0934D02C0934C02109277
:101BB0004E0210924F02109250021092510285E094
:101BC0000E94B70C86E999E00E94CD0189EF98E068
:101BD0000E94CD011092AF081092AE081092B30887
:101BE0008091B40881608093B4081092B000109284
:101BF000B10082E0809370009CE79093B3008093E3
:101C0000B0001092B2008DE08093B10087E087BBF6
:101C100088E198E20FB6F894A895809360000FBE13
:101C200090936000DF91CF910895CF92DF92EF9271
:101C3000FF920F931F93CF93DF931F921F92CDB705
:101C4000DEB780914B02833009F448C030F5813013
:101C500091F18230C9F18091490290914A029C0130
:101C60002E0D3F1D2C153D0508F04CC0F99953C0B1
:101C7000800F912F911DFC0160813A832983CE0151
:101C800001960E946B0C8091490290914A02019644
:101C900090934A0280934902DECF843049F1853027
:101CA000D1F60CE412E0CC24CA9487E0D82EE12CC3
:101CB00096E0F92ED0CF05E918E0EAE8CE2ED12C37
:101CC000FAE0EF2EF12CC7CF01E718E0CC24CA943C
:101CD000DD24D3947AE8E72EF12CBDCF0CE416E096
:101CE000CC24CA9443E0D42EE12C52E0F52EB3CF9D
:101CF0000CE414E0CC24CA9425E0D22EE12C34E08C
:101D0000F32EA9CF8091B40880688093B408109214
:101D10004A02109249020F900F90DF91CF911F91CC
:101D20000F91FF90EF90DF90CF9008958F929F9248
:101D3000AF92BF92CF92DF92EF92FF920F931F93D9
:101D4000CF93DF931F921F92CDB7DEB7811521E0AD
:101D5000920721F58091BF088D7F8093BF08109274
:101D600062081092610810925C0810925B08109251
:101D70005608109255081092500810924F080F9074
:101D80000F90DF91CF911F910F91FF90EF90DF9017
:101D9000CF90BF90AF909F908F900895813098071B
:101DA00051F480919E0885FFEACF8091BF08826040
:101DB0008093BF08E4CF823021E0920709F04CC045
:101DC00080919E0886FFDBCFF8940FB6F894A89513
:101DD00080916000886180936000109260000FBE67
:101DE00040E060E08DE00E94DE0610E000E01A8333
:101DF000098360E0CE0101960E946B0C0F5F1F4FBC
:101E0000011580E1180799F70E942F0C0E943A04EF
:101E10004B015C0180E1C82E87E2D82EE12CF12C29
:101E20000E943A04681979098A099B09683E73403F
:101E300081059105A8F321E0C21AD108E108F10853
:101E400088EE880E83E0981EA11CB11CC114D10439
:101E5000E104F10429F7DACF833021E0920749F455
:101E600080919E0885FF8BCFF8940E94260D789470
:101E700086CF9C01215032402034310568F42091F6
:101E8000BF0821FF7CCF815041E061E08A3308F038
:101E900076CF0E94DE0673CF9C0121503340203460
:101EA000310508F06CCF2091BF0821FF68CF815029
:101EB0008A3308F064CF41E060E0EBCF9F92AF92AD
:101EC000BF92CF92DF92EF92FF920F931F93CF9327
:101ED000DF93CDB7DEB7ADB6BEB6809148028111B3
:101EE00006C086E999E00E943002809347029091F3
:101EF0004702903509F4B7C030F5923409F483C035
:101F0000A0F4913409F46AC00FB6F894BEBE0FBEB7
:101F1000ADBEDF91CF911F910F91FF90EF90DF90B9
:101F2000CF90BF90AF909F900895953409F47FC0F3
:101F3000963451F743E050E061E472E086E999E0BD
:101F40000E94F401E1CF963509F4ACC0A8F49135B4
:101F500009F49AC005E012E09335B1F6F8016191F9
:101F60008F0186E999E00E9494021092B308F2E092
:101F700004311F0799F7C8CF973509F407C1923785
:101F800019F686E999E00E94520206970CF4E8C11E
:101F900086E999E00E943002982E86E999E00E9435
:101FA0003002F82E86E999E00E943002E82E86E998
:101FB00099E00E94300200E0182F0E2986E999E08E
:101FC0000E943002E82E97E5F91209C1E4E09E1262
:101FD00051C16E2DC8010E94130A4CC160919B082B
:101FE00070E090E080E00E94460A80919208909113
:101FF00093088F3F980709F487CF01969093930831
:102000008093920881CF86E999E00E945202892B41
:10201000D1F386E999E00E94300280934B029091BF
:10202000B4089F779093B4080E94B70C6DCF86E9EF
:1020300099E00E945202892BD1F386E999E00E942F
:102040003002182F86E999E00E945202892BD1F3C1
:1020500086E999E00E94300220E0382FC901812BE7
:102060000E94960E51CF86E999E00E945202892B78
:10207000D1F386E999E00E943002803318F480930E
:102080004B0242CF8053FBCF05E112E0F801619192
:102090008F0186E999E00E949402F2E00E321F0758
:1020A000A9F732CF86E999E00E945202892BD1F339
:1020B00086E999E00E943002F82E86E999E00E94B4
:1020C0005202892BD1F386E999E00E943002E0E0C8
:1020D000F82FCF018F297C0186E999E00E945202F6
:1020E000892BD1F386E999E00E943002D82E86E947
:1020F00099E00E945202892BD1F386E999E00E946F
:10210000300240E0582F4D2980914B02833071F10D
:1021100000F5813029F1823031F1CDB6DEB6EDB770
:10212000FEB7E41BF50B0FB6F894FEBF0FBEEDBF74
:102130006DB77EB76F5F7F4FF801EE0DFF1DDB01BE
:102140009B01240F351F2A173B07B1F081918D9316
:10215000FACF843071F0853001F70CE412E0DDCF66
:1021600005E918E0DACF01E718E0D7CF0CE416E074
:10217000D4CF0CE414E0D1CF86E999E00E94F401B9
:102180000FB6F894DEBE0FBECDBEBECE86E999E096
:102190000E945202892BD1F386E999E00E94300215
:1021A000182F86E999E00E945202892BD1F386E923
:1021B00099E00E94300220E0382FC901812B8C0168
:1021C00086E999E00E945202892BD1F386E999E0D1
:1021D0000E943002682FC8010E94130A95CE86E93A
:1021E00099E00E943002F4E09F1244C040E0582F72
:1021F0004E2922E4F21609F451C02F15E0F08FE0C9
:10220000F81641F19CE3F916C1F1EEE0FE1232C07E
:1022100005E012E074E1E72E72E0F72EF80161911B
:102220008F0186E999E00E9494021092B308E016AB
:10223000F106A1F71FC0F0E5FF1609F442C026E53C
:10224000F21609F441C085E4F81214C0C8010E94D6
:10225000960E10C005E112E0EEE2EE2EE2E0FE2E58
:10226000F80161918F0186E999E00E949402E016DD
:10227000F106B1F71092480247CEBA01C8010E9498
:10228000460A80919208909193088F3F980791F3A6
:1022900001969093930880939208ECCF8091B408B4
:1022A00087FD07C08091B40887FD03C00E94150E0A
:1022B000F9CF00934B028091B4088F778093B408D4
:1022C000D9CF00934B02D6CF80914B028330A1F13E
:1022D00000F5813039F1823051F1EDB6FEB68DB79F
:1022E0009EB7841B950B0FB6F8949EBF0FBE8DBF93
:1022F0006DB77EB76F5F7F4FF601E00FF11FDB0117
:102300009B01240F351FA217B30701F181918D9313
:10231000FACF8430B1F0853001F78CE4C82E82E02A
:10232000D82EDBCF65E9C62E68E0D62ED6CF31E7B2
:10233000C32E38E0D32ED1CF2CE4C22E26E0D22EED
:10234000CCCF9CE4C92E94E0D92EC7CF86E999E082
:102350000E94F4010FB6F894FEBE0FBEEDBE8ACF08
:1023600081E080934802D0CD1F920F920FB60F925A
:1023700011240BB60F922F933F934F935F936F935C
:102380007F938F939F93AF93BF93EF93FF9389EFC7
:1023900098E00E947202FF91EF91BF91AF919F91DF
:1023A0008F917F916F915F914F913F912F910F90FE
:1023B0000BBE0F900FBE0F901F9018951F920F929B
:1023C0000FB60F9211240BB60F922F938F939F93FA
:1023D000EF93FF93E0910909F0910A098081E09160
:1023E0000F09F091100982FD1DC0908180911209A2
:1023F0008F5F8F7320911309821741F0E0911209CA
:10240000F0E0E750F74F958F80931209FF91EF911D
:102410009F918F912F910F900BBE0F900FBE0F9039
:102420001F9018958081F2CF1F920F920FB60F92D6
:1024300011240BB60F922F933F934F935F936F939B
:102440007F938F939F93AF93BF93EF93FF9386E90F
:1024500099E00E947202FF91EF91BF91AF919F911D
:102460008F917F916F915F914F913F912F910F903D
:102470000BBE0F900FBE0F901F9018951F920F92DA
:102480000FB60F9211240BB60F922F938F939F9339
:10249000EF93FF93E091A609F091A7098081E09165
:1024A000AC09F091AD0982FD1DC090818091AF090A
:1024B0008F5F8F732091B009821741F0E091AF09CF
:1024C000F0E0EA56F64F958F8093AF09FF91EF91B8
:1024D0009F918F912F910F900BBE0F900FBE0F9079
:1024E0001F9018958081F2CF1F920F920FB60F9216
:1024F00011242F933F938F939F93AF93BF9380911A
:10250000660890916708A0916808B09169083091B9
:10251000650823E0230F2D3758F50196A11DB11D45
:10252000209365088093660890936708A0936808D5
:10253000B093690880916A0890916B08A0916C082B
:10254000B0916D080196A11DB11D80936A0890930A
:102550006B08A0936C08B0936D08BF91AF919F91E9
:102560008F913F912F910F900FBE0F901F90189554
:1025700026E8230F0296A11DB11DD2CF78941F9299
:102580000F920FB60F9211242F935F936F937F9347
:102590008F939F93AF93BF9380910002909101021C
:1025A00065E070E00E94161A892B71F48091B108E1
:1025B00087FF05C080916F08806880936F088091C5
:1025C000B10880688093B108809100029091010267
:1025D00064E170E00E94161A019771F48091B108CD
:1025E00086FF05C080916F08806480936F0880919A
:1025F000B10880648093B10880910002909101023B
:1026000062E370E00E94161A029771F48091B1089B
:1026100085FF05C080916F08806280936F0880916C
:10262000B10880628093B10880910002909101020C
:102630006BE470E00E94161A029771F48091B10861
:1026400084FF05C080916F08806180936F0880913E
:10265000B10880618093B1088091000290910102DD
:1026600064E670E00E94161A039771F48091B10835
:1026700083FF05C080916F08886080936F08809108
:10268000B10888608093B1088091000290910102A6
:102690006AEF70E00E94161A049771F48091B108F5
:1026A00082FF05C080916F08846080936F088091DD
:1026B000B10884608093B10880910002909101027A
:1026C00064EF71E00E94161A049771F48091B108CA
:1026D00081FF05C080916F08826080936F088091B0
:1026E000B10882608093B10880910002909101024C
:1026F00068EE73E00E94161A049789F58091B1087C
:1027000080FF05C080916F08816080936F08809181
:10271000B10881608093B10880914C08823028F024
:1027200010926F0810924C0809C080916F0888239E
:10273000C9F380914C088F5F80934C088091AE085C
:102740009091AF089093BA088093B9081092AF089F
:102750001092AE088091B3088F5F8093B308809188
:10276000000290910102873E9340B0F01092010266
:102770001092000280916F088093B50817BABF913C
:10278000AF919F918F917F916F915F912F910F905A
:102790000FBE0F901F90189580910002909101023A
:1027A00001969093010280930002E4CFCF93DF93D0
:1027B000E9EFF8E01382128248EE53E060E070E047
:1027C000448355836683778383E392E09183808398
:1027D00025E331E03587248724E331E037872687F6
:1027E00020E331E0318B208B21E331E0338B228BEE
:1027F00022E331E0358B248B26E331E0378B268BC7
:10280000118E128E138E148EE6E9F9E01382128275
:1028100044835583668377839183808385EC90E03E
:102820009587848784EC90E09787868780EC90E09A
:10283000918B808B81EC90E0938B828B82EC90E08B
:10284000958B848B86EC90E0978B868B118E128E05
:10285000138E148EC3E3DAE085E3888B61E00E9477
:10286000BE0361E08889DF91CF910C94EC03CF9394
:10287000DF93CDB7DEB72E970FB6F894DEBF0FBE4D
:10288000CDBF789484B5826084BD84B5816084BDF9
:1028900085B5826085BD85B5816085BD80916E00FE
:1028A000816080936E00109281008091810082602F
:1028B000809381008091810081608093810080916C
:1028C00080008160809380008091B100846080935B
:1028D000B1008091B00081608093B0008091910040
:1028E000826080939100809191008160809391003B
:1028F000809190008160809390008091A10082601F
:102900008093A1008091A10081608093A1008091BB
:10291000A00081608093A00080912101826080935B
:10292000210180912101816080932101809120010A
:1029300081608093200180917A00846080937A0086
:1029400080917A00826080937A0080917A00816021
:1029500080937A0080917A00806880937A00109248
:10296000C1000E94260DF8E0EF2E8E010F5F1F4F71
:10297000212C332433948091B108F12C87FF1EC0A1
:10298000A89580919C0880FF12C08091B60880FFB6
:102990000EC081FD0CC0D801EE2D1D92EA95E9F71D
:1029A000F5E0F887B80180E095E00E942C05809161
:1029B000B1088F778093B108FF24F3948091B10818
:1029C00086FF1CC0F39480919C0880FF12C0809108
:1029D000B60880FF0EC081FD0CC0D801EE2D1D92FF
:1029E000EA95E9F7F4E1F887B80181E095E00E9403
:1029F0002C058091B1088F7B8093B1088091B1083C
:102A000085FF1CC0F39480919C0880FF12C08091C8
:102A1000B60880FF0EC081FD0CC0D801EE2D1D92BE
:102A2000EA95E9F7F2E3F887B80182E095E00E94C1
:102A30002C058091B1088F7D8093B1088091B108F9
:102A400084FF06C0F3948091B1088F7E8093B10813
:102A50008091B10883FF35C1F39480919C0880FF79
:102A600012C08091B60880FF0EC081FD0CC0D80155
:102A7000EE2D1D92EA95E9F7F4E6F887B80183E0B8
:102A800095E00E942C058091B7089091B80820919C
:102A90009F083091A008232B09F44AC02091940884
:102AA0002F3F19F02F5F20939408209194082B302A
:102AB00068F081609093B8088093B7081092F50889
:102AC0001092F6081092F7081092F8088091B60854
:102AD0002091B7083091B808232B91F1806480933E
:102AE000B6088091450A9091460A009711F489E44E
:102AF0009AE09801281B390BC9013093BE08209336
:102B0000BD0820916F0821111DC0843F9140D0F075
:102B10008091B9089091BA08883C910598F080910D
:102B20006E08843108F058C18F5F80936E0811C021
:102B3000109294088E7F9093B8088093B708C6CF00
:102B40008F7BCDCF8091B40882608093B4081092BF
:102B50006E0820918E0830918F0840919008509116
:102B6000910860918A0870918B0880918C089091EF
:102B70008D080E94AA186093F0087093F108809362
:102B8000F2089093F308209187088091770890913C
:102B90007808981708F026C1281708F463C1209117
:102BA0007F0830E03093EF082093EE08712C872DDA
:102BB0000E941609739424E37212F9CFE8EC6E2E8A
:102BC000E8E07E2E512C852D0E94DB08482E0E94C5
:102BD0001D04842D0E941D04D3018D939D933D01FE
:102BE0005394B0E15B12EFCF80919E0884FF1CC02C
:102BF00070907008EFE090E080E0E71588F0872D96
:102C00000E94DB08682E0E941D04862D0E941D0470
:102C1000E72DF0E0EE0FFF1FED54F74F968B858BFD
:102C20009093ED088093EC085091F408452E512CB8
:102C3000712C612C409188082091C8083091C908F6
:102C400036952795369527954901B12CA12C481426
:102C500059046A047B0471F1442361F1D101A41B7E
:102C6000B1090E943A1A6A877B878C879D87E52F76
:102C7000F0E09F01A42FB0E00E949A182A853B85BE
:102C80004C855D85260F371F481F591FDA01C90182
:102C9000892F9A2FAB2FBB279C018E179F0751F4CA
:102CA0002F5F3F4F481459046A047B0418F09C01BD
:102CB000215031092093F4088091B108877F8093D7
:102CC000B1088091B10882FF06C0F3948091B108E9
:102CD0008B7F8093B1088091B10881FF27C0F39466
:102CE00080919C0880FF12C08091B60880FF0EC0C2
:102CF00081FD0CC0D801EE2D1D92EA95E9F7F5E0B3
:102D0000FF83B80184E095E00E942C058DE00E94CD
:102D1000160940E060E0813009F061E08DE00E943A
:102D2000DE068091B1088D7F8093B1088091B10853
:102D300080FFC5C080919C0880FF06C08091B608C6
:102D400080FDB0C00E946B0A80919C0880FF12C079
:102D50008091B60880FF0EC081FD0CC0D801EE2D19
:102D60001D92EA95E9F7F7E0FF83B80185E095E069
:102D70000E942C0580919208909193089093BC0832
:102D80008093BB0810929308109292088091B1082A
:102D90008E7F8093B10889EF98E00E94520286E905
:102DA00099E00E945202819714F00E945E0F809178
:102DB000B40887FF0E94150E8091AE089091AF086D
:102DC0008091AE089091AF0801969093AF088093E0
:102DD000AE080E940103CFCD8091B4088D7F80930F
:102DE000B408B7CE821708F0DACE80917E08281793
:102DF00018F020918608D5CEE8E7F8E081E090E071
:102E0000C1902C1550F5AC0141505109FA01E95817
:102E1000F74FD0804158574FDA01BC91B98781589C
:102E2000974FFC01F081FE874D2D50E030E0241BD0
:102E3000350B8E85E9858E1B990BDC010E94321AB9
:102E40002C2D30E0241B350B032E000C440B550BAE
:102E50000E945918F9852F0FA4CE0196883091054C
:102E600079F6E2CF80917E08821718F6E8E7F8E05D
:102E700081E090E0D190D21680F4FC013197DF011F
:102E8000A958B74FCC908158974FDC01BC91B987B6
:102E9000E158F74F30813E87C7CF019688309105C2
:102EA00049F7C2CF81FF50CFD801EE2D1D92EA9590
:102EB000E9F7B80189E997E00E942C0545CFF110A8
:102EC0006ACF89EF98E00E94520286E999E00E9459
:102ED00052021816190614F40E945E0F8091B6086B
:102EE00080FF59CF8091B0080E949503892B09F08B
:102EF00052CF80E591E00E94CA0160E08091430AD0
:102F00000E94BE0380EA0E94600480E00E94600488
:102F1000F82E61E08091430A0E94BE03F0FE54C087
:102F200081E60E945B0640E061E08CE20E9488043A
:102F30008091330A882389F08091340A9091350A70
:102F4000A091360AB091370AB0688093340A909302
:102F5000350AA093360AB093370A8091410A882334
:102F600089F08091340A9091350AA091360AB09187
:102F7000370AB0648093340A9093350AA093360AD6
:102F8000B093370A8091340A9091350AA091360A9D
:102F9000B091370A8093AA089093AB08A093AC082D
:102FA000B093AD088091380A8093A908A9E3BAE0EC
:102FB000E1EAF8E090E09F01215A384028173907EC
:102FC0005CF42D912193F7CFF1FE06C081E70E94BA
:102FD0005B0640E062E0A9CF4091AA085091AB089F
:102FE0006091AC087091AD0877FDD5CE5093ED0897
:102FF0004093EC0880919F089091A0089093EB0873
:103000008093EA08B0E0A0E0481759076A077B07F9
:1030100009F0C1CE8091A908883009F0BCCE109289
:1030200094088091B7089091B8088E7F9093B80863
:103030008093B7088091A80881111CC06091A208F4
:103040007091A308762767277627072E000C880B38
:10305000990B0E94881920E030E04AE754E40E946E
:1030600016196093F5087093F6088093F70890930B
:10307000F80891CE1092F5081092F6081092F70811
:103080001092F80888CEF999FECF92BD81BDF89ACA
:10309000992780B50895262FF999FECF1FBA92BDC2
:1030A00081BD20BD0FB6F894FA9AF99A0FBE019629
:1030B0000895052E97FB1EF400940E94701857FD8A
:1030C00007D00E94781807FC03D04EF40C947018B7
:1030D00050954095309521953F4F4F4F5F4F089544
:1030E00090958095709561957F4F8F4F9F4F089574
:1030F000A1E21A2EAA1BBB1BFD010DC0AA1FBB1FFC
:10310000EE1FFF1FA217B307E407F50720F0A21B6D
:10311000B30BE40BF50B661F771F881F991F1A94DA
:1031200069F760957095809590959B01AC01BD0104
:10313000CF010895A29FB001B39FC001A39F700D5E
:10314000811D1124911DB29F700D811D1124911DAF
:1031500008955058BB27AA270E94C1180C94DC1967
:103160000E94CE1938F00E94D51920F039F49F3F03
:1031700019F426F40C94CB190EF4E095E7FB0C94AB
:10318000C519E92F0E94ED1958F3BA1762077307A2
:103190008407950720F079F4A6F50C940F1A0EF425
:1031A000E0950B2EBA2FA02D0B01B90190010C0157
:1031B000CA01A0011124FF27591B99F0593F50F46F
:1031C000503E68F11A16F040A22F232F342F4427C7
:1031D000585FF3CF469537952795A795F0405395BF
:1031E000C9F77EF41F16BA0B620B730B840BBAF08F
:1031F0009150A1F0FF0FBB1F661F771F881FC2F7FA
:103200000EC0BA0F621F731F841F48F4879577950D
:103210006795B795F7959E3F08F0B0CF9395880FC7
:1032200008F09927EE0F9795879508950E942A191F
:103230000C94DC190E94D51958F00E94CE1940F068
:1032400029F45F3F29F00C94C51951110C94101A00
:103250000C94CB190E94ED1968F39923B1F355230F
:1032600091F3951B550BBB27AA2762177307840799
:1032700038F09F5F5F4F220F331F441FAA1FA9F32F
:1032800035D00E2E3AF0E0E832D091505040E6951D
:10329000001CCAF72BD0FE2F29D0660F771F881F7E
:1032A000BB1F261737074807AB07B0E809F0BB0B71
:1032B000802DBF01FF2793585F4F3AF09E3F510585
:1032C00078F00C94C5190C94101A5F3FE4F3983E03
:1032D000D4F3869577956795B795F7959F5FC9F76E
:1032E000880F911D9695879597F90895E1E0660FEF
:1032F000771F881FBB1F621773078407BA0720F068
:10330000621B730B840BBA0BEE1F88F7E0950895D0
:10331000E89409C097FB3EF490958095709561956F
:103320007F4F8F4F9F4F9923A9F0F92F96E9BB2725
:103330009395F695879577956795B795F111F8CFA1
:10334000FAF4BB0F11F460FF1BC06F5F7F4F8F4F0C
:103350009F4F16C0882311F096E911C0772321F002
:103360009EE8872F762F05C0662371F096E8862F9A
:1033700070E060E02AF09A95660F771F881FDAF7F1
:10338000880F9695879597F9089597F99F6780E834
:1033900070E060E008959FEF80EC089500240A94A7
:1033A0001616170618060906089500240A94121620
:1033B0001306140605060895092E0394000C11F453
:1033C000882352F0BB0F40F4BF2B11F460FF04C000
:1033D0006F5F7F4F8F4F9F4F089557FD9058440F59
:1033E000551F59F05F3F71F04795880F97FB991F64
:1033F00061F09F3F79F08795089512161306140621
:10340000551FF2CF4695F1DF08C0161617061806AD
:10341000991FF1CF86957105610508940895E89488
:10342000BB2766277727CB0197F90895AA1BBB1BFB
:1034300051E107C0AA1FBB1FA617B70710F0A61BB4
:10344000B70B881F991F5A95A9F780959095BC01D5
:10345000CD010895EE0FFF1F881F8BBF0790F691D7
:10346000E02D19940E949A18332312F48A1B9B0BA7
:103470000C943C1A0E949A18B7FF0895821B930B74
:063480000895F894FFCF4F
:10348600050030405054535F4F535F56302E333053
:103496005F64657600737065656475696E6F5F5409
:1034A600535F4F535F56302E33305F6465760000AE
:1034B6000000009402F4012102E1025202300244AB
:0634C6000230303100006D
:00000001FF
